:020000040800F2
:1060000008120020B57E0008F34A0708C17C020888
:10601000B93D0808E97C0208FD7C0208117D0208F0
:10602000F34A0708F34A0708F34A070889A00B0850
:10603000257D0208B4300D082DA00B082DDE0B08BD
:10604000F34A0708F34A0708F34A0708F34A070820
:10605000F34A0708F34A0708F34A0708F34A070810
:10606000F34A0708F34A0708F34A0708F34A070800
:10607000F34A0708F34A0708F34A0708F34A0708F0
:10608000F34A0708F34A0708F34A0708F34A0708E0
:10609000B57E0208F34A0708F34A0708F34A0708DF
:1060A000F34A0708F34A0708F34A0708F34A0708C0
:1060B000F34A0708F34A0708F34A0708F34A0708B0
:1060C000F34A0708F34A0708F34A07081962010868
:1060D000F34A0708F34A0708F34A07087D600108F6
:1060E0005D600108F34A0708F34A0708F34A070806
:1060F000F34A0708F1290708C5320708A7960B08D5
:10610000A3960B08392A0708BD960B08AB960B0817
:1061100095320708AF960B08053307086D3307085B
:10612000F34A0708F34A0708257E0208F34A0708DE
:106130004F330808F34A0708F34A0708F34A0708E9
:10614000F34A0708F34A0708F34A0708F34A07081F
:10615000F34A0708F34A0708F34A0708F34A07080F
:10616000F34A0708F34A0708F34A0708F34A0708FF
:10617000F34A0708F34A0708F34A0708F34A0708EF
:10618000F34A0708D9330208F34A070875ED0B08EC
:10619000F9130708F34A070887960B088D960B0832
:1061A000F34A0708F34A0708F34A0708F34A0708BF
:0461B000F34A07089F
:1061C000F0B5114A114C124E00F00105E3695F076A
:1061D00013D40DB9334213D103EA00078F4207D11C
:1061E0000B4A1A40002A14BF6FF001000020F0BDD6
:1061F000013AEBD16FF00200F9E74FF0FF30F6E71C
:106200006FF00100F3E700BF809698000000035094
:106210000200010070B50B4BD96911F480310DD12A
:1062200001244FF48072084E084DF46020462C641F
:106230001A61FFF7C5FF3464EC6070BD6FF00100B8
:10624000FBE700BF00000350001003500020035084
:106250004FF4803238B50E4B0E4C9A66E56941F624
:10626000713315400122E3630B4B0021DA600223F6
:10627000606121202361FFF7A3FF10B92120FFF700
:106280009FFF0122054BDA600DB10023E36338BDA7
:1062900000900050000003500010035000200350F5
:1062A00070B5134C6061E3695B071ED40E4656F867
:1062B000043B8D18A361AE420BD1042300212120A1
:1062C0002361FFF77DFF58B9BDE870402120FFF73B
:1062D00077BF08210846FFF773FF10B1042323613D
:1062E00070BD56F8043BA361E5E74FF0FF30F7E7D8
:1062F000000003502DE9F84316464FF48032184B46
:1063000089469A6603F51C33DA69074602F4803839
:1063100041F67132DA63012203F58053114DDA60E0
:1063200066B930460122104BDA60B8F1000F03D095
:106330000022A3F50053DA63BDE8F88307F50054A3
:106340002C40E41BB44228BF344649462246384616
:10635000FFF7A6FF0028E5D12744A144361BDFE75D
:106360000090005000E0FFFF0020035000000000FC
:10637000000000000000000000000000000000001D
:10638000013800D0FCE7704773B56FF036F904466A
:1063900000286ED13A4B01AE1A889B78ADF80420E4
:1063A000B37002F045FB03F051F802F0AFFF054671
:1063B000344B036003F000FA284603F03BF900B9C0
:1063C000FEE72DA3D3E900234FF0FF314FF0FF305C
:1063D00002F036FB02F09EFF214602F0F7FF6FF05D
:1063E0000FF9304603F0E8F8044600B1FEE7264B0B
:1063F000264A98801860264B98801A60254B264ABA
:1064000098621A60254A98806FF06300DA6003F0A2
:1064100031FF0B2002F0CCFF03F02AF802F070FFEE
:1064200000B9FEE714F0F4FF20466FF0B1FA08213E
:1064300008466FF0B4FA00B1FEE76FF0A7FA02F079
:10644000B5FE6FF0F1F9102115487DF023FD00B97C
:10645000FEE7144912487DF02FFD00B9FEE7102138
:106460008C20114A14F0B8FB00B1FEE70F486FF022
:106470004AFD02B070BD00BF0AE020FFE203000049
:1064800050340D08C157070888120020FC810120F4
:1064900058120020281200207C81012018120020B0
:1064A0006CF700202DEA0B085CF7002021FC0B089C
:1064B0002DE9F04389B06FF091F800B9FEE75C4D2B
:1064C0002B6803B9FEE701229B8811460DF10B00F2
:1064D0008DF80B3003F02EF89DF80B102B68023965
:1064E0000022186889B203F025F80023059307936A
:1064F000504B05AE06932B6893F82C208DF8142092
:106500001B681C7814F0200414D06FF043FA0028A4
:106510005ED06FF03FFA53F0E9FD0B46024640A112
:10652000D1E9000153F086FF54F0F4F8079B1844BA
:106530000124079003F03AF89DF80B300633002849
:1065400049D0D80053F0E2FD37A3D3E9002353F03C
:1065500047FE8946804603F029F853F0C7FD0B46F5
:1065600002464946404653F065FF54F0D3F8079B76
:10657000184407906FF039F838B102F085FF002019
:106580006FF02FF800206FF033F82A6853696BBB67
:106590006FF047F8D5F800C008B3079B264F03F506
:1065A000FA7307939CF81830BB7002F067FFF8701D
:1065B000286833463A462146807902F09DFF58B359
:1065C0004FF480510020B8F048FA6FF006FB23E04A
:1065D0000798C030ACE7079800EB4310C9E7324694
:1065E00021469CF8060002F07DFFE8E700210491B7
:1065F000116912480B449621A3F59B738180039384
:10660000907921460D4B009603AA02F083FF0028E3
:10661000D6D101206FF010F809B0BDE8F08300BFBB
:106620000000000060E366410000000080842E410D
:1066300058F7002020A10700E4AB0120D8AB0120CF
:106640002DE9F04F2DED028B1C4613690546052BF5
:10665000D7B00BD8013B01220026042B23D8DFE85A
:1066600013F041001C012301320145014FF6FC7279
:10667000934212D04FF6FD7293424FF0010340F067
:10668000378102200021CDE9400184F844302046C2
:1066900040A989F0C6FC2860D7E000230022CDE99C
:1066A00040230123F1E7CB69204684F844202E9350
:1066B00088F0C1FE0028EED141A840949EF08EFDE6
:1066C00040A92EA88CF09AFC0646204688F0F8FED9
:1066D0003046002EDFD14FF6FF7384F84C60A4F8EB
:1066E0004A30D8E7D1F81CA0204684F8442088F02E
:1066F000A2FE0746002840F0A78015A814949EF03B
:106700006DFD51460CA889F054FA0523B8469FED5B
:106710007A8B0DF14009C9E900A7C9E9023349465E
:106720000CA88CF0F6FB002800F084800CA88CF0FC
:10673000D6FB8DED248B8DED268B90F88160CDE915
:106740002888CDE92088ADF888808DF8A8808DF85C
:10675000B460D0E90023CDE92623B0F8823000F1FF
:10676000600BADF88830D0E9022320215846CDE9EE
:106770002423A8F092F9624B3146CDE928B02EAA25
:1067800050462E9399F040F90146002851D12FAB85
:1067900020934123219340AB049355230DF1100B1B
:1067A00031465A465046059399F0BAFA01460028F8
:1067B0003FD1059BB3B19BE80300012607AB0DF168
:1067C000280B83E80300194658468DF818608DF8A9
:1067D00024608CF009FC9BE803002BAB83E80300EA
:1067E0008DF8A8609DF8B430002B50D0149E96F818
:1067F000452096F808B00AB15B454AD1304615A944
:1068000088F085FE002844D096F84630316823B3DE
:10681000096C4FF480720023CDF800B020A887F0F7
:10682000F6F90146304615AA039188F089FE0399CE
:1068300079B30F46204688F043FE2FB94FF6FF7319
:1068400084F84C70A4F84A302F6000232B7128463E
:1068500057B0BDEC028BBDE8F08F336C06F1280217
:1068600009A888F0A2FD01460028DBD13368022286
:10687000196C20A80023CDF800B087F0C8F90146B4
:106880000028CFD1316809A888F0C7FDC9E7712178
:10689000CFE70CA88CF010FB41E70520002184F81D
:1068A0004420CDE94001F2E6CB6993F88233CDE98B
:1068B00040360123204684F8443040A989F0B1FBDA
:1068C0002E712860C3E7CB69204684F844202E93BC
:1068D00088F0B1FD00287FF4DEAE41A840949EF020
:1068E0007DFC40A92EA88CF08AFCEDE6237ADEE739
:1068F0008622C0E90023AAE7000000000000000093
:1069000090B00D08000000002DE9F04F2DED028B36
:106910004FF0000A4FF0000B1F464FF6FF740023A4
:10692000CDB0CDE930ABCDE932ABCDE936ABDFF858
:106930009CA205460E469046CDE90E338DF8D03028
:106940003593CDF8E0A04A9472B1044600F534794D
:106950004C4501D10B240CE0204689F0F2F80028C8
:1069600000F01B819034F3E798F0DEFF814630B9E8
:10697000AC2420464DB0BDEC028BBDE8F08F05F590
:106980003474204696F04DFAB9F882308DF8D06014
:10699000ADF8283199ED028B09F1600920214846B4
:1069A000A8F07BF8CDE90E90834B0DF12C091093E4
:1069B0000023CDF878A048461193C9F800300D9314
:1069C0000C938AF030FC4FF4C87044F08DF90DF14F
:1069D000300AC9F8000050B90B240DA88AF023FC36
:1069E0000CA88AF020FC0BA88AF01DFCC1E70990D6
:1069F00050468AF018FC4FF4C87044F075F983468D
:106A0000CAF800000028E7D00DA88AF00CFC4FF46B
:106A1000C87044F069F90D900028DDD0099B31461B
:106A200012934FF4C87312AACDE915302846CDE968
:106A3000133B179398F0D8FF08B10446CDE73146D1
:106A4000284614AA98F0B2FF0028F6D1314628460D
:106A500016AA98F088FF0028EFD112A918A88CF088
:106A6000C3FA14A91AA88CF0BFFA16A91CA88CF0B6
:106A7000BBFA38AB079332AB059336AB049330AB1C
:106A80000DF1780B039310AB8DED008BCDF818B0A2
:106A900002931CAA1AA918A83BF030FA0028CCD1FE
:106AA0000DA88AF0C0FB50468AF0BDFB48468AF02C
:106AB000BAFB9FB9D5F86403002862D003689B68CD
:106AC00098470246D5F864030368002A52D05A4614
:106AD00031465B69984780B104464AE73B683846CF
:106AE0005B699847594699F04AFA08B9C52440E7C6
:106AF0009DF8603135978DF82A319DF86831204630
:106B0000B3FA83F330A95B098DF82B3199F0DEF9E4
:106B10000028E1D120460EA998F0B3FE94F8813008
:106B2000B8F1000F2FD002211120244A9FF01FFC42
:106B3000D4E900122369CDE901210093022111203B
:106B400063691F4A9FF013FC119905F55D703FF0D2
:106B5000BFF9034620B1012111201A4A9FF007FC1A
:106B6000B8F1000F04D095F88233013385F88233F1
:106B70000024FEE63146DB6898470028BDD110248A
:106B8000F7E60324F5E6D4E900121120CDE900214F
:106B900002210D4A9FF0EBFBD6E7BDF864319FED73
:106BA000048BADF828318DF8D060FDE6AFF300809E
:106BB000000000000000000074A10D08C5C70C080B
:106BC000E5C70C085DC80C0828C80C0890B00D0873
:106BD0002DE9F0478AB00DF10D0301931523064608
:106BE00000934FF48072002308460C469EF064FC2C
:106BF000E8B996F8963001220093204600239EF0D3
:106C0000ECFBA0B996F897300222009320460023AF
:106C10009EF0E3FB58B90DF10E03019316230322F6
:106C20000093204600239EF047FC054610B10AB0B1
:106C3000BDE8F0874FF0100906F1C8070DF11808FC
:106C4000102200214046A7F0EEFE0DF10F03019344
:106C500015234FF480720093204600239EF02CFCF5
:106C60000028E4D196F89720EBB29A4251D917ED5B
:106C70000C7BC44637F828ACA7F12603A7F1160E03
:106C8000624618685968083303C273459446F7D1C1
:106C90008DED007B0422002320469EF079FB002826
:106CA000C5D1052200232046CDF800A09EF095FB1B
:106CB0000028BCD14046494606228DE80300002347
:106CC0002046CDE904899EF0CAFC0028AFD12046B9
:106CD0009DF90F109EF025FC013530370028A6D114
:106CE000032DADD120469DF90E109EF01AFC002810
:106CF0009DD1B6F88E3007220093204600239EF0E7
:106D00006CFB002893D120469DF90D109EF009FCE4
:106D10008DE782469FED027BBAE700BFAFF30080AC
:106D20000000000000000000A0F1840050E700BF58
:106D30002DE9F04F2DED028B06460C469FED508B52
:106D40004569DFF8488199B006F110039D4207D1EB
:106D5000304619B0BDEC028BBDE8F04F40F04EBD9F
:106D6000D5E91102D4E928139A4208BF88426F6816
:106D7000019565D1D5E91302D4E92A139A4208BFD7
:106D800088425DD14FF000090DF1300A0021102238
:106D90005046A7F048FE14A8CDF844908DED128B14
:106DA000CDF84080A0F063F9ADF85C908DF85E906E
:106DB000A146B4F8583009A8ADF8423059F8883BDC
:106DC0001193A0F054F999E8030007AB83E803009E
:106DD00094F88C30B3B38446D4E9240105AB83E83E
:106DE000030094F8943083B30246D4F89830CDE988
:106DF00014C2049313F47F0FCDE9023314BFBDF81E
:106E00001030BDF82C30ADF8583094F883308DF840
:106E10005D3094F884308DF85C3094F886301BB186
:106E200094F885308DF85E304FF0000B043D04F18E
:106E3000080963685B450AD8304601A940F09CFC0C
:106E40003D4681E7DDF824C0C6E70A9ACDE748460B
:106E500040F0E4F948B9012122200B4A9FF087FA5B
:106E60000BF1010B09F11009E3E799E80F008AE83B
:106E70000F005146284640F04DFCF1E7AFF300808B
:106E8000000000000000000068CF0C080100A415FD
:106E9000054B18680368D96901A3D3E900230847A3
:106EA00000E0373B015D030014B001200348044BB0
:106EB000834202D0034B03B118477047E4B7012067
:106EC000E4B7012000000000064B0749C91A8910E9
:106ED00048BF0131491003D0044B0BB1014818479A
:106EE000704700BFE4B70120E4B7012000000000B4
:106EF00010B5064C237843B9FFF7D8FF044B13B104
:106F00000448AFF300800123237010BDB677012041
:106F10000000000038090E0808B5054B1BB10549F3
:106F20000548AFF30080BDE80840FFF7CDBF00BFC4
:106F300000000000B8EF002038090E08A3F5803AE1
:106F4000704700BF174B002B08BF134B9D46FFF740
:106F5000F5FF00218B460F461348144A121AA7F07A
:106F600062FD0E4B002B00D098470D4B002B00D03C
:106F700098470020002104000D000D48002802D091
:106F80000C48AFF3008054F003FE200029007CF091
:106F900031FF20F051FF00BF00000800000000009A
:106FA000000000000812002008120020A0A9012003
:106FB000000000000000000073B5044658F08AF895
:106FC000002841D10125234B2577A361A36843F411
:106FD0008013A3607CF051FFA368A0801B0311D431
:106FE000B0F5FA7F0ED9B7F082FD0646294628464D
:106FF000B5F084FE28462946174AB5F0FDFF304615
:10700000B7F070FD204658F08DF8F0B9E068F0B1A7
:107010005AF03AFA57F01EFBA9F05EFEAAF0D0FE35
:10702000A9F0FBFB002201210420A9F046FE002369
:1070300001A88DF8043058F03FFA0420032159F0DC
:1070400053FF20466DF074FA002002B070BD034873
:10705000DEE700BF05040300E8F00B08BEB6012020
:1070600070B505460026B7F055FDAC6804B1AE60BA
:10707000B7F04BFD74B94FF0FF316868B7F0D8F93D
:107080000028F0D0063006288EBF0124024B1C5C7D
:1070900044F00044204670BD3C2E0D0838B504462F
:1070A000084D2046FFF7DCFF2B6803F03803202B48
:1070B00002D1284683F008FD082103486DF040FA0C
:1070C000EFE700BFB7770120F4EF00202DE9F0478C
:1070D0001C4607460E461546B6F051FFDFF868908D
:1070E000D9F80030834207D123462A463146384634
:1070F000BDE8F04755F060BFDFF85080D8F80000D9
:10710000B7F0ECF90B4B48461F600B4B04211E6097
:107110000A4B1D600A4B1C6005230A4C23606DF06E
:107120000FFA4FF0FF31D8F80000B7F081F920686E
:10713000BDE8F08710F000200CF0002008F00020DF
:1071400004F0002000F00020F4EF0020D0EF002039
:1071500010B50748074C6DF00AFA07486DF007FABA
:10716000236823B12068B7F0FCF80023236010BD2A
:10717000E8EF0020D8EF0020DCEF00202DE9F041FF
:10718000054608242846FFF76BFF0443E607F9D5B8
:1071900062F008F90546002835D1384A137803F023
:1071A000FD0343F004031370354E364FDFF8F080D3
:1071B000E3062BD50024344E62F002F9FFF7C8FF36
:1071C00070683460B7F09BF901226FF05F012B4BC0
:1071D00074601A702D4B187819705978002D46D0AC
:1071E0000321597099789A70DA780622ADB2DA7074
:1071F0009D809C71254883F067FCB6F0C0FEBDE819
:10720000F041B6F0D0BE44F01004CDE760070FD5D2
:107210001F493368D8F800203868096855F0CCFE5B
:107220001C4B24F0040418601B4B1868B7F02EF9AF
:1072300061F0DAFE21070ED561F0F8FE58B113486F
:10724000B0F052FB0028B3D14FF48031134824F042
:1072500008046DF075F9B0F09DFB08B92207E7D47A
:107260000948FFF7FDFE0443A2D50824E0E75D705E
:1072700099789A70D978DA70BCE700BFBB780120A2
:1072800004F0002010F00020F4EF0020B777012078
:107290000CF0002000F00020D0EF0020DCEF0020F8
:1072A00008F0002038B5002101200B4AB7F071F832
:1072B0000A4C2060236853B10948B6F0C0FF094B5F
:1072C00018601D682DB92068B7F019F925600120F4
:1072D00038BD0020FCE700BF442E0D08D0EF002091
:1072E000542E0D08D4EF002010B5144C1448236818
:1072F000B6F0A5FF2060236813B90124204610BD15
:10730000104B114A114912486DF040F90028F4D190
:10731000104B114A114912486DF038F90028ECD190
:10732000104B114A114912486DF030F904460028FB
:10733000E3D1104855F0A6FEE0E700BFD8EF0020EB
:10734000642E0D08EC2E0D087D710008DC2E0D0852
:10735000F4EF0020B82E0D085F450708A82E0D0891
:10736000E8EF0020842E0D089D700008742E0D0893
:10737000DCEF0020CD7000084FF4807101486DF003
:10738000DFB800BFE8EF0020022101486DF0D8B857
:10739000F4EF002008B5B5F045FBB0B90E4B1878F6
:1073A00010F0010010D0B6F0EAFD0C4B1B688342D0
:1073B0000DD00B4B4FF0FF311868B6F077FF063059
:1073C000062806D8074B185C08BD1420FCE72020CF
:1073D000FAE70120F8E700BFBB780120F4EF0020B6
:1073E000D4EF00203C2E0D0808B5084B1B78DB07B6
:1073F0000BD5B6F0C4FD064B1B68834205D0054B88
:107400001868BDE80840B6F076BF08BDBB7801201B
:10741000F4EF0020D4EF0020024A137843F0010378
:1074200013707047BB78012008B50A4B1A78120711
:107430000DD41A7812F0060F07D11A78012142F004
:10744000020205481A706DF07BF8002008BD02208A
:10745000FCE700BFBB780120F4EF002008B5FFF780
:1074600021FF0449044861F065FFBDE8084061F070
:1074700093BF00BF102F0D08C02F0D08F8B50E46A2
:107480000546D0B1C9B10E4B0E4F196838680FF0E0
:10749000D9FE044678B9062332460B4938680FF006
:1074A000B1FF044638B901232A46084938680FF06D
:1074B000A9FF00B12C702046F8BD2124FBE700BFD6
:1074C000F0AB012010AC01202C0004003C000400B3
:1074D0002DE9F0478AB005460F4690460021182254
:1074E00004A8A7F0A0FA05220123D5F800908DF892
:1074F0002020304A8DF81030914558D002F5804256
:10750000914505D02C4B994514BF4FF0FF33022312
:107510005C01AB8904F1A04AADF804302B890AF56F
:10752000703A2648ADF80830DAF82068B7F00AFB60
:107530006868B7F007FB042100220DEB01007AF028
:1075400041FF0022042102A87AF03CFF03A9032096
:10755000B7F0F3FACDF824804FF0010839460398CC
:107560008DF811807BF0DDFE09F58057079004A9A6
:107570004846C7F8048012F03FFF04230020C7F8F4
:1075800014807B616B7A2A7A06F0040642EA034291
:10759000CAF83828697B2A7B46F0180642EA01427D
:1075A000CAF83428CAF820680AB0BDE8F08700237A
:1075B000AEE700BF00000A5000800A50E0380D0816
:1075C00013B50446B6F00AF800230122217BCDE969
:1075D00000324900B0FBF1F1024A0348B7F040FB2A
:1075E00002B010BD359B0B0828F0002013B50446EF
:1075F0000F4B01A85B88ADF804300EF06BFC607B8C
:1076000013F054FE042302220DF106010948ADF8DF
:1076100006306CF0EAFF07486DF003F8A07B13F02A
:1076200045FE01A80EF066FC002002B010BD00BFB0
:1076300050300D08B4AB012073B50646154C164802
:1076400063883546ADF80030B7F07CFAB1680022A7
:107650001248FFF73DFF0022042168467AF0B2FE8F
:10766000042123880E4C0DEB01000022ADF80430FC
:107670007AF0A8FE0FCD0FC401222B68304623609C
:10768000084B1A70FFF79CFF3046FFF7AFFF002052
:1076900002B070BD50300D08E0380D08B4AB0120C9
:1076A00014F00020BC7801202DE9F347144605466C
:1076B0009846274B06885B880134ADF8043003797F
:1076C00001A85E430F46A4B20EF004FC687B13F0E1
:1076D000EDFD230243F0010302221E480DF10601D5
:1076E000ADF806304FF000096CF07FFF0134240242
:1076F000F610A4B208F1FF3AC1450FD115486CF05D
:1077000090FFA87B13F0D2FD01A80EF0F3FB114807
:107710006CF08CFF002002B0BDE8F087394632469D
:107720000C486CF062FFCA450CBF4FF6FF7344F083
:10773000FF03022207480DF1060104F58074ADF83D
:10774000063037446CF051FF09F10109A4B2D3E7C8
:1077500050300D08B4AB0120034B04481B78002BBC
:1077600008BF0020704700BFBC78012014F0002043
:1077700030B5064D87B001AC0FCD0FC42B6801A802
:107780002360FFF759FF07B030BD00BF54300D082C
:107790002DE9F043524E97B0354609AC0FCD0FC4DA
:1077A0002B6806F1140523600EAC0FCD0FC495E8CD
:1077B0000F0084E80F004B48B7F0C4F94A48B7F00F
:1077C000C1F94FF48073ADF83C30484B09A90B93D5
:1077D00047480EAB0D9312F051FA0421B6F83490DD
:1077E0000DEB01000122ADF804907AF0EBFDB6F844
:1077F00036800022012102A8ADF808807AF0E2FD6F
:10780000378F0122042103A8ADF80C707AF0DAFD5D
:10781000758F0122042104A8364CADF810507AF07F
:10782000D1FD354B4FF44870C4F8C834A3F500338C
:10783000C4F8C4344FF00213C4F8CC341C23C4F889
:10784000B43413F033FD08A8ADF820500EF052FB0D
:10785000142013F02BFD08A8ADF820500EF03AFBD1
:10786000232013F023FD08A8ADF820500EF042FBB2
:10787000B9211F487BF0C3FC08A8ADF820500EF0DA
:1078800029FB002205A81146ADF814907AF09AFD64
:10789000002206A81146ADF818807AF093FD012267
:1078A000002107A8ADF81C707AF08CFD01220021A0
:1078B00008A8ADF820507AF085FD0D4811F0D2FFF0
:1078C00000230948C4F8B434C4F8C834C4F8C43434
:1078D000C4F8CC34B7F039F917B0BDE8F08300BF75
:1078E00068300D08E0380D08EC380D08E0707200C3
:1078F00000C0085000C003500200030007B5042177
:10790000064B01221B880DEB0100ADF804307AF024
:1079100059FD002003B05DF804FB00BFA4300D0842
:1079200008B50448B7F00EF983F0D2F8BDE8084076
:10793000FFF72EBFE0380D080148B7F003B900BFCC
:10794000E0380D081FB5124B01AC93E8070040F278
:10795000011384E8070001213D20ADF80C3010F040
:10796000EBFF204610F080FC0221002010F0A8FC64
:107970000322084B1E2003F5005103F580534A6192
:107980009A6113F055F811F093FE04B010BD00BFDA
:10799000A8300D0800C000504FF000639A6A02F151
:1079A0007841B1F5C04F03D21168074A914203D024
:1079B0000023037083607047012202709A6A926804
:1079C00042609B6A9B69F5E707B0CD5E1FB5012356
:1079D0008DF80430002301A80293FFF7DDFF039B1D
:1079E0009B0204D505B05DF804EBFFF7ABBF044B79
:1079F000044A1A6005B05DF804EB7BF0AABC00BF36
:107A00000000002002020FF030B52A4A0446137825
:107A100085B01BB10223137005B030BDCDE9013331
:107A200003930028F8D001251570B7F073F8224BA6
:107A3000186067F023FE214B21495A6EE2619B6E6C
:107A400023624FF480438B661E4B5A6862621E4A63
:107A50009A601A6E22605A6E62609A6EA260D3F8C3
:107A60007021E2601A6C22615A6C62619A6CA261A8
:107A7000164A106C1864506C5864926C9A644D6687
:107A80001B6E180410D5124AD368D907FCD403AA78
:107A900002A901A86CF0E4FD019A0E4B1A66029A45
:107AA0005A66039A9A66B7E70B4AD368DB07FCD499
:107AB000EDE700BFBE78012070F00020008000508C
:107AC000009000500080004455CEAC0000C000542F
:107AD00000000440009000440000045070B51E4DAA
:107AE00004462E78012E02D001232B7070BD002891
:107AF000FCD06CF012FE01300BD06CF00EFE40F2A8
:107B00000113984205D0154B154A5E66D368D90714
:107B1000FCD42268134B1A6662685A66A2689A6699
:107B2000E268C3F8702122691A6462695A64A26922
:107B30009A64626AD20744BF00229A60E2690A4BE3
:107B40005A66226A9A6667F0A1FD084B1868B6F07B
:107B5000DCFF0023C9E700BFBE7801200090004091
:107B600000000440008000440080005070F00020BD
:107B700038B54FF00064A36A03F17842B2F5C04F04
:107B800017D21A680D4B9A4213D10D4D2B7813F072
:107B9000FD0F11D10B48FFF737FFA36ADB69984748
:107BA00004460848FFF79AFF0CB901232B702046C2
:107BB00038BD4FF48174FAE70024F8E707B0CD5ED2
:107BC000BD78012048F0002038B54FF00065AB6A61
:107BD000044603F17842B2F5C04F12D21B6B03F199
:107BE0007843B3F5C04F0CD20648FFF70DFFAB6AE0
:107BF00020461B6B5B689847BDE838400148FFF79B
:107C00006DBF38BD74F0002013B54FF000640190D3
:107C1000A36A03F17842B2F5C04F15D21B6B03F192
:107C20007843B3F5C04F0FD20948FFF7EDFEA36AC2
:107C300001211B6B01A89B69984704460448FFF784
:107C40004DFF204602B010BD4FF48174F9E700BF2C
:107C500074F00020F8B54FF00067BB6A164603F1D8
:107C60007842B2F5C04F04460D4611D21B6B7BB172
:107C70000948FFF7C9FEBB6A20461B6B32462946FE
:107C80005B6A984704460448FFF728FF2046F8BD82
:107C90004FF40174FAE700BF74F0002070B54FF0A4
:107CA0000066B36A044603F17842B2F5C04F0D4650
:107CB00014D21B6B03F17843B3F5C04F0ED20948C1
:107CC000FFF7A2FEB36A20461B6B29469B6A9847C2
:107CD00004460448FFF702FF204670BD4FF40174CC
:107CE000FAE700BF74F00020F0B58FB0044601A899
:107CF0000D461646FFF768FF9DF80C30012B08D1A2
:107D00002046324629466CF0A0FD044620460FB0BE
:107D1000F0BD4FF00067BB6A03F17842B2F5C04F87
:107D200014D21B6B03F17843B3F5C04F0ED2094850
:107D3000FFF76AFEBB6A32461B6B294620469B6BE7
:107D4000984704460348FFF7C9FEDFE740F20114F5
:107D5000DCE700BF74F0002070B58EB0044601A8C7
:107D60000D46FFF731FF9DF80C30012B07D120465F
:107D700029466CF087FD044620460EB070BD4FF0DA
:107D80000066B36A03F17842B2F5C04F13D21B6BA1
:107D900003F17843B3F5C04F0DD20848FFF734FE26
:107DA000B36A29461B6B2046DB6B984704460348A1
:107DB000FFF794FEE0E740F20114DDE774F00020E5
:107DC0004FF4803208B5044B9A66B7F089F9B0FADF
:107DD00080F0400908BD00BF00900050134610B568
:107DE00062B103439B070BD14FF48034054B9C6673
:107DF000B7F072F9B0FA80F0400910BD0120FCE73D
:107E00000020FAE700900050B1F5481F0BD800F1B0
:107E10007843B3F5481F06D8044B084498428CBFFA
:107E20000020012070470020704700BF000032088A
:107E300070B505461446F9B1F2B11668864212BF14
:107E400032460F4A22604B684A61DAB222B923F007
:107E5000FF0343F001034B602246284680F029FCD3
:107E600060B9AE420AD1304618F05CFE3146206857
:107E7000BDE870407CF076B96FF0860070BD00BF41
:107E8000F000020010B1034A80F0B5BD6FF086002B
:107E9000704700BF090080030348044A0449121ACE
:107EA00092106CF027BE00BFC0610008806300081C
:107EB000A0A9012008B5154B83F30A8800F030F81B
:107EC000FFF7EAFF124B13498B4212D30020124BEB
:107ED00012498B4218D3FFF735F8186850F8224042
:107EE000586840F82240013298688242F5D30C333A
:107EF000EAE70022F8E71C6844F8220001325C68D7
:107F0000A242F8D30833E4E70022F8E70800002093
:107F100040090E084C090E084C090E084C090E08C1
:107F20004FF4804170B5144B144A154D9A60D3F844
:107F3000882005F5005442F47002C3F88820114AE5
:107F400091664FF0FF3222666FF4003262660D22B6
:107F5000A2660222C3F8D020BFF34F8FBFF36F8F0A
:107F60004FF44036002012F0A9FD0020E66012F028
:107F70005FFD2E6170BD00BF00ED00E000600008F5
:107F80000080004400900050014B1860704700BF13
:107F9000C8AB0120054B1860054B1B6F03F00703AE
:107FA000032B01D1B1F0FABD704700BFD0AB012067
:107FB00000800050002307B50193094B1B68013373
:107FC00006D0B6F0C7FB0749074853F09DFAFEE715
:107FD000B6F0C0FB019B002BFCD003B05DF804FBA6
:107FE000D4AB0120AAF10B08C4F10B0808B5EFF3DC
:107FF00005830F2B0CD90F4A9B5C0F4A12789A42CB
:1080000006D9B6F0A7FB0D490D4853F07DFAFEE7FF
:108010004FF0E0230B4AD3F80C3D126803F4E06301
:10802000934206D9B6F096FB0749054853F06CFA1F
:10803000FEE708BDF0E300E0BF780120DEF20B08A8
:10804000C4F10B08A0F0002008F30B0800216FF02A
:10805000040008B57BF07FF9B5F0C0FAB0F5806F89
:1080600006D2B6F077FB0D490D4853F04DFAFEE706
:108070000C4B00F2FF30800A18604FF0FF33B3FB67
:10808000F0F3094A0A3B1360B6F030FE074B186064
:10809000BDE808400120B2F003B800BF5FF30B0851
:1080A000C4F10B08D4F00020CCF00020D0F0002068
:1080B0000123054A411100F01F00834052F82100BE
:1080C000034342F821307047B4F60020044B1B688C
:1080D0001BB1044B0360002070470120704700BFB4
:1080E000C4F600201873012070B50D4C246884B1CB
:1080F0000C4C85182688B5420DDC6688CD18B54233
:1081000009DC52B14BB1A0800020E1802281638163
:1081100070BD0120FCE70420FAE70520F8E700BF66
:10812000C4F60020187301202DE9F74F1D46424B7D
:1081300017461B68002B79D0DFF80491B9F80A20A4
:10814000B9F80840531A63431B1AAB4270D300249A
:108150004FF00108B9F80660324493B20E4401931F
:10816000B6B21DB9284603B0BDE8F08F019AB3B28C
:1081700093425FD2B9F808A0304BAAEB000AAA4597
:1081800028BFAA4603EB061CB9F80430A5EB0A0584
:1081900003445A0799B204D1630702D1BAF1070F19
:1081A00023D88A44091B89B20B199BB2534505D3C6
:1081B0003046FFF77DFF01360020D2E7E010385C43
:1081C0004FEAD30E04F0070B1CF80E2003F0070350
:1081D00040FA0BF0C00708FA03F346BF1A43D2B2C5
:1081E0009A430CF80E200134DEE70CEBD1034FEA82
:1081F000DA0B5A46184607EBE401A6F0BFFC2AF05A
:1082000007021AF0070A03461444D1D0E11008FA15
:108210000AF2795CD2B2501E014013F80B005242B0
:1082200002400A4303F80B205444C1E7012599E7B3
:10823000032597E7042595E7C4F60020617901201E
:10824000187301202DE9F04F98464C4B85B01B6800
:10825000002B00F08F80B8F1000B18BF4FF0010B1E
:108260004FF0010ADFF81C910F9EB9F80650B9F8DB
:108270000A302B449BB20293CBF10003DBB20D44D6
:108280000193ADB21EB9304605B0BDE8F08F029A39
:10829000ABB2934270D2B9F80840B9F80430241A4E
:1082A000B44228BF34461844354B072CA6EB0406CD
:1082B00080B203EB051223D80444B8F1000F17D1A4
:1082C000A04217D2C708D35D00F007010AFA01F1F6
:1082D00023EA01030130D35580B2F1E7C108575CAE
:1082E00000F007030AFA03F33B430130535480B212
:1082F000A042F3D32846FFF7DBFE01350020C1E79B
:108300004FEAD00C02EBD00710F007000BD1E208C7
:10831000384601990392A6F086FB14F00704039AED
:10832000E8D0174416E00AFA00F3DBB2BBF1000F05
:1083300003F1FF3108BF002312F80CE05B420EEAA4
:10834000010108381943044402F80C10E20807F14F
:108350000107DDD10AFA04F4E4B2BBF1000FC4F165
:10836000000204F1FF3408BF00243B78134023438C
:108370003B70BFE7012686E7042684E7C4F60020A9
:10838000617901201873012037B5114D2B68EBB9C5
:10839000FFF7EEF9044610B1012003B030BDFFF73E
:1083A000DBF928600028F7D002884188094B204675
:1083B0001A801A814A43598059819C80DC80214669
:1083C000CDE9004223462246FFF73CFF0020E4E7C8
:1083D000C4F60020187301202DE9F843002301257D
:1083E0001A461A4FDFF86C803C68DFF86490D8F8C2
:1083F0000000D61841888E4207D3FBB91022002115
:108400001248A6F010FB002012E0E10708D5013366
:10841000D118C9060ABF57F8254064080135E6E7B8
:1084200053B109EB0211FFF73FF9034610B10720E2
:10843000BDE8F883721CEBE70132E9E7044901EB80
:108440000211FFF731F90028D8D0F0E7B4F6002088
:1084500061790120C4F6002030B5054687B000B32D
:1084600000226FF07F43C0E9012301A8FFF72EFE31
:10847000044698B9019BCDE902002B601A885B88FD
:10848000013A013B284602A9049205936CF074FB63
:10849000044618B9284604496CF0BEFC204607B0D3
:1084A00030BD0524FAE700BF08310D08094B091A51
:1084B000891030B559430246002324258B4205FB21
:1084C000032004D0046A04B130BD0133F6E7002074
:1084D000FAE700BF398EE33807B50A4600B9FEE770
:1084E000037F03B1FEE7074B01900093416801232E
:1084F0004FF0FF30AFF0FAFF00B1FEE703B05DF8D8
:1085000004FB00BF21EA0B0830B5044685B00846DD
:1085100004B9FEE7237F03B1FEE703A96568B5F060
:1085200063F848B90123064ACDE9000303992346BD
:108530002846B6F0B3FB00B1FEE705B030BD00BF82
:1085400027EA0B08084908B5A1F12400FFF7AEFFA0
:1085500040B90649A1F12400FFF7A8FF003818BF71
:10856000012008BD0120FCE718F70020F4F60020E8
:1085700038B5174D174C202200212846A6F053FA93
:10858000182200212046A6F04EFA002100200022E9
:10859000114BC3E90001114B11491A779960114938
:1085A0001A62D9601049C3E9002519610F499A611F
:1085B00059610F4B0F49C3E9002499600E491A779E
:1085C000D9600E491A6219610D499A61596138BD25
:1085D00030F7002018F7002008120020F4F60020E1
:1085E00009850008C54E07089F4E0708C94E0708B1
:1085F000D0F60020D9840008B74E0708BD4E070802
:10860000F74E070810B5FFF79DFF68B10E49A1F1BD
:108610002400FFF74BFF044638B90C49A1F12400B0
:10862000FFF744FF044638B910BD204608496CF0F6
:1086300050FC20460449ECE7204606496CF049FC12
:1086400020460249ECE700BF18F70020F4F60020AE
:1086500059AB0008A1AB000810B50446AFF0CFFA43
:1086600040B120466DF087F92422034B02FB003312
:10867000187FC0B210BD00BFF4F60020014B1B698B
:10868000184700BFF4F60020F8B507466DF073F9FF
:10869000104B03EBC00253F830405668FFF7EEFF73
:1086A000054638466DF067F924220B4B02FB003378
:1086B0001B7F03F0FF0253B10023A542B34103D255
:1086C000651B2C4666F1000620463146F8BD14466F
:1086D0001646F9E708120020F4F600202DE9F843C9
:1086E0000C46154680466DF046F924234343104A54
:1086F000D1589F1809B942F80380002314EB0509EB
:10870000404643EB03066DF036F90A4B03EBC0021B
:1087100043F830905660B6F0FDF906462A463846D2
:1087200021466CF01CFC3046BDE8F843B6F0EDB9CC
:10873000F4F600200812002038B50546B6F0EAF934
:10874000044628466DF017F92422054B02FB003041
:108750006CF0D8FB2046BDE83840B6F0D6B900BF73
:10876000F4F60020014B1B69184700BFD0F600202B
:1087700070B5B6F0BCF905464FF0FF30B0F0B4FA72
:10878000044608490B6808608342074B284682BFAD
:108790001A6801321A601E68B6F0A4F92046314604
:1087A00070BD00BFCCF60020C8F60020F8B50D461D
:1087B000164604466DF0DFF824234343084AD15897
:1087C0009F1801B9D450B6F0A5F904463246384690
:1087D00029466CF0C4FB2046BDE8F840B6F095B9D8
:1087E000D0F6002038B50546B6F094F90446284680
:1087F0006DF0C1F82422054B02FB00306CF082FBC7
:108800002046BDE83840B6F080B900BFD0F6002061
:1088100030B589B07BF071FC012820D1114C124D8C
:108820000021182202A8A6F0FEF8204602A96CF04A
:10883000E1F888B9039B1B0A012B0DD0BDF8083065
:10884000B3F5885F08D040F20113204601AA02A9BF
:1088500001940393FFF7ECFA0134AC42E0D109B084
:1088600030BD00BF01000200080002002DE9F04702
:108870000329D4B00646DDE95D5A894690461C4678
:108880009DF8707156D104A87FF017F9022016F0F8
:10889000DDFD014604A816F0E5FD0346E8B9274AC8
:1088A0002946CDE9000202905FFA8AF204A817F087
:1088B0006BFA054688B9A02204A92CA8A6F05EF997
:1088C0002CA87FF02AF90238022898BF2D9D20227B
:1088D0002CA905F160007DF00FF94FF0200A2CADB6
:1088E000174B33F81910B8F1030F96BF154B002240
:1088F00053F8282004F00103A00748BF43F4807315
:10890000600748BF43F40073200748BF43F4805317
:10891000781EE40648BF43F4005347424741CDE97F
:10892000015A304600976CF00DF854B0BDE8F0479E
:108930006CF070BBD4D90021D5E700BFD59F0808E3
:1089400048340D0838340D0808B5134660B1006886
:1089500050B14AB141B10A46006804496CF052F87E
:10896000BDE808406CF056BB072008BD0044400439
:1089700008B540B1006830B104496CF07EF8BDE83C
:1089800008406CF047BB072008BD00BF090000028B
:108990001FB501234FF480720390CDE9003247F2F6
:1089A00012114FF44053044A03A86BF0F6FF6CF029
:1089B00031FB05B05DF804FBFF0600067FB51346EA
:1089C0000A4681B17BB10121039105A902914021A1
:1089D000CDE90031202306496CF074F807B05DF84A
:1089E00004EB6CF017BB072007B05DF804FB00BF79
:1089F0000906000608B511F0F7FA034B1860BDE848
:108A000008407AF01DBC00BF50F700200148B3F0C9
:108A100063BD00BF4000010000210148B3F048BD24
:108A20000A00010000210148B3F042BD60000100CE
:108A300000200021014BC3E9000170471012002003
:108A40002DE9F04F144C9B46D4E9006585EA0307F5
:108A500086EA020808EA00080F4058EA070382463F
:108A6000894685B014D0039200F044FC80B1039A8B
:108A70004B46CDE9002B5246AFF0DDFE014610B16A
:108A800006486DF03DFA86EA08067D40C4E90065B7
:108A900005B0BDE8F08F00BF10120020FBFB0B08F3
:108AA00070B506460C466CF068FF05466DF098F808
:108AB00070B12A46214607486DF025FA2146304616
:108AC00001F0FEF92946204600F040FD00B1FEE726
:108AD00070BD00BF2DFC0B0870B586B00E466CF063
:108AE0004CFF05466DF07CF808B3124B06F1080404
:108AF00003EBC50314F8012DB44203F8012BF9D19F
:108B0000059523780C48049363780393A378029324
:108B1000E378019323790093E1796379A2796DF089
:108B2000F2F92946204600F019FD00B1FEE706B033
:108B300070BD00BF728101203FFC0B0838B50C46A8
:108B40006CF01BFF05466DF04BF850B1214605480F
:108B50002A466DF0D8F92946204600F007FD00B1FD
:108B6000FEE738BD61FC0B0808B56CF01CFF10B9BE
:108B700002486DF0C8F9002008BD00BF77FC0B0863
:108B800010B504466DF02CF840B120466CF00BFF98
:108B900030B104486DF0B7F9002010BD2520FCE786
:108BA0000D20FAE792FC0B0838B504460D466DF02F
:108BB00017F800B36CF012FD10B10D24204638BD3B
:108BC000204600F00FFB0028F7D1204600F002FEFF
:108BD0000146284600F060FC04460028EED12846F5
:108BE00000F09CFB044640B96CF0FBFC044B9D710B
:108BF000044B9D71E2E72524E0E70124DEE700BF96
:108C00008812002058120020F0B589B00D46174692
:108C10001E4600F0DFFD0446FFF7F8FE38BB6CF09F
:108C2000DFFF30B32146284600F036FC0446C0B9C9
:108C300001206CF0D6FCFF238DF804300123284678
:108C400001AA04A90794CDE9024405948DF81C30CB
:108C50000497069600F0E4FC30B9074B9D71074B72
:108C60009D71204609B0F0BD20466CF0BAFC01248D
:108C7000F7E72524F5E700BF8812002058120020EE
:108C800008B56CF0ADFF0028014808BF002008BD02
:108C9000281200207F2337B58DF80730094B044692
:108CA0009D796CF09DFF48B16CF098FC30B91022B2
:108CB000294620460DF1070300F0A4FA9DF90700AC
:108CC00003B030BD881200202DE9F84F05460E464E
:108CD00000F080FD074628466CF04DFE04466CF01F
:108CE0007FFF002800F0848004B1FEE7414CA642DB
:108CF00000D0FEE73268404B9A4200D0FEE7237F67
:108D00009A070DD4642384F82C303946A07900F0FA
:108D1000C3FB0746002868D16CF060FC68B1FEE731
:108D200094F82C30022B01D85023ECE7023BDBB245
:108D30004F2B84F82C30F7D9E7E76CF086FC207FC6
:108D40002E4EC0F38000A56234606CF06DFC217F74
:108D50002846C1F3C00100F01BF9284600F048F98D
:108D600078B13468636963B94FF0FF30AFF0BCFF8E
:108D700040F6B83233682061012128465A6100F07C
:108D800007F93368D3F82880D3E9049A404600F005
:108D90002FF9A0B1D6F800B09BF81C30DB070ED439
:108DA000404600F025F909EB0A010446A03140468F
:108DB00000F024F9A1B2024658466CF0D7FF3068A3
:108DC000816A00F033FDB5F0A5FE044601206CF089
:108DD0001DFCFDF76DFB2046B5F097FE6CF055FCD1
:108DE00018B12846034975F0EBFC3846BDE8F88F0A
:108DF0002527FAE7281200207C81012058F700205F
:108E00002DE9F04106464C4F4C487BF0AAF830B3B0
:108E10004FF4F850B3F060FBE0B16CF01BFC484F2E
:108E2000054600286DD03B6800201B68454D1B7827
:108E3000002413F0200F08BF00256CF00FFC002366
:108E400039682A46C1E90433886A234675F0C1FCB3
:108E50006CF0C3FE3046BDE8F04100F039BA38701E
:108E600036487BF063F8044600B9FEE7364D037BD5
:108E7000EA7DC3F3800363F34102EA75037B03F0E9
:108E8000FB030373EA7DDB0963F30002EA75037BEE
:108E900003F07F0303734378AB71034613F80C2B85
:108EA000AA802B6090F90330284A6B751370837881
:108EB000274AAB7513704368AB62D0F80880FFF7A0
:108EC00057FC804528BF01F1FF31C5E9028106B991
:108ED000FEE7304600F0AEFD2875304600F0B4FDE8
:108EE000286119486CF0E9FD20B930463A781649F6
:108EF00075F05DFC214617487AF056FE6CF06DFE69
:108F000082E76CF0B0FB044648B128466CF0AFFB3A
:108F10000F24214610486CF0F9FF00258FE76CF014
:108F2000ABFB20B120466CF0ABFB0E24F1E76CF0FC
:108F3000B0FB0B24EDE700BFFB8101206CF70020A4
:108F400058F7002058120020881200207A81012052
:108F50007B8101205CF70020CFFC0B08122208B5B2
:108F600000210448A5F05FFD4FF6FE73014A22F888
:108F7000023C08BDBAF70020044B19802AB11168E1
:108F8000C3F802105168C3F806107047B8F7002004
:108F9000014B9972704700BFB8F700201FB5084613
:108FA00001A96CF0B8FEE8B99DF80C30012B04D093
:108FB000022B0ED005B05DF804FB4FF6FD720A4B94
:108FC0001B889342F6D8BDF80400C31A5842584192
:108FD000F0E70822054901A8A5F0FCFCB0FA80F0F2
:108FE0004009E7E70020E5E7B8F70020BAF70020DE
:108FF000014BD868704700BFB8F7002038B5A023F0
:109000000D4DEC685C4311B9FFF7ACFB01462B69D1
:10901000B3FBF4F204FB1233B1FBF4F204FB1211C4
:109020002344581AB0FBF4F304FB1300A023B0FB55
:10903000F3F080B238BD00BFB8F7002038B5084C57
:109040001546E3684BB1FFF7A9FF30B10123A372C6
:109050002846BDE8384001F02DB90020A07238BD87
:10906000B8F700202DE9F041DFF83C800D4698F874
:109070000A101F4606469DF8183099B1E03202EBFF
:1090800043146CF089FCA4EB471421183046B8F85F
:109090000C80FFF7B3FF414602462846BDE8F04189
:1090A0006CF064BEBDE8F081B8F70020F8B5074663
:1090B0000E4614461D466CF093FD90B14FF6FE73BC
:1090C0009E4200D9FEE74FF6FD739C420BD855B186
:1090D000064B38462A462146DE60FFF74DFF00204A
:1090E000F8BD2520FCE70120FAE700BFB8F7002013
:1090F00010B50C466CF074FD08B1014B1C6110BD3D
:10910000B8F7002008B500F035F930B1044BB3FBD7
:10911000F0F083B20BB1184608BD0120FCE700BF98
:1091200040420F0013B50446064800F039F9FFF736
:10913000E9FF0122C100044B0094024800F020F92D
:1091400002B010BDD0F700201559070810B503680C
:109150000446012B02D1024800F022F9204610BD3E
:10916000D0F7002070B50446E8B10368022B1AD18D
:1091700043790D4D05EB830583797BB16CF085FB5D
:1091800006462479284664B26CF071FB21463046CD
:1091900075F02DFBBDE870406CF01FBD2846BDE8A2
:1091A00070406CF064BB70BDCCF7002008B518228D
:1091B00000210448A5F037FCBDE8084002486CF0E7
:1091C00056BB00BFD0F70020CCF7002008B56CF0EC
:1091D000D2FB00B1FEE70248BDE808406CF047BB97
:1091E000CCF7002008B56CF0C6FB00B1FEE7044BDD
:1091F000186818B10068431E5842584108BD00BFA6
:10920000CCF700202DE9F34706460D4690461F4651
:109210006CF0B1FB00B1FEE727B3DFF85890D9F846
:1092200000A0BAF1000F22D118207AF092FC044677
:109230002A4643463146CDF800A06CF0F8FA2046A5
:109240006CF026FB054670B9C9F800402368012B75
:10925000FCD0237920463B70FFF784FF284602B0FC
:10926000BDE8F08722253046FFF7B0FFF6E704257A
:10927000F9E700BFCCF700202DE9F34105460C4685
:1092800017466CF078FB00B1FEE7DFF84080D8F8B5
:109290000030ABB918207AF05CFC01230646224668
:1092A000294600933B466CF0C2FA30466CF0F0FA67
:1092B000044630B9C8F80060204602B0BDE8F0812D
:1092C00004242846FFF782FFF6E700BFCCF7002012
:1092D00008B56CF050FB00B1FEE7054B186830B1E3
:1092E0000368022B03D1BDE80840FFF73BBF08BD70
:1092F000CCF70020014B1868704700BF98F8002099
:10930000014B1868704700BF94F800200048704770
:10931000F0F7002000487047E8F700201FB5FF2352
:109320008DF804300023CDE90233084B014601AA31
:109330001868AFF05CF9044628B905486CF0E3FD05
:10934000204604B010BD0120FBE700BF98F80020C4
:10935000ECFC0B08024B0A4601461868AFF003BB51
:1093600098F80020024B4142186860F08FBB00BFA4
:1093700098F80020014B1868AFF09DBA98F80020CB
:1093800013B5049CCDE9003413460A460146034850
:109390000068AFF0ABF802B010BD00BF98F8002035
:1093A000024B01461868AFF0ACB800BF98F8002037
:1093B000024605480179914204D84179914238BF6B
:1093C0000020704700207047E8F70020F8B50446F9
:1093D0001C4E23680F463068FBB19721AFF0F0FCBC
:1093E000024600B1FEE72168306860F0F7FE00B188
:1093F000FEE721683068AFF039FA2179814200D068
:10940000FEE7306861F0E0F800B1FEE70122306865
:109410001146AFF03FFD28B1FEE761F04FFC054675
:1094200008B1FEE70125032230681146AFF01AFDAE
:109430007F2F03D0394628466CF0DCFA024B1C60C3
:10944000F8BD00BF98F8002094F800200022034BDC
:109450001A6041F60B229A80704700BFE8F700209F
:10946000024B01461868AFF052BD00BF98F80020CB
:10947000014B1860704700BF94F80020014B93F92E
:1094800000007047CFB60120024B0122002118686E
:1094900060F0BABA98F8002038B50D46FFF788FF9B
:1094A000044678B1084B1B68834204D128466CF00F
:1094B00098FA002038BDFFF7E7FF29462046FFF75E
:1094C00085FFF6E70720F5E794F80020014B1868C0
:1094D000AFF06DB898F80020014B186860F07CBAC6
:1094E00098F8002013460A46014602480068AFF08B
:1094F0000BB800BF98F8002007B5009313460A4642
:10950000014603480068AFF015F803B05DF804FBAE
:1095100098F8002013B5049CCDE9003413460A46A0
:10952000014603480068AFF010F802B010BD00BF5C
:1095300098F8002008B513460A460146024800681C
:10954000AFF038FB08BD00BF98F80020024B0A4678
:1095500001461868AFF044BC98F80020024B0A4658
:1095600001461868AFF068BC98F80020024B0A4624
:1095700001461868AFF04ABC98F80020024B0A4632
:109580000146186861F026B998F80020024B0A4697
:1095900001461868AFF05BBB98F80020024B0A4602
:1095A0000146186861F036B998F80020014B186838
:1095B000AFF08FB998F80020024B0146186860F0B0
:1095C00081BA00BF98F80020024B0146186861F08C
:1095D00013B800BF98F80020014B1868AFF036BAF6
:1095E00098F80020014B186861F026B898F8002020
:1095F000024B014618687AF0D3BC00BF98F80020EF
:10960000024B01461868AFF072B900BF98F800200D
:10961000024B01461868AFF0E3BA00BF98F800208B
:1096200013460A46014602480068AEF0E4BF00BF98
:1096300098F800204FF0FF3307B50193264B014601
:109640001B6ADB0700D4FEE7244B00221B88038241
:10965000234B1B688361234B1B884382224B1B686F
:10966000C3618023838200F12403036201A860F0B8
:1096700017F900B1FEE761F04DFD00B1FEE71B49AF
:10968000019861F09DF800B1FEE702210198AFF06A
:1096900002F900B1FEE71649019861F0BFFA00B186
:1096A000FEE701210198AFF0F7FB00B1FEE70121D1
:1096B0000198AFF007FC00B1FEE700F0A7F8012128
:1096C0000198AEF00EFF01980A4B186000B9FEE752
:1096D00003B05DF804FB00BF0080E00F7AC90D08FD
:1096E00080C90D0878C90D087CC90D080700110054
:1096F00054340D0898F80020024B01461868AFF06A
:1097000082BA00BF98F8002030B50C46154A85B0E3
:109710001068516802AB002C03C304F1FF350DD172
:1097200010F086FC2B46CDE9000102AA073412F89E
:10973000011D03F8011FA342F9D110E02A460A4B8C
:109740000A4913F801098B4202F8010FF9D10822E6
:1097500020460DEB0201A5F03DF90028E0D005B050
:1097600030BD00BF30040C080900E00F0100E00F1D
:1097700010B56BF049FF044638B905486CF0C3FBDF
:1097800020466BF02EFFB5F053F9002010BD00BF4E
:1097900077FC0B08014B1878704700BF7C820120D2
:1097A000014B1878704700BF7C820120014B18786C
:1097B000704700BF7B820120102208B57F2103483B
:1097C000A5F031F97F22024B1A7008BD7E8201207C
:1097D0007D82012007B50DF10600FFF711FFBDF8EE
:1097E0000610084A084B0A4493F9003012F90B0C92
:1097F000984203DB7F2B14BF1846002003B05DF8AE
:1098000004FB00BF7E8201207D820120402208B53A
:1098100000210548A5F007F94FF6FF73024A938728
:1098200082F83E3008BD00BF9CF800202DE9F041D1
:10983000054608466CF09FF8064628466CF098FAF4
:10984000002850D028466CF09AFA00284BD02B7F85
:10985000DA06C3F3001446D428466CF054FAA0B1DB
:1098600028466CF09DFA0746002840D0214B03EBB8
:1098700086135B785A1E90420DD0834209D0013383
:10988000984232D00820BDE8F0811A4B03EB8613D2
:109890005F78012300E0234603EB8603154C1B0190
:1098A0000C332344AB602B7FDB0716D428466CF0C7
:1098B0002AFA4FEA861828B104EB08035A6804F81C
:1098C00008709A603946284644446CF076FA61681C
:1098D00028464B1C63606CF072FA0749284601EB7E
:1098E000C6016BF011FE0020CDE70223D4E7012072
:1098F000C9E700BF9CF800207281012038B50C46F2
:109900006CF039F805466CF06BF948B1B5F002F926
:10991000044B03EB85135C60BDE83840B5F0F5B847
:1099200038BD00BF9CF800202DE9F7430446DDE96F
:109930000A7691461D466CF01EF880466CF050F990
:10994000002859D00DB107B106B9FEE72046002125
:10995000FFF7D4FF2A4C4FEA881E0EF10C0C2B4661
:10996000A444654604EB881888F8019003F11008B8
:109970002A4618685968083303C243451546F7D18B
:109980000EF11C053B4625442F4603F110083A46CC
:1099900018685968083303C243451746F7D10EF1DA
:1099A0002C07334627443E4603F110083246186818
:1099B0005968083303C243451646F7D14FF6FF7383
:1099C0007444A38784F83E3010226146E06801ABFE
:1099D0006BF04CFB00B1FEE710222946E06901ABB9
:1099E0006BF044FB00B1FEE710223946E06A01ABA0
:1099F0006BF03CFB00B1FEE703B0BDE8F08300BFB5
:109A00009CF8002038B50C466BF0B5FF05466CF0AD
:109A1000E7F860B1B5F07EF8054B03EB85135A68A3
:109A2000A24238BF5C60BDE83840B5F06EB838BDC2
:109A30009CF8002008B56BF09EFF024B8001185C7B
:109A400008BD00BF9CF8002008B56BF094FF024BE6
:109A500003EB8013986808BD9CF8002082B02DE9C4
:109A6000F04F9BB024AF47F8043F002305AE86E8D3
:109A7000070009AC0CAD96E8070084E8070097E8FA
:109A8000070085E8070094E807000DF13C080DF198
:109A900048098DF8643088E8070095E8070089E8F0
:109AA000070040466BF0BFFF039048466BF0BBFFDA
:109AB000DFF8A0B0039BDBF800A00422009015A9FA
:109AC000504679F07AF80346002840D00022D1B2FF
:109AD00004931AAB03EB810151F8141CDBF800006E
:109AE00003920DF069FF039A049B01329342824670
:109AF00001D00028EBD096E8070084E8070097E83B
:109B0000070085E8070094E80700DBF8003088E8E4
:109B1000070095E8070089E80700404603936BF0CB
:109B200082FF049048466BF07EFF049B0090042265
:109B3000039815A979F041F8034610B1BAF1000F66
:109B4000C4D050461BB0BDE8F04F02B070474FF094
:109B50002D0AF6E710AC01202DE9F04F0F4606461E
:109B600089B01846904699466BF064FF002F3BD0B1
:109B7000B8F1000F38D000250124DFF870B0484656
:109B80006BF058FFDBF8003000F5003A05A80193B0
:109B9000CDF814A0ADF8186007956BF044FF04AB46
:109BA000014603AA01980DF0EBFC2D2801D00023FB
:109BB00011E005A8CDF814A0ADF8186007956BF07A
:109BC00032FFDBF800400146434620463A460DF09E
:109BD000A7FD01230446082D02D00135002BCED06D
:109BE000204609B0BDE8F08F2124F9E710AC012030
:109BF00008B56BF047FF014620B10D48BDE80840AD
:109C00006CF084B90B4A1368013313600A4B18686F
:109C100090F8343053B9094B19680DF013FB014625
:109C200008B10748EAE70122064B1A7008BD00BFD9
:109C300009FD0B08DCF8002010AC0120F0AB01207E
:109C40002AFD0B088E82012038B56BF01BFF014600
:109C500020B1BDE8384008486CF058B9074B084DB2
:109C60001C68013C1C602B782BB124B9054B18688B
:109C70000DF0B0FB2C7038BD50FD0B08DCF8002057
:109C80008E82012010AC01202DE9F04F87B00546EF
:109C90000E46144698466BF007FF814628466BF047
:109CA000C9FEB9F1000F5AD1DFF8F0A000F5003578
:109CB000DAF80070E4B2B8F1000F5CD0109B002B12
:109CC00059D003A8CDF800900395ADF81060059425
:109CD0006BF0A9FE02AB014601AA38460DF050FC1C
:109CE0008146002834D1029F002F3ED001466A46AB
:109CF000384610F03BFF814650BBDDF800B0BBF1A9
:109D0000000F35D003A803950594ADF810606BF0F3
:109D10008AFEDAF800500146044602AB284601AA42
:109D20000DF02EFC814698B95A462146029BDAF87E
:109D300000000DF067FB814650B9109B40461A8821
:109D40000099BA4228BF3A46A4F018FF109B1F8022
:109D5000009808B179F017FDB9F12D0F1AD80E4A05
:109D600012F8090007B0BDE8F08F4FF02D09EFE7BA
:109D70004FF00109ECE703A80395ADF810600594D6
:109D80006BF051FE02AB014601AA38460DF0F8FB1C
:109D90008146E1E70120E5E780340D0810AC0120A1
:109DA000F8B505460C4616461F466BF07DFE70B9A9
:109DB000294620466BF043FE08B12D2805D12B46DD
:109DC0003A4631462046FFF7C7FE2D2802D8024BFF
:109DD000185CF8BD0120FCE780340D087FB506460D
:109DE0000D4614466BF060FEA8B9002C17DB304618
:109DF0006BF020FE00F500300190E4B201A8ADF850
:109E0000085003946BF00FFE084B014618680DF0E4
:109E1000D3FD2D2808D8064B185C04B070BD314620
:109E200028466BF00CFEF4E70120F6E710AC0120A9
:109E300080340D0830B589B005466BF023FE04462A
:109E400030B10146124809B0BDE830406CF05EB850
:109E500028466BF0EFFD00F5003002902846ADF883
:109E60000C4004946BF0E6FD1F22ADF81820092287
:109E70000346079208AA12E903008DE8030002AA2C
:109E800003F5003307CAFFF7E9FD09B030BD00BF95
:109E900073FD0B0838B5074D04462B78834207D075
:109EA000054A064B002818BF1346012098472C701E
:109EB00038BD00BF8F820120CDC90B08F9C90B083E
:109EC00010B50C466BF059FD044B014623F81040C9
:109ED0002246BDE8104002486CF015B874730120AA
:109EE00099FD0B0810B50C466BF047FD28220C4B72
:109EF00033F810301C440B4BA4B202FB003000239B
:109F00000288A24201D182783AB901330A2B00F1CA
:109F10000400F5D14FF0FF3010BD18B2FCE700BFD0
:109F2000747301204C73012010B50C466BF025FDB5
:109F30000F4B618833F8102023880B44A188194403
:109F4000E3880B4428211A440A4B92B201FB0030EB
:109F500000230188914201D1817839B901330A2B5C
:109F600000F10400F5D14FF0FF3010BD18B2FCE74E
:109F70007473012024730120F8B54FF4905079F0E8
:109F800021FB234E234D3060642079F01BFB224BD4
:109F900000242B604FF490536B61336864262B616F
:109FA00018231E4FA86021461D4A0120AB61EE60B8
:109FB0006C603C72B4F0EDF92A462146786019488D
:109FC000B3F085FF38604FF4406079F0FBFA164F2C
:109FD000164D3860304679F0F5FA154BC5E90206A2
:109FE000C5E900344FF440636B613B68114E2B614F
:109FF00010232146104A0120AB613472B4F0C9F934
:10A000002A46706021460D48B3F061FF3060F8BD0C
:10A01000D812002008F90020B7FD0B08E01200203C
:10A02000D0340D08F5A00008B8120020E4F8002094
:10A03000C0FD0B08C0120020C0340D08B5A00008F8
:10A0400008B50448B4F0FBF8034B1860BDE80840BD
:10A0500080F09BBDB0340D08E0F8002010B5044638
:10A060006BF068FDA20706D5094B1A7A586822439F
:10A070001A72B4F00BFAE30708D5064B1A7A58683F
:10A0800014431C72BDE81040B4F000BA10BD00BF0C
:10A09000C0120020E0120020024B4FF0FF31186880
:10A0A000B4F004B9E0F80020014B1868B4F023B90B
:10A0B000E0F8002070B50E4CFEF75AFB05460E4640
:10A0C000FFF7EAFF6BF070FDFFF7EEFFFEF750FBC6
:10A0D000D4E90432C31842EB01025B1B62EB0602B7
:10A0E00002210348C4E904326BF060FDE4E700BFDD
:10A0F000C0120020F8B5ADF0B4FD0446FEF738FB01
:10A1000005460E4627E0FFF7C7FF2046ADF077FD76
:10A1100098B9FFF7C9FFFEF72BFB154AD2E90437C0
:10A120005B1B67EB06071B1847EB01071046012175
:10A13000C2E904376BF03AFDE0E720466BF028FDFA
:10A140002046ADF048FF2046ADF039FF0746FFF747
:10A15000ABFF002FDFD06BF019FD0028D3D02046D5
:10A16000ADF09EFD024B1868BDE8F840B3F01BBF90
:10A17000E012002038B5084DD5E8AF3F13F00104D8
:10A1800008D128466BF0EEFC20B1044B28461C6039
:10A190006BF0EDFC014838BD2CF9002030F90020AF
:10A1A00070B51348D0E8AF4F14F0010418D16BF02C
:10A1B000D9FCA8B10F4D2E4646F8044B3019102299
:10A1C00000211034A4F02FFCA02CF7D10B220A4B55
:10A1D000013A194603F1100304D105486BF0C7FC9E
:10A1E000044870BD286843F8100C2960F0E700BFF0
:10A1F00034F9002038F900203CF900202DE9F04125
:10A20000884615461E466BF044FD074650B35EB3C4
:10A210000379990748BF86F80080C3F340040379A7
:10A2200048BF01245A070ED5114B294693F9000067
:10A2300075F0F9F8822302B2C2EB0222B2FBF3F20C
:10A2400032559CB901243B791B0708D582228235FF
:10A25000C5EB0525B5FBF2F5631C3555DCB2204690
:10A26000BDE8F0810446FAE73446F8E70224F6E751
:10A2700090820120014B18706BF02FBD908201205D
:10A2800070B5049D0C46014600B12DB9C621064BA0
:10A29000064A074850F0A4FC049328461346224679
:10A2A000BDE8704001F07ABD00FE0B0822FF0B08EC
:10A2B00072FE0B0808B530B940F20911074B084A85
:10A2C000084850F08DFC038823F4FF4343F45063A7
:10A2D000038004230370062008BD00BF86FF0B081F
:10A2E00097FF0B0872FE0B08131D70B5DBB2144606
:10A2F00030B940F217110D4B0D4A0E4850F070FC6A
:10A30000068803F07F0326F4FF46068003709B2334
:10A310008370B823C370EA2303710023437111B122
:10A320000630A4F02BFCA01DC0B270BD86FF0B0848
:10A33000C9FF0B0872FE0B0800487047E0340D0897
:10A3400010B5044600F5CE50044A1C3004F0CCFB96
:10A3500004F58054C4F8FC0910BD00BF007512005C
:10A360004FF6FE730A460188994203D00121024844
:10A370000AF07ABE17207047343700207FB50546B3
:10A3800001AE314622480AF0A9FEBDF804202C880F
:10A390004FF6FE73A24220D09A4235D09C420CBFA9
:10A3A00001240324029B1B4AB3F5967F38BF4FF468
:10A3B0009673934294BF0293029296E8070085E851
:10A3C00007002A462146144876F0C6FD2A46214653
:10A3D000124805F0C9FF04B070BD9A4216D09DF82E
:10A3E0000C202B7A9A420BD1BDF806206B889A423A
:10A3F00008D16C68029B9C4214BF04240524D1E759
:10A400000324CFE70424CDE70224D6E70024D4E7D1
:10A41000343700209BC4200070370020783700209C
:10A42000002370B5054688B00193164802AA01A919
:10A4300077F011F970B12B7F53B105F10C001122A7
:10A440000021A4F0F0FA012529460F4805F0DAFEB4
:10A4500008B070BD9DF81A305B07E6D505F10C0415
:10A46000214602A872F0F1FF50B92D7F02AE003DE7
:10A4700018BF01250FCE0FC433686D002370E3E7CA
:10A480000325E1E72C360020783700200A4610B576
:10A490000021054805F05EF9044610B100216DF079
:10A4A000DDF8204610BD00BF902900200149FFF7CC
:10A4B000EDBF00BFD9350D080022026042600246A0
:10A4C000024942F8081FC0E9042070472D690708B7
:10A4D000F8B5002504464560856016460F4600F035
:10A4E00001FA23460A4AA08143F8102F3946C4E9ED
:10A4F0000634C4E90855A56204F12C00FFF7DCFF1F
:10A50000C4E91155C4E91355C4E915562046F8BDF0
:10A510000568070838B504460D46064AFFF7D8FF18
:10A5200023462946044A04F15C0073F0CAFF204622
:10A5300038BD00BFF9630708196D070813B5049CFF
:10A54000CDE90034024B6CF03BFA02B010BD00BF05
:10A5500024350D0825289ABF024B53F820000248E5
:10A56000704700BF2C350D0816000C08F0B50C46DE
:10A570000546ABB0164604A9962202A81F466DF008
:10A58000BCFC124B12491A5D02A86DF0DEFC0E21D4
:10A5900028466DF033FC0F4B0E22034400930E4906
:10A5A0002B4602A86DF0D1FC3A46314602A86DF068
:10A5B000ABFC0A4A0A4902A86DF0C7FC10212046EC
:10A5C000074A04AB44F034FD2BB0F0BDC4350D0890
:10A5D000E2010C08CA350D08E8010C0887050C08D3
:10A5E000CD210C0870B504460E4665683DB931466C
:10A5F0000D4875F06FFE0028F7D0284670BD2B6817
:10A6000004F580506360B0F80836B0F80A260133CC
:10A610009BB29342A0F8083638BF1346A0F80A361A
:10A6200000232B60E9E700BFC0320020024B002866
:10A6300008BF1846704700BFD9350D08F8B5064663
:10A640000F4605465024BC42296806D300240B4817
:10A650002C606CF0C4FF2046F8BD41B97179074801
:10A66000C1F34101FFF7BEFF0146286018B17C34F9
:10A670000D46A4B2E7E70320EEE700BF5013002029
:10A680000022014B6DF00DB8D9350D0810B5044608
:10A6900002216DF040F82146BDE8104001486CF001
:10A6A000AEBF00BF50130020F8B504460E46154655
:10A6B00000F13007E3899D420BD85B1B6289E3817F
:10A6C000A3892A442B4492B29BB29A42628118D247
:10A6D000FEE761791148C1F34101FFF783FFD0B173
:10A6E00023680360E38920604F2B06D83030C3F124
:10A6F0005002F9181844A4F041FAE3897C33E3814D
:10A70000D8E7A3812EB12B463246002120466DF0BA
:10A7100001F90020F8BD0320FCE700BF5013002022
:10A7200073B5054603796E8940798E42C0F34102C4
:10A73000C3F3400328BF0E468DF804308DF8052082
:10A740004109EA891D4801AB6CF0ABFF04460028C3
:10A7500032D03346002229466DF01EF948BBAB8942
:10A760006289B34228BF33469A4200D2FEE7A381F2
:10A77000AA79A37962F30303A3712B792279DB0908
:10A7800063F3C71222716B796279C3F3C10363F378
:10A79000C4026271AB69A3612B8A23826B8A6382D4
:10A7A0002B7A2372AB8DA385EB8DE385204602B017
:10A7B00070BD2046FFF76AFF0024F7E75013002022
:10A7C00000220449C0E90022C0E90212C0E90422C3
:10A7D0000276704765A8000870B50568064645B35F
:10A7E00000230446294644F8103B164809F038FC7B
:10A7F000294615486BF0D5FC2946144805F0E8FFBA
:10A800002946134874F065F8294612480AF0DAF828
:10A810002946114805F06CFD2946104873F01BFBD2
:10A8200029460F4873F0D9FD367E04EBC606A642D2
:10A8300000D170BD236813B1284661689847083479
:10A84000F5E700BF503300205037002014380020B7
:10A85000EC38002070370020783700209C2B002037
:10A86000D42C00200148FFF7B7BF00BF2013002001
:10A87000024B00F003001856704700BFDB350D088F
:10A8800010B5064A0446138803B9FEE7013B9BB2A4
:10A8900013800BB96AF0C4FC204610BD767301200A
:10A8A00037B54FF6FF720D4D04462B88934200D109
:10A8B000FEE763B96AF0B3FC04210DEB01006AF016
:10A8C000B0FC00B1FEE7019905486DF03EFA204664
:10A8D0002B8801332B8003B030BD00BF767301207D
:10A8E000DCF90020034B1B8803B9FEE702486DF03A
:10A8F00036BA00BF76730120DCF90020032202493A
:10A900000248FFF775B900BFE0350D08F8120020C6
:10A910000148FFF799B900BFF81200200148FFF77E
:10A9200089BA00BFF8120020002914BF02210121BA
:10A9300008B5054892F8FE30FFF732FA0C2800D12E
:10A94000FEE700B1FEE708BDF81200201FB5FE23A8
:10A950000029ADF80E300DF10E0314BF02210121C4
:10A9600000931446134608480022FFF78DF90C287F
:10A9700000D1FEE730B9BDF80E30FE2B8CBF17209A
:10A9800084F8FE3004B010BDF8120020002914BF76
:10A99000022101214FF0FF3208B50348FFF71EFAEC
:10A9A0000C2800D1FEE708BDF81200201FB5ADF855
:10A9B0000E300DF10E030093054813460022FFF7F9
:10A9C00063F90C2800D1FEE705B05DF804FB00BF79
:10A9D000F8120020F0B585B0BDF8285014460DF1EE
:10A9E0000E020092114800220E461F46ADF80E508E
:10A9F000FFF74AF90C2800D1FEE748B9BDF80E3040
:10AA0000AB4205D12A4639462046A3F0E3FF50B1B8
:10AA10002B46224631460548FFF7C2F90C2800D1E3
:10AA2000FEE700B1FEE705B0F0BD00BFF812002060
:10AA30004FF0FF3208B50348FFF7D0F90C2800D1DA
:10AA4000FEE708BDF8120020036823B9016005483D
:10AA500049606BF0BFB85B684B6003685960016088
:10AA6000704700BFF81200204368014613B902483E
:10AA7000FFF7EABF704700BFFC120020002202600F
:10AA80000246024942F8041FC2607047F1AA00085A
:10AA900038B50421044685684FF47A706DF09EF94C
:10AAA0002918201D00F04EF82368D80702D50C485D
:10AAB00006F00CFD2368990602D50A4874F03AF8AE
:10AAC00023685A0602D5084876F0A9FA2368DB0500
:10AAD00004D5BDE83840054803F05CB938BD00BF77
:10AAE000C032002078370020703700209C290020D9
:10AAF0000148FFF7CDBF00BF3C13002070B50568CB
:10AB00000C4625B9BDE870404B68084818478B686B
:10AB100098476A680146831A002BB8BF121A236847
:10AB2000A8BF0022BDE8704000481847F812002076
:10AB30000146024A02486DF0A5BA00BFF4350D087F
:10AB4000001300204160024A014602486DF0C0BA7D
:10AB5000F4350D080013002010B50446ADF04FF891
:10AB600030B104F108000349BDE810406DF010BB9E
:10AB700010BD00BFF4350D084160024A014602488D
:10AB80006DF0A6BAE8350D08041300200146024A0C
:10AB900002486DF077BA00BFE8350D0804130020B5
:10ABA00010B50446ADF02BF830B104F10C000349A8
:10ABB000BDE810406DF0ECBA10BD00BFE8350D08DF
:10ABC0000549806001600021C0E90311C0E9051159
:10ABD000C0E90712818470479986070810B50446BA
:10ABE000FDF74CFD002301466360064B206004F135
:10ABF00008002061A36001F18041FFF7A3FF204618
:10AC000010BD00BF09AC000801486DF05EBD00BF7B
:10AC10000C13002008B50C486AF02FFA4FF0021010
:10AC20006AF02BFA09486AF028FA09486AF025FA0E
:10AC300008486AF022FA08486AF01FFABDE808409E
:10AC400006486AF01ABA00BF0100020003000200C1
:10AC500004000200050002000600020007000200D6
:10AC600000487047F812002010B5074C94F83836A9
:10AC70003BB9A4F500506DF080FFA4F500506EF0D4
:10AC800073F8024810BD00BFF8320020F81200200F
:10AC90000022C0E9002282600246044942F80C1FEB
:10ACA0004261028B02F0800202837047B5AE000859
:10ACB000084A82B002F5005393F8AA3102F5025215
:10ACC00003F00F0302F58670072B18BF10460192A0
:10ACD00002B07047F812002038B5FFF7E9FF0C46C4
:10ACE00005466EF0DDF8A8B10B4BB3F8822E4FF697
:10ACF000FE739A4202D0094B9D4207D12B68236014
:10AD00006B68636002230020237238BDAB8B238005
:10AD10000123F8E70B20F8E7F82200208434002014
:10AD20000D4A0E4B506EA2F58051984228BF18462E
:10AD30004FF47A7391F8681E5843C90708D5926E8C
:10AD40005A43904228BF1046834238BFC01A70470A
:10AD50004FF47A63F8E700BFF83200209BC420006C
:10AD600038B50546FFF7DCFF2B7E04469A0702D56F
:10AD7000642828BF64245B070ED5B4F57A7F104899
:10AD800028BF4FF47A746EF023FC28B10C486EF0A3
:10AD90001FFC844228BF04466B7E0F2B02D9BC2CBB
:10ADA00028BFBC24AB6833F07C4204D0C3F3190342
:10ADB0009C4228BF1C46002C14BF20460A2038BDE8
:10ADC00040310020027ED1070BD4064991F85B1078
:10ADD000090700D5FEE742F00102012102766EF07C
:10ADE0009AB87047F832002038B5037E0546DA0776
:10ADF00005D428466EF05CF80D24204638BD0F4C73
:10AE000094F8483E5B07F4D4FFF752FF6EF048F821
:10AE10000028EED005F10C00FFF78AFE04F648602A
:10AE20006EF0D1FA044620B9014628466EF073F858
:10AE3000E3E70D28DDD00121F7E700BFF82200206D
:10AE4000F8B504461F46237E0846DB07154628D57D
:10AE5000174B93F89E20160723D0B3F8A030022B8F
:10AE60001FD90B681B8819071BD5037F9A07C3F3EB
:10AE7000400617D56FF003F9064687B97DB1237EEA
:10AE800023F0780323762B681B88DB0604D5204645
:10AE9000BDE8F840FFF7A8BF20466EF017F8002E77
:10AEA000F5D1F8BD002FFCD1002DE8D1F9E700BFA6
:10AEB000F83200200148FFF797BF00BF3033002071
:10AEC0000023F0B5077E87B017F0010704460D4652
:10AED00016468DF8143019D08B885BB103A928462B
:10AEE0006EF00BFD0123324600932946264803AB42
:10AEF00006F044FA2046FFF7DBFE837F180707D1F0
:10AF000020466DF0D5FF214808F06CF907B0F0BD80
:10AF100006F0FB030B2B1CD0637EFEB90F2B0ED863
:10AF20000027237E59072CD5238B23F4706323F04D
:10AF300004032383012120466DF0EDFFE6E7F033A3
:10AF40006376DBB20F2BEBD8E37A66F38703E37209
:10AF5000E7E7237E43F004032376EBE75E1C06F06D
:10AF60000F0666F30303637628466FF088F800281F
:10AF70000CBF04230F239E42D6DA237E5A07C5D482
:10AF8000E8E7002FC2D0D5E7C032002050330020C0
:10AF900070B504468AB00D462222002101A8A3F014
:10AFA00042FD20460DF11201FFF796FE002832D136
:10AFB0009DF81A60194B022E11BF0126D3F8860E98
:10AFC000D3F88A1E02AA16BFB3F8822E03C2ADF8C8
:10AFD00008208DF81060B3F8501E07A82C686FF099
:10AFE00098F90323ADF8043040F60503ADF822309C
:10AFF00004230B488DF824302146002301AA06F0D3
:10B0000059FC20466FF03BF810B100222B685A76AD
:10B0100020460AB070BD0024FAE700BFF8220020E5
:10B02000BC32002010B5038904468B4206D1BDE82E
:10B0300010404FF4004108486CF050BE01814FF4BD
:10B04000004105486CF03EFE218904F13400BDE862
:10B05000104000F0B5BF00BF20130020F7B5002559
:10B06000056004460E46FFF73DFC2071FFF73AFCF1
:10B070002E4B6071A360A5712D4804F0FDFB0F23DA
:10B080000B222376236A314603F0FC03E06022742E
:10B09000236284F82420C4E90A556582656104F1BD
:10B0A00030006FF0E2F8234B234AC4E932352346DF
:10B0B00004F5B67743F8D02F29461022C4F8D830CB
:10B0C0003846C4F86451A4F86A51A3F0ACFC4FF0C0
:10B0D00000432646C4F86C3168466FF0DDF88822DC
:10B0E0002946A4F8685104F1DC00A3F09CFC237805
:10B0F00043F0010306F8343B304600F087FF0F4869
:10B1000005F034FC20462189FFF78CFF6946304664
:10B1100000F062FF3046618F00F058FF38462A4643
:10B1200007496FF026F9204603B0F0BDFFFF0B0B77
:10B13000F812002005BD0008F9BC0008D03000203E
:10B1400000360D0873B5054608680C466DF096FF8D
:10B15000002837D020460DF103016EF0E7FD9DF881
:10B160000330082B2ED0102B0FD06BBB237F174E34
:10B17000DA07A66006D4204631696EF0F7FD336920
:10B180000133336105F13E0116E04FF0FF330193C7
:10B1900005F5B673A360D5F8641120460131C5F8F2
:10B1A00064116EF0E3FD204601A96EF0F8FDFF2169
:10B1B00020466EF01DFE0649237F1B0702D4204661
:10B1C0006EF075FF02B070BDFEE700BF20310020B9
:10B1D00010360D082DE9FF410027044608686DF080
:10B1E0004BFF15468A880B469DF828808DF80C7019
:10B1F000EAB101A900F0200618466EF07EFB01229C
:10B200002C4801A976F041F840B13EB195B10E2D20
:10B2100005D139468022263074F0A5F865B1B8F121
:10B22000000F09D0D4F808310133C4F8083104B054
:10B23000BDE8F0810121EDE7D4F8DC300B2D03F1FE
:10B240000103C4F8DC3020D1D4F818310133C4F83C
:10B25000183116B3D4F8E8300133C4F8E83025B912
:10B26000D4F8EC300133C4F8EC309DF80C30012BED
:10B2700005D14FF6FF73BDF804209A4213D0D4F8DD
:10B28000E0300133C4F8E030D1E70F2D02BFD4F82D
:10B290001C310133C4F81C31DBE7D4F8F030013342
:10B2A000C4F8F030E1E7D4F8E4300133C4F8E43016
:10B2B000BDE700BFB83300202DE9F7430546086815
:10B2C0000F4690461E466DF0D9FE00284AD03846FB
:10B2D0000DF101016EF01AFD9DF80130052B03D030
:10B2E000082003B0BDE8F08301A938466EF02EFDBA
:10B2F00038460DF102016EF019FD9DF80240082C50
:10B3000032D0102C76D0002CEAD141463D4802467E
:10B3100038466EF033FF01460028E1D19DF8023037
:10B32000082B1FD1B37F03F00F03072B1AD1B3698A
:10B330009C4205D03061B46106F10C006EF0F1FF63
:10B34000019B7269013393422F4888BF7361F36098
:10B35000D0F8DC3D9C4205D90322214600F6D850A6
:10B3600005F04CFB0020BCE7002EB9D038460DF1AB
:10B3700003016EF029FD9DF80330234A013BDBB247
:10B380008DF80330D2F8DC4D04F07F02934216D1E1
:10B39000394605F1300000F0C3FDB37F03F00F0321
:10B3A000072B0AD1B3699C429AD306D1019AF3685C
:10B3B000511C994223D09A4292D34146A7E704F107
:10B3C000FF3909F07F02934207D14A46394605F119
:10B3D000300000F0A9FD4C46DFE7013404F07F02A5
:10B3E00093427FF47DAF2246394605F1300000F0EC
:10B3F0009BFDD2E70024054905F5B67087E71D20BF
:10B400006FE700BF20310020F822002010360D0821
:10B41000002370B51546126888B0064610460C46E3
:10B420008DF810308DF81C306DF028FE10B900201A
:10B4300008B070BD10466DF01FFE00F44050B0F52E
:10B44000005F01D00820F3E728466EF04BFD00288E
:10B45000F8D1694628466EF059FC9DF80030052B5E
:10B46000F0D128460DF103016EF060FC9DF8033029
:10B47000082BE7D10DF1010120466EF0A5FC28460E
:10B480000DF102016EF0A0FC9DF801209DF8023044
:10B490009A42D7D101A928466EF058FC284602A945
:10B4A0006EF0B0FA9DF81030002B39D0012202A9BD
:10B4B0002B4875F0EAFE04469DF81030022B4BD065
:10B4C000002CBFD02068616802AB03C302238DF853
:10B4D00010309DF80230234A013BDBB28DF8023078
:10B4E000D2F8DC2D02F07F018B4224D106F16C02F0
:10B4F000A37F03F00F03072B03D1636901999942DE
:10B50000A0D3284602A96EF039FE002890D1A37F6F
:10B5100003F00F03072B8AD1019B0133636186E798
:10B52000204605A96EF0E9F99DF81C40002CC3D017
:10B53000012205A9BCE7511E01F07F018B4202D117
:10B5400006F15C02D4E7013202F07F0293427FF4FD
:10B5500079AF06F17C02CBE7002CBAD172E700BFCD
:10B56000B8330020F822002073B50C46154691F838
:10B57000246004F1220092F9151073F061FF2B682A
:10B5800000211A7895F9153002F007020093AB7D7F
:10B59000204675F013FE0D4B06F0030693F8592074
:10B5A000022A11D103F1800294420DD193F8A43004
:10B5B00003F00303B34207D04FF00041044802B048
:10B5C000BDE870406CF07EBB02B070BDF832002068
:10B5D0002013002013B590F82030DB0719D590F820
:10B5E000212002B9827A0C4C343004F1800300939C
:10B5F00030F8121CB4F89C3000F066FF04F13800FB
:10B600006DF0CCFC04F1580002B0BDE8104075F0BC
:10B61000D4B902B010BD00BFF83200201F2910B508
:10B62000044625D8C368CB40DA0721D5837A8B42FC
:10B6300006D14FF480410F486CF050FB002010BD44
:10B6400081724FF480410B486CF03CFB0023A4F85E
:10B65000683123789B06F1D4A37AE37294F8213001
:10B6600013B92046FFF7B6FF20466DF0CBFDE5E7A6
:10B670000720E4E72013002070B508460021154696
:10B6800000F05CFB68B1047804F07F04043CE2B293
:10B69000022A06D82B46BDE87040811D014873F090
:10B6A000D6BD70BD443800202DE9F043044685B076
:10B6B00008686DF0E1FC1D468B880E46174600F0C9
:10B6C0002008002B4ED04FF00009304601A98DF81C
:10B6D0000C906EF012F99DF80C30012B14D14FF63E
:10B6E000FF73BDF804209A420ED1A3790133DBB277
:10B6F000A3713BB904F134006EF068FF002800F03C
:10B700009F80FEE784F80690B8F1000F2AD04FB36F
:10B7100001224D4801A975F0B8FD814615BB3A4696
:10B7200031462046FFF774FE054628BBB9F1000FED
:10B7300018D03A4649462046FFF716FF4A46394692
:10B740002046FFF799FF3946204601AA6DF04AFFCF
:10B750002378590706D430466EF091FC10B13B486F
:10B760006DF0B4FB6378013B062B07D8DFE803F0EC
:10B770000706144221065B000E25F3E7FEE7D4F826
:10B780000031618A013304F1D000C4F8003105B002
:10B79000BDE8F0436CF0D1BCD4F8FC300133C4F800
:10B7A000FC3000236370204605B0BDE8F0436DF027
:10B7B0002DBFB3881BB1B8F1000F00D1FEE765B90A
:10B7C0005FB12378DA0708D538686DF055FCC306F9
:10B7D00003D5062120466DF08CFDD4F8F8302A46BA
:10B7E0000133C4F8F8300023314618486370FFF77E
:10B7F00067FBD8E7D4F8F4300133C4F8F43025B14E
:10B80000D4F80C310133C4F80C3100232A463146F8
:10B8100063700F4874F05FFC2B463A4631460B4884
:10B82000FFF70EFBBFE7D4F8F4302A460133C4F823
:10B83000F430002331460748637073F078F8B2E7BC
:10B8400005B0BDE8F08300BFB833002030330020DE
:10B85000C032002020330020002370B5D0F8C4206F
:10B8600004469380D0F8C420117F63F3410111771F
:10B87000D0F8C420117F63F304111177D0F8C410FD
:10B880000A7F42F004020A77D0F8C420117F63F3E4
:10B89000000111777F21D0F8C420D176D0F8C420E0
:10B8A000117F63F3C30111770378D90776D5437805
:10B8B00000F1C401013B062B05D8DFE803F00504C5
:10B8C0002A4E36045F00FEE74FF6FF71343000F079
:10B8D00077FB20466DF090FD054600285ED00021E4
:10B8E000237C837183766DF0F0FF04232B76237E17
:10B8F0006B762B7FDB0603D429462046FFF722FC1C
:10B90000002304F13400A3716EF060FE00284FD0D4
:10B91000FEE76DF090FD054600283FD0E37A837185
:10B92000837621794B1C2371DDE7C27AD0F8C430CD
:10B930009A719A760422D0F8C4301A76027ED0F832
:10B94000C4301C485A76FFF723FB054630B36179B3
:10B950004B1C63716DF0B9FFCBE7C27AD0F8C430ED
:10B960009A719A760422D0F8C4301A76027ED0F802
:10B97000C43011485A7605F08FFCE6E70023D0F872
:10B98000C4201376D0F8C4200C48537604F032F962
:10B99000054618B1037F9A07ABD4D8E70022D4F844
:10B9A000C41020468A800B23BDE87040FFF77CBEA0
:10B9B00070BD00BF30330020C03200202033002093
:10B9C0000023F0B589B08DF810308DF81C30D0F818
:10B9D0002031044601330D46C0F82031002A40F0E2
:10B9E0001581002900F04A810378DA0740F1588177
:10B9F00008466EF077FA0246002840F0078102A957
:10BA000028466DF0FFFF284605A96DF076FF9DF8EA
:10BA100010602EB10122A54802A975F036FC064639
:10BA20009DF81C30012B37D0022B42D028460DF157
:10BA300006016DF032FF40B94FF6FF72BDF80630D7
:10BA4000934202D022899A422DD19DF81030012BC9
:10BA500037D0022B3FD09DF81C30012B48D14FF638
:10BA6000FF73BDF814209A4242D1D4F82831013333
:10BA7000C4F8283133462946204602AAFFF71CFCA9
:10BA8000074600283DD01D2838D0D4F8583101335E
:10BA9000C4F8583109B0F0BD2046BDF814106DF05F
:10BAA00014FD0028C2D0D4F844310133C4F8443125
:10BAB000F0E704F13E0105A86EF003FC0028B5D1C3
:10BAC000F1E7002E00F0E0803068716802AB03C33C
:10BAD00002238DF8103004F13E0102A86EF0F1FB54
