S02B0000433A2F776F726B73706163652F76365F2F4D61747465724C6F636B4F766572546872656164536F6CD8
S3150800600008120020B57E00081F4A0708597C0208B6
S31508006010E53C0808817C0208957C0208A97C0208F0
S315080060201F4A07081F4A07081F4A0708119F0B0837
S31508006030BD7C0208382E0D08B59E0B08B5DC0B088A
S315080060401F4A07081F4A07081F4A07081F4A070862
S315080060501F4A07081F4A07081F4A07081F4A070852
S315080060601F4A07081F4A07081F4A07081F4A070842
S315080060701F4A07081F4A07081F4A07081F4A070832
S315080060801F4A07081F4A07081F4A07081F4A070822
S315080060904D7E02081F4A07081F4A07081F4A0708B5
S315080060A01F4A07081F4A07081F4A07081F4A070802
S315080060B01F4A07081F4A07081F4A07081F4A0708F2
S315080060C01F4A07081F4A07081F4A070819620108D6
S315080060D01F4A07081F4A07081F4A07087D60010864
S315080060E05D6001081F4A07081F4A07081F4A070874
S315080060F01F4A07081D290708F13107082D950B08BF
S3150800610029950B086529070843950B0831950B084F
S31508006110C131070835950B08313207089932070847
S315080061201F4A07081F4A0708BD7D02081F4A0708B5
S315080061307B3208081F4A07081F4A07081F4A07082C
S315080061401F4A07081F4A07081F4A07081F4A070861
S315080061501F4A07081F4A07081F4A07081F4A070851
S315080061601F4A07081F4A07081F4A07081F4A070841
S315080061701F4A07081F4A07081F4A07081F4A070831
S315080061801F4A0708713302081F4A0708FDEB0B0868
S31508006190251307081F4A07080D950B0813950B08C2
S315080061A01F4A07081F4A07081F4A07081F4A070801
S309080061B01F4A070865
S315080061C0F0B5114A114C124E00F00105E3695F075C
S315080061D013D40DB9334213D103EA00078F4207D10E
S315080061E00B4A1A40002A14BF6FF001000020F0BDC8
S315080061F0013AEBD16FF00200F9E74FF0FF30F6E70E
S315080062006FF00100F3E700BF809698000000035086
S315080062100200010070B50B4BD96911F480310DD11C
S3150800622001244FF48072084E084DF46020462C6411
S315080062301A61FFF7C5FF3464EC6070BD6FF00100AA
S31508006240FBE700BF00000350001003500020035076
S315080062504FF4803238B50E4B0E4C9A66E56941F616
S31508006260713315400122E3630B4B0021DA600223E8
S31508006270606121202361FFF7A3FF10B92120FFF7F2
S315080062809FFF0122054BDA600DB10023E36338BD99
S3150800629000900050000003500010035000200350E7
S315080062A070B5134C6061E3695B071ED40E4656F859
S315080062B0043B8D18A361AE420BD104230021212093
S315080062C02361FFF77DFF58B9BDE870402120FFF72D
S315080062D077BF08210846FFF773FF10B1042323612F
S315080062E070BD56F8043BA361E5E74FF0FF30F7E7CA
S315080062F0000003502DE9F84316464FF48032184B38
S3150800630089469A6603F51C33DA69074602F480382B
S3150800631041F67132DA63012203F58053114DDA60D2
S3150800632066B930460122104BDA60B8F1000F03D087
S315080063300022A3F50053DA63BDE8F88307F5005495
S315080063402C40E41BB44228BF344649462246384608
S31508006350FFF7A6FF0028E5D12744A144361BDFE74F
S315080063600090005000E0FFFF0020035000000000EE
S31508006370000000000000000000000000000000000F
S31508006380013800D0FCE7704773B56FF0CCF80446C7
S3150800639000286ED13A4B01AE1A889B78ADF80420D6
S315080063A0B37002F045FB03F051F802F0AFFF054663
S315080063B0344B036003F000FA284603F03BF900B9B2
S315080063C0FEE72DA3D3E900234FF0FF314FF0FF304E
S315080063D002F036FB02F09EFF214602F0F7FF6FF04F
S315080063E0A5F8304603F0E8F8044600B1FEE7264B68
S315080063F0264A98801860264B98801A60254B264AAC
S3150800640098621A60254A98806FF06300DA6003F094
S3150800641031FF0B2002F0CCFF03F02AF802F070FFE0
S3150800642000B9FEE714F0C0FF20466FF047FA0821CE
S3150800643008466FF04AFA00B1FEE76FF03DFA02F03F
S31508006440B5FE6FF087F9102115487DF0B9FC00B943
S31508006450FEE7144912487DF0C5FC00B9FEE7102195
S315080064608C20114A14F0B8FB00B1FEE70F486FF014
S31508006470E0FC02B070BD00BF0AE020FFE2030000A6
S31508006480D4310D08ED56070888120020F481012042
S3150800649058120020281200207481012018120020AA
S315080064A06CF70020B5E80B085CF70020C1FA0B086A
S315080064B02DE9F04389B06FF027F800B9FEE75C4D87
S315080064C02B6803B9FEE701229B8811460DF10B00E4
S315080064D08DF80B3003F02EF89DF80B102B68023957
S315080064E00022186889B203F025F80023059307935C
S315080064F0504B05AE06932B6893F82C208DF8142084
S315080065001B681C7814F0200414D06FF0D9F9002801
S315080065105ED06FF0D5F953F087FD0B46024640A1D1
S31508006520D1E9000153F024FF54F092F8079B184470
S315080065300124079003F03AF89DF80B30063300283B
S3150800654049D0D80053F080FD37A3D3E9002353F090
S31508006550E5FD8946804603F029F853F065FD0B46AC
S3150800656002464946404653F003FF54F071F8079B2C
S31508006570184407906EF0CFFF38B102F085FF00206F
S315080065806EF0C5FF00206EF0C9FF2A6853696BBB21
S315080065906EF0DDFFD5F800C008B3079B264F03F55C
S315080065A0FA7307939CF81830BB7002F067FFF8700F
S315080065B0286833463A462146807902F09DFF58B34B
S315080065C04FF480510020B8F08CF96FF09CFA23E064
S315080065D00798C030ACE7079800EB4310C9E7324686
S315080065E021469CF8060002F07DFFE8E700210491A9
S315080065F0116912480B449621A3F59B738180039376
S31508006600907921460D4B009603AA02F083FF0028D5
S31508006610D6D101206EF0A6FF09B0BDE8F08300BF11
S315080066200000000060E366410000000080842E41FF
S3150800663058F7002020A10700C4AB0120B8AB012001
S315080066402DE9F04F2DED028B1C4613690546052BE7
S31508006650D7B00BD8013B01220026042B23D8DFE84C
S3150800666013F041001C012301320145014FF6FC726B
S31508006670934212D04FF6FD7293424FF0010340F059
S31508006680378102200021CDE9400184F844302046B4
S3150800669040A989F05CFC2860D7E000230022CDE9F8
S315080066A040230123F1E7CB69204684F844202E9342
S315080066B088F057FE0028EED141A840949EF024FDAC
S315080066C040A92EA88CF030FC0646204688F08EFE9F
S315080066D03046002EDFD14FF6FF7384F84C60A4F8DD
S315080066E04A30D8E7D1F81CA0204684F8442088F020
S315080066F038FE0746002840F0A78015A814949EF097
S3150800670003FD51460CA889F0EAF90523B8469FED22
S315080067107A8B0DF14009C9E900A7C9E90233494650
S315080067200CA88CF08CFB002800F084800CA88CF058
S315080067306CFB8DED248B8DED268B90F88160CDE971
S315080067402888CDE92088ADF888808DF8A8808DF84E
S31508006750B460D0E90023CDE92623B0F8823000F1F1
S31508006760600BADF88830D0E9022320215846CDE9E0
S315080067702423A8F0D5F8624B3146CDE928B02EAAD5
S3150800678050462E9399F0D6F80146002851D12FABE2
S3150800679020934123219340AB049355230DF1100B0D
S315080067A031465A465046059399F050FA0146002854
S315080067B03FD1059BB3B19BE80300012607AB0DF15A
S315080067C0280B83E80300194658468DF818608DF89B
S315080067D024608CF09FFB9BE803002BAB83E8030047
S315080067E08DF8A8609DF8B430002B50D0149E96F80A
S315080067F0452096F808B00AB15B454AD1304615A936
S3150800680088F01BFE002844D096F84630316823B33A
S31508006810096C4FF480720023CDF800B020A887F0E9
S315080068208CF90146304615AA039188F01FFE039994
S3150800683079B30F46204688F0D9FD2FB94FF6FF7376
S3150800684084F84C70A4F84A302F6000232B71284630
S3150800685057B0BDEC028BBDE8F08F336C06F1280209
S3150800686009A888F038FD01460028DBD133680222E2
S31508006870196C20A80023CDF800B087F05EF9014610
S315080068800028CFD1316809A888F05DFDC9E77121D4
S31508006890CFE70CA88CF0A6FA41E70520002184F87A
S315080068A04420CDE94001F2E6CB6993F88233CDE97D
S315080068B040360123204684F8443040A989F047FB36
S315080068C02E712860C3E7CB69204684F844202E93AE
S315080068D088F047FD00287FF4DEAE41A840949EF07C
S315080068E013FC40A92EA88CF020FCEDE6237ADEE7FF
S315080068F08622C0E90023AAE7000000000000000085
S3150800690010AE0D08000000002DE9F04F2DED028BAA
S315080069104FF0000A4FF0000B1F464FF6FF74002396
S31508006920CDB0CDE930ABCDE932ABCDE936ABDFF84A
S315080069309CA205460E469046CDE90E338DF8D0301A
S315080069403593CDF8E0A04A9472B1044600F534793F
S315080069504C4501D10B240CE0204689F088F8002824
S3150800696000F01B819034F3E798F074FF814630B944
S31508006970AC2420464DB0BDEC028BBDE8F08F05F582
S315080069803474204696F0E3F9B9F882308DF8D06071
S31508006990ADF8283199ED028B09F1600920214846A6
S315080069A0A7F0BEFFCDE90E90834B0DF12C0910938D
S315080069B00023CDF878A048461193C9F800300D9306
S315080069C00C938AF0C6FB4FF4C87044F059F90DF1E0
S315080069D0300AC9F8000050B90B240DA88AF0B9FB93
S315080069E00CA88AF0B6FB0BA88AF0B3FBC1E709909E
S315080069F050468AF0AEFB4FF4C87044F041F983461E
S31508006A00CAF800000028E7D00DA88AF0A2FB4FF4C8
S31508006A10C87044F035F90D900028DDD0099B314641
S31508006A2012934FF4C87312AACDE915302846CDE95A
S31508006A30133B179398F06EFF08B10446CDE731462D
S31508006A40284614AA98F048FF0028F6D13146284669
S31508006A5016AA98F01EFF0028EFD112A918A88CF0E4
S31508006A6059FA14A91AA88CF055FA16A91CA88CF07C
S31508006A7051FA38AB079332AB059336AB049330AB78
S31508006A800DF1780B039310AB8DED008BCDF818B094
S31508006A9002931CAA1AA918A83BF0FCF90028CCD125
S31508006AA00DA88AF056FB50468AF053FB48468AF0F2
S31508006AB050FB9FB9D5F86403002862D003689B6829
S31508006AC098470246D5F864030368002A52D05A4606
S31508006AD031465B69984780B104464AE73B683846C1
S31508006AE05B699847594699F0E0F908B9C52440E723
S31508006AF09DF8603135978DF82A319DF86831204622
S31508006B00B3FA83F330A95B098DF82B3199F074F940
S31508006B100028E1D120460EA998F049FE94F8813064
S31508006B20B8F1000F2FD002211120244A9FF0B5FB9F
S31508006B30D4E900122369CDE901210093022111202D
S31508006B4063691F4A9FF0A9FB119905F55D703FF02F
S31508006B508BF9034620B1012111201A4A9FF09DFBAB
S31508006B60B8F1000F04D095F88233013385F88233E3
S31508006B700024FEE63146DB6898470028BDD110247C
S31508006B80F7E60324F5E6D4E900121120CDE9002141
S31508006B9002210D4A9FF081FBD6E7BDF864319FEDCF
S31508006BA0048BADF828318DF8D060FDE6AFF3008090
S31508006BB00000000000000000F49E0D087EC50C08C9
S31508006BC09EC50C0816C60C08E1C50C0810AE0D08C3
S31508006BD02DE9F0478AB00DF10D03019315230646FA
S31508006BE000934FF48072002308460C469EF0FAFB89
S31508006BF0E8B996F8963001220093204600239EF0C5
S31508006C0082FBA0B996F8973002220093204600230B
S31508006C109EF079FB58B90DF10E0301931623032252
S31508006C200093204600239EF0DDFB054610B10AB00E
S31508006C30BDE8F0874FF0100906F1C8070DF11808EE
S31508006C40102200214046A7F031FE0DF10F030193F3
S31508006C5015234FF480720093204600239EF0C2FB52
S31508006C600028E4D196F89720EBB29A4251D917ED4D
S31508006C700C7BC44637F828ACA7F12603A7F1160EF5
S31508006C80624618685968083303C273459446F7D1B3
S31508006C908DED007B0422002320469EF00FFB002882
S31508006CA0C5D1052200232046CDF800A09EF02BFB77
S31508006CB00028BCD14046494606228DE80300002339
S31508006CC02046CDE904899EF060FC0028AFD1204615
S31508006CD09DF90F109EF0BBFB013530370028A6D171
S31508006CE0032DADD120469DF90E109EF0B0FB00286D
S31508006CF09DD1B6F88E3007220093204600239EF0D9
S31508006D0002FB002893D120469DF90D109EF09FFBAB
S31508006D108DE782469FED027BBAE700BFAFF300809E
S31508006D200000000000000000A0F1840050E700BF4A
S31508006D302DE9F04F2DED028B06460C469FED508B44
S31508006D404569DFF8488199B006F110039D4207D1DD
S31508006D50304619B0BDEC028BBDE8F04F40F01ABDC5
S31508006D60D5E91102D4E928139A4208BF88426F6808
S31508006D70019565D1D5E91302D4E92A139A4208BFC9
S31508006D8088425DD14FF000090DF1300A002110222A
S31508006D905046A7F08BFD14A8CDF844908DED128BC4
S31508006DA0CDF84080A0F0F9F8ADF85C908DF85E90CB
S31508006DB0A146B4F8583009A8ADF8423059F8883BCE
S31508006DC01193A0F0EAF899E8030007AB83E80300FB
S31508006DD094F88C30B3B38446D4E9240105AB83E830
S31508006DE0030094F8943083B30246D4F89830CDE97A
S31508006DF014C2049313F47F0FCDE9023314BFBDF810
S31508006E001030BDF82C30ADF8583094F883308DF832
S31508006E105D3094F884308DF85C3094F886301BB178
S31508006E2094F885308DF85E304FF0000B043D04F180
S31508006E30080963685B450AD8304601A940F068FC32
S31508006E403D4681E7DDF824C0C6E70A9ACDE74846FD
S31508006E5040F0B0F948B9012122200B4A9FF01DFAEB
S31508006E600BF1010B09F11009E3E799E80F008AE82D
S31508006E700F005146284640F019FCF1E7AFF30080B1
S31508006E80000000000000000021CD0C080100A41538
S31508006E90054B18680368D96901A3D3E90023084795
S31508006EA000E0373B015D0300F4AF01200348044BC3
S31508006EB0834202D0034B03B118477047C4B7012079
S31508006EC0C4B7012000000000064B0749C91A8910FB
S31508006ED048BF0131491003D0044B0BB1014818478C
S31508006EE0704700BFC4B70120C4B7012000000000E6
S31508006EF010B5064C237843B9FFF7D8FF044B13B1F6
S31508006F000448AFF300800123237010BDAE7701203B
S31508006F10000000009C060E0808B5054B1BB1054984
S31508006F200548AFF30080BDE80840FFF7CDBF00BFB6
S31508006F3000000000B8EF00209C060E08A3F5803A72
S31508006F40704700BF174B002B08BF134B9D46FFF732
S31508006F50F5FF00218B460F461348144A121AA7F06C
S31508006F60A5FC0E4B002B00D098470D4B002B00D0EC
S31508006F7098470020002104000D000D48002802D083
S31508006F800C48AFF3008054F099FD200029007CF0EE
S31508006F90C7FE20F01DFF00BF00000800000000002B
S31508006FA000000000081200200812002080A9012015
S31508006FB0000000000000000073B5044658F020F8F1
S31508006FC0002841D10125234B2577A361A36843F403
S31508006FD08013A3607CF0E7FEA368A0801B0311D48E
S31508006FE0B0F5FA7F0ED9B7F0C6FC064629462846FC
S31508006FF0B5F0C8FD28462946174AB5F041FF304680
S31508007000B7F0B4FC204658F023F8F0B9E068F0B1C0
S315080070105AF0D0F957F0B4FAA9F0A1FDAAF013FE78
S31508007020A9F03EFB002201210420A9F089FD0023D6
S3150800703001A88DF8043058F0D5F90420032159F039
S31508007040E9FE20466DF00AFA002002B070BD03483A
S31508007050DEE700BF0504030088EF0B089EB6012093
S3150800706070B505460026B7F099FCAC6804B1AE6069
S31508007070B7F08FFC74B94FF0FF316868B7F01CF9A8
S315080070800028F0D0063006288EBF0124024B1C5C6F
S3150800709044F00044204670BDBE2B0D0838B50446A2
S315080070A0084D2046FFF7DCFF2B6803F03803202B3A
S315080070B002D1284683F09EFC082103486DF0D6F9D4
S315080070C0EFE700BFAF770120F4EF00202DE9F04786
S315080070D01C4607460E461546B6F095FEDFF868903C
S315080070E0D9F80030834207D123462A463146384626
S315080070F0BDE8F04755F0F6BEDFF85080D8F8000036
S31508007100B7F030F90B4B48461F600B4B04211E6045
S315080071100A4B1D600A4B1C6005230A4C23606DF060
S31508007120A5F94FF0FF31D8F80000B7F0C5F8206888
S31508007130BDE8F08710F000200CF0002008F00020D1
S3150800714004F0002000F00020F4EF0020D0EF00202B
S3150800715010B50748074C6DF0A0F907486DF09DF982
S31508007160236823B12068B7F040F80023236010BDD8
S31508007170E8EF0020D8EF0020DCEF00202DE9F041F1
S31508007180054608242846FFF76BFF0443E607F9D5AA
S3150800719062F09EF80546002835D1384A137803F080
S315080071A0FD0343F004031370354E364FDFF8F080C5
S315080071B0E3062BD50024344E62F098F8FFF7C8FF93
S315080071C070683460B7F0DFF801226FF05F012B4B6F
S315080071D074601A702D4B187819705978002D46D09E
S315080071E00321597099789A70DA780622ADB2DA7066
S315080071F09D809C71254883F0FDFBB6F004FEBDE832
S31508007200F041B6F014BE44F01004CDE760070FD580
S315080072101F493368D8F800203868096855F062FEB7
S315080072201C4B24F0040418601B4B1868B7F072F85E
S3150800723061F070FE21070ED561F08EFE58B1134835
S31508007240B0F095FA0028B3D14FF48031134824F0F2
S3150800725008046DF00BF9B0F0E0FA08B92207E7D494
S315080072600948FFF7FDFE0443A2D50824E0E75D7050
S3150800727099789A70D978DA70BCE700BFB37801209C
S3150800728004F0002010F00020F4EF0020AF77012072
S315080072900CF0002000F00020D0EF0020DCEF0020EA
S315080072A008F0002038B5002101200B4AB6F0B5FFDA
S315080072B00A4C2060236853B10948B6F004FF094B0D
S315080072C018601D682DB92068B7F05DF825600120A3
S315080072D038BD0020FCE700BFC82B0D08D0EF002002
S315080072E0D82B0D08D4EF002010B5144C1448236889
S315080072F0B6F0E9FE2060236813B90124204610BDC4
S31508007300104B114A114912486DF0D6F80028F4D1ED
S31508007310104B114A114912486DF0CEF80028ECD1ED
S31508007320104B114A114912486DF0C6F80446002858
S31508007330E3D1104855F03CFEE0E700BFD8EF002047
S31508007340E82B0D08702C0D087D710008602C0D08BF
S31508007350F4EF00203C2C0D088B4407082C2C0D0854
S31508007360E8EF0020082C0D089D700008F82B0D0882
S31508007370DCEF0020CD7000084FF4807101486DF0F5
S3150800738075B800BFE8EF0020022101486DF06EB81D
S31508007390F4EF002008B5B5F089FAB0B90E4B1878A5
S315080073A010F0010010D0B6F02EFD0C4B1B6883427E
S315080073B00DD00B4B4FF0FF311868B6F0BBFE063008
S315080073C0062806D8074B185C08BD1420FCE72020C1
S315080073D0FAE70120F8E700BFB3780120F4EF0020B0
S315080073E0D4EF0020BE2B0D0808B5084B1B78DB0729
S315080073F00BD5B6F008FD064B1B68834205D0054B36
S315080074001868BDE80840B6F0BABE08BDB3780120D2
S31508007410F4EF0020D4EF0020024A137843F001036A
S3150800742013707047B378012008B50A4B1A7812070B
S315080074300DD41A7812F0060F07D11A78012142F0F6
S31508007440020205481A706DF011F8002008BD0220E6
S31508007450FCE700BFB3780120F4EF002008B5FFF77A
S3150800746021FF0449044861F0FBFEBDE8084061F0CD
S3150800747029BF00BF942C0D08442D0D08F8B50E46FB
S315080074800546D0B1C9B10E4B0E4F196838680FF0D2
S31508007490D9FE044678B9062332460B4938680FF0F8
S315080074A0B1FF044638B901232A46084938680FF05F
S315080074B0A9FF00B12C702046F8BD2124FBE700BFC8
S315080074C0D0AB0120F0AB01202C0004003C000400E6
S315080074D02DE9F0478AB005460F4690460021182246
S315080074E004A8A7F0E3F905220123D5F800908DF842
S315080074F02020304A8DF81030914558D002F5804248
S31508007500914505D02C4B994514BF4FF0FF33022304
S315080075105C01AB8904F1A04AADF804302B890AF561
S31508007520703A2648ADF80830DAF82068B7F04EFA0F
S315080075306868B7F04BFA042100220DEB01007AF0D7
S31508007540D7FE0022042102A87AF0D2FE03A903205E
S31508007550B7F037FACDF824804FF00108394603987A
S315080075608DF811807BF073FE09F58057079004A902
S315080075704846C7F8048012F03FFF04230020C7F8E6
S3150800758014807B616B7A2A7A06F0040642EA034283
S31508007590CAF83828697B2A7B46F0180642EA01426F
S315080075A0CAF83428CAF820680AB0BDE8F08700236C
S315080075B0AEE700BF00000A5000800A5064360D0886
S315080075C013B50446B5F04EFF00230122217BCDE911
S315080075D000324900B0FBF1F1024A0348B7F084FAD9
S315080075E002B010BDBD990B0828F0002013B504465B
S315080075F00F4B01A85B88ADF804300EF06BFC607B7E
S3150800760013F020FE042302220DF106010948ADF805
S3150800761006306CF080FF07486CF099FFA07B13F0EA
S3150800762011FE01A80EF066FC002002B010BD00BFD6
S31508007630D42D0D0894AB012073B50646154C164893
S3150800764063883546ADF80030B7F0C0F9B168002256
S315080076501248FFF73DFF0022042168467AF048FEEB
S31508007660042123880E4C0DEB01000022ADF80430EE
S315080076707AF03EFE0FCD0FC401222B6830462360F8
S31508007680084B1A70FFF79CFF3046FFF7AFFF002044
S3150800769002B070BDD42D0D0864360D0894AB0120D8
S315080076A014F00020B47801202DE9F3471446054666
S315080076B09846274B06885B880134ADF80430037971
S315080076C001A85E430F46A4B20EF004FC687B13F0D3
S315080076D0B9FD230243F0010302221E480DF10601FB
S315080076E0ADF806304FF000096CF015FF013424029E
S315080076F0F610A4B208F1FF3AC1450FD115486CF04F
S3150800770026FFA87B13F09EFD01A80EF0F3FB114897
S315080077106CF022FF002002B0BDE8F08739463246F9
S315080077200C486CF0F8FECA450CBF4FF6FF7344F0E0
S31508007730FF03022207480DF1060104F58074ADF82F
S31508007740063037446CF0E7FE09F10109A4B2D3E725
S31508007750D42D0D0894AB0120034B04481B78002B4D
S3150800776008BF0020704700BFB478012014F000203D
S3150800777030B5064D87B001AC0FCD0FC42B6801A8F4
S315080077802360FFF759FF07B030BD00BFD82D0D089D
S315080077902DE9F043524E97B0354609AC0FCD0FC4CC
S315080077A02B6806F1140523600EAC0FCD0FC495E8BF
S315080077B00F0084E80F004B48B7F008F94A48B7F0BD
S315080077C005F94FF48073ADF83C30484B09A90B9383
S315080077D047480EAB0D9312F051FA0421B6F83490CF
S315080077E00DEB01000122ADF804907AF081FDB6F8A0
S315080077F036800022012102A8ADF808807AF078FDCB
S31508007800378F0122042103A8ADF80C707AF070FDB9
S31508007810758F0122042104A8364CADF810507AF071
S3150800782067FD354B4FF44870C4F8C834A3F50033E8
S31508007830C4F8C4344FF00213C4F8CC341C23C4F87B
S31508007840B43413F0FFFC08A8ADF820500EF052FB34
S31508007850142013F0F7FC08A8ADF820500EF03AFBF8
S31508007860232013F0EFFC08A8ADF820500EF042FBD9
S31508007870B9211F487BF059FC08A8ADF820500EF036
S3150800788029FB002205A81146ADF814907AF030FDC0
S31508007890002206A81146ADF818807AF029FD0122C3
S315080078A0002107A8ADF81C707AF022FD01220021FC
S315080078B008A8ADF820507AF01BFD0D4811F0D2FF4C
S315080078C000230948C4F8B434C4F8C834C4F8C43426
S315080078D0C4F8CC34B7F07DF817B0BDE8F08300BF24
S315080078E0EC2D0D0864360D0870360D08E070720030
S315080078F000C0085000C003500200030007B5042169
S31508007900064B01221B880DEB0100ADF804307AF016
S31508007910EFFC002003B05DF804FB00BF282E0D081D
S3150800792008B50448B7F052F883F068F8BDE808408F
S31508007930FFF72EBF64360D080148B7F047B800BFF9
S3150800794064360D081FB5124B01AC93E8070040F2E8
S31508007950011384E8070001213D20ADF80C3010F032
S31508007960EBFF204610F080FC0221002010F0A8FC56
S315080079700322084B1E2003F5005103F580534A6184
S315080079809A6113F055F811F093FE04B010BD00BFCC
S315080079902C2E0D0800C000504FF000639A6A02F1C1
S315080079A07841B1F5C04F03D21168074A914203D016
S315080079B00023037083607047012202709A6A9268F6
S315080079C042609B6A9B69F5E707B0CD5E1FB5012348
S315080079D08DF80430002301A80293FFF7DDFF039B0F
S315080079E09B0204D505B05DF804EBFFF7ABBF044B6B
S315080079F0044A1A6005B05DF804EB7BF040BC00BF92
S31508007A000000002002020FF030B52A4A0446137817
S31508007A1085B01BB10223137005B030BDCDE9013323
S31508007A2003930028F8D001251570B6F0B7FF224B4E
S31508007A30186067F0B9FD214B21495A6EE2619B6EC9
S31508007A4023624FF480438B661E4B5A6862621E4A55
S31508007A509A601A6E22605A6E62609A6EA260D3F8B5
S31508007A607021E2601A6C22615A6C62619A6CA2619A
S31508007A70164A106C1864506C5864926C9A644D6679
S31508007A801B6E180410D5124AD368D907FCD403AA6A
S31508007A9002A901A86CF07AFD019A0E4B1A66029AA1
S31508007AA05A66039A9A66B7E70B4AD368DB07FCD48B
S31508007AB0EDE700BFB678012070F000200080005086
S31508007AC0009000500080004455CEAC0000C0005421
S31508007AD000000440009000440000045070B51E4D9C
S31508007AE004462E78012E02D001232B7070BD002883
S31508007AF0FCD06CF0A8FD01300BD06CF0A4FD40F270
S31508007B000113984205D0154B154A5E66D368D90706
S31508007B10FCD42268134B1A6662685A66A2689A668B
S31508007B20E268C3F8702122691A6462695A64A26914
S31508007B309A64626AD20744BF00229A60E2690A4BD5
S31508007B405A66226A9A6667F037FD084B1868B6F0D7
S31508007B5020FF0023C9E700BFB67801200090004047
S31508007B6000000440008000440080005070F00020AF
S31508007B7038B54FF00064A36A03F17842B2F5C04FF6
S31508007B8017D21A680D4B9A4213D10D4D2B7813F064
S31508007B90FD0F11D10B48FFF737FFA36ADB6998473A
S31508007BA004460848FFF79AFF0CB901232B702046B4
S31508007BB038BD4FF48174FAE70024F8E707B0CD5EC4
S31508007BC0B578012048F0002038B54FF00065AB6A5B
S31508007BD0044603F17842B2F5C04F12D21B6B03F18B
S31508007BE07843B3F5C04F0CD20648FFF70DFFAB6AD2
S31508007BF020461B6B5B689847BDE838400148FFF78D
S31508007C006DBF38BD74F0002013B54FF000640190C5
S31508007C10A36A03F17842B2F5C04F15D21B6B03F184
S31508007C207843B3F5C04F0FD20948FFF7EDFEA36AB4
S31508007C3001211B6B01A89B69984704460448FFF776
S31508007C404DFF204602B010BD4FF48174F9E700BF1E
S31508007C5074F00020F8B54FF00067BB6A164603F1CA
S31508007C607842B2F5C04F04460D4611D21B6B7BB164
S31508007C700948FFF7C9FEBB6A20461B6B32462946F0
S31508007C805B6A984704460448FFF728FF2046F8BD74
S31508007C904FF40174FAE700BF74F0002070B54FF096
S31508007CA00066B36A044603F17842B2F5C04F0D4642
S31508007CB014D21B6B03F17843B3F5C04F0ED20948B3
S31508007CC0FFF7A2FEB36A20461B6B29469B6A9847B4
S31508007CD004460448FFF702FF204670BD4FF40174BE
S31508007CE0FAE700BF74F00020F0B58FB0044601A88B
S31508007CF00D461646FFF768FF9DF80C30012B08D194
S31508007D002046324629466CF036FD044620460FB01A
S31508007D10F0BD4FF00067BB6A03F17842B2F5C04F79
S31508007D2014D21B6B03F17843B3F5C04F0ED2094842
S31508007D30FFF76AFEBB6A32461B6B294620469B6BD9
S31508007D40984704460348FFF7C9FEDFE740F20114E7
S31508007D50DCE700BF74F0002070B58EB0044601A8B9
S31508007D600D46FFF731FF9DF80C30012B07D1204651
S31508007D7029466CF01DFD044620460EB070BD4FF036
S31508007D800066B36A03F17842B2F5C04F13D21B6B93
S31508007D9003F17843B3F5C04F0DD20848FFF734FE18
S31508007DA0B36A29461B6B2046DB6B98470446034893
S31508007DB0FFF794FEE0E740F20114DDE774F00020D7
S31508007DC04FF4803208B5044B9A66B7F0D5F8B0FA86
S31508007DD080F0400908BD00BF00900050134610B55A
S31508007DE062B103439B070BD14FF48034054B9C6665
S31508007DF0B7F0C6F8B0FA80F0400910BD0120FCE7DC
S31508007E000020FAE700900050B1F5481F0BD800F1A2
S31508007E107843B3F5481F06D8044B084498428CBFEC
S31508007E200020012070470020704700BF000032087C
S31508007E3070B505461446F9B1F2B11668864212BF06
S31508007E4032460F4A22604B684A61DAB222B923F0F9
S31508007E50FF0343F001034B602246284680F0BFFB30
S31508007E6060B9AE420AD1304618F028FE314620687D
S31508007E70BDE870407CF00CB96FF0860070BD00BF9D
S31508007E80F000020010B1034A80F04BBD6FF0860087
S31508007E90704700BF090080030348044A0449121AC0
S31508007EA092106CF0BDBD00BFC06100088063000879
S31508007EB080A9012008B5154B83F30A8800F030F82D
S31508007EC0FFF7EAFF124B13498B4212D30020124BDD
S31508007ED012498B4218D3FFF735F8186850F8224034
S31508007EE0586840F82240013298688242F5D30C332C
S31508007EF0EAE70022F8E71C6844F8220001325C68C9
S31508007F00A242F8D30833E4E70022F8E70800002085
S31508007F10A4060E08B0060E08B0060E08B0060E082F
S31508007F204FF4804170B5144B144A154D9A60D3F836
S31508007F30882005F5005442F47002C3F88820114AD7
S31508007F4091664FF0FF3222666FF4003262660D22A8
S31508007F50A2660222C3F8D020BFF34F8FBFF36F8FFC
S31508007F604FF44036002012F0A9FD0020E66012F01A
S31508007F705FFD2E6170BD00BF00ED00E000600008E7
S31508007F800080004400900050014B1860704700BF05
S31508007F90A8AB0120054B1860054B1B6F03F00703C0
S31508007FA0032B01D1B1F03EBD704700BFB0AB012035
S31508007FB000800050002307B50193094B1B68013365
S31508007FC006D0B6F00BFB0749074853F03BFAFEE725
S31508007FD0B6F004FB019B002BFCD003B05DF804FB54
S31508007FE0B4AB01204AF00B0864F00B0808B5EFF3B0
S31508007FF005830F2B0CD90F4A9B5C0F4A12789A42BD
S3150800800006D9B6F0EBFA0D490D4853F01BFAFEE710
S315080080104FF0E0230B4AD3F80C3D126803F4E063F3
S31508008020934206D9B6F0DAFA0749054853F00AFA30
S31508008030FEE708BDF0E300E0B77801207EF10B0803
S3150800804064F00B08A0F00020A8F10B0800216FF0DF
S31508008050040008B57BF015F9B5F004FAB0F5806FA1
S3150800806006D2B6F0BBFA0D490D4853F0EBF9FEE718
S315080080700C4B00F2FF30800A18604FF0FF33B3FB59
S31508008080F0F3094A0A3B1360B6F074FD074B186013
S31508008090BDE808400120B1F047BF00BFFFF10B085B
S315080080A064F00B08D4F00020CCF00020D0F00020BB
S315080080B00123054A411100F01F00834052F82100B0
S315080080C0034342F821307047B4F60020044B1B687E
S315080080D01BB1044B0360002070470120704700BFA6
S315080080E0C4F600201073012070B50D4C246884B1C5
S315080080F00C4C85182688B5420DDC6688CD18B54225
S3150800810009DC52B14BB1A0800020E1802281638155
S3150800811070BD0120FCE70420FAE70520F8E700BF58
S31508008120C4F60020107301202DE9F74F1D46424B77
S3150800813017461B68002B79D0DFF80491B9F80A2096
S31508008140B9F80840531A63431B1AAB4270D300248C
S315080081504FF00108B9F80660324493B20E44019311
S31508008160B6B21DB9284603B0BDE8F08F019AB3B27E
S3150800817093425FD2B9F808A0304BAAEB000AAA4589
S3150800818028BFAA4603EB061CB9F80430A5EB0A0576
S3150800819003445A0799B204D1630702D1BAF1070F0B
S315080081A023D88A44091B89B20B199BB2534505D3B8
S315080081B03046FFF77DFF01360020D2E7E010385C35
S315080081C04FEAD30E04F0070B1CF80E2003F0070342
S315080081D040FA0BF0C00708FA03F346BF1A43D2B2B7
S315080081E09A430CF80E200134DEE70CEBD1034FEA74
S315080081F0DA0B5A46184607EBE401A6F002FC2AF009
S3150800820007021AF0070A03461444D1D0E11008FA07
S315080082100AF2795CD2B2501E014013F80B005242A2
S3150800822002400A4303F80B205444C1E7012599E7A5
S31508008230032597E7042595E7C4F600205979012018
S31508008240107301202DE9F04F98464C4B85B01B68FA
S31508008250002B00F08F80B8F1000B18BF4FF0010B10
S315080082604FF0010ADFF81C910F9EB9F80650B9F8CD
S315080082700A302B449BB20293CBF10003DBB20D44C8
S315080082800193ADB21EB9304605B0BDE8F08F029A2B
S31508008290ABB2934270D2B9F80840B9F80430241A40
S315080082A0B44228BF34461844354B072CA6EB0406BF
S315080082B080B203EB051223D80444B8F1000F17D196
S315080082C0A04217D2C708D35D00F007010AFA01F1E8
S315080082D023EA01030130D35580B2F1E7C108575CA0
S315080082E000F007030AFA03F33B430130535480B204
S315080082F0A042F3D32846FFF7DBFE01350020C1E78D
S315080083004FEAD00C02EBD00710F007000BD1E208B9
S31508008310384601990392A6F0C9FA14F00704039A9D
S31508008320E8D0174416E00AFA00F3DBB2BBF1000FF7
S3150800833003F1FF3108BF002312F80CE05B420EEA96
S31508008340010108381943044402F80C10E20807F141
S315080083500107DDD10AFA04F4E4B2BBF1000FC4F157
S31508008360000204F1FF3408BF00243B78134023437E
S315080083703B70BFE7012686E7042684E7C4F600209B
S31508008380597901201073012037B5114D2B68EBB9C7
S31508008390FFF7EEF9044610B1012003B030BDFFF730
S315080083A0DBF928600028F7D002884188094B204667
S315080083B01A801A814A43598059819C80DC8021465B
S315080083C0CDE9004223462246FFF73CFF0020E4E7BA
S315080083D0C4F60020107301202DE9F8430023012577
S315080083E01A461A4FDFF86C803C68DFF86490D8F8B4
S315080083F00000D61841888E4207D3FBB91022002107
S315080084001248A6F053FA002012E0E10708D5013316
S31508008410D118C9060ABF57F8254064080135E6E7AA
S3150800842053B109EB0211FFF73FF9034610B10720D4
S31508008430BDE8F883721CEBE70132E9E7044901EB72
S315080084400211FFF731F90028D8D0F0E7B4F600207A
S3150800845059790120C4F6002030B5054687B000B327
S3150800846000226FF07F43C0E9012301A8FFF72EFE23
S31508008470044698B9019BCDE902002B601A885B88EF
S31508008480013A013B284602A9049205936CF00AFBBF
S31508008490044618B9284604496CF054FC204607B02F
S315080084A030BD0524FAE700BF8C2E0D08094B091AC2
S315080084B0891030B559430246002324258B4205FB13
S315080084C0032004D0046A04B130BD0133F6E7002066
S315080084D0FAE700BF398EE33807B50A4600B9FEE762
S315080084E0037F03B1FEE7074B019000934168012320
S315080084F04FF0FF30AFF03DFF00B1FEE703B05DF887
S3150800850004FB00BFA9E80B0830B5044685B0084649
S3150800851004B9FEE7237F03B1FEE703A96568B4F053
S31508008520A7FF48B90123064ACDE900030399234664
S315080085302846B6F0F7FA00B1FEE705B030BD00BF31
S31508008540AFE80B08084908B5A1F12400FFF7AEFF0C
S3150800855040B90649A1F12400FFF7A8FF003818BF63
S31508008560012008BD0120FCE718F70020F4F60020DA
S3150800857038B5174D174C202200212846A6F096F943
S31508008580182200212046A6F091F900210020002299
S31508008590114BC3E90001114B11491A77996011492A
S315080085A01A62D9601049C3E9002519610F499A6111
S315080085B059610F4B0F49C3E9002499600E491A7790
S315080085C0D9600E491A6219610D499A61596138BD17
S315080085D030F7002018F7002008120020F4F60020D3
S315080085E009850008F14D0708CB4D0708F54D070822
S315080085F0D0F60020D9840008E34D0708E94D07089E
S31508008600234E070810B5FFF79DFF68B10E49A1F183
S315080086102400FFF74BFF044638B90C49A1F12400A2
S31508008620FFF744FF044638B910BD204608496CF0E8
S31508008630E6FB20460449ECE7204606496CF0DFFBDA
S3150800864020460249ECE700BF18F70020F4F60020A0
S3150800865059AB0008A1AB000810B50446AFF012FAF2
S3150800866040B120466DF01DF92422034B02FB00336E
S31508008670187FC0B210BD00BFF4F60020014B1B697D
S31508008680184700BFF4F60020F8B507466DF009F95B
S31508008690104B03EBC00253F830405668FFF7EEFF65
S315080086A0054638466DF0FDF824220B4B02FB0033D5
S315080086B01B7F03F0FF0253B10023A542B34103D247
S315080086C0651B2C4666F1000620463146F8BD144661
S315080086D01646F9E708120020F4F600202DE9F843BB
S315080086E00C46154680466DF0DCF824234343104AB1
S315080086F0D1589F1809B942F80380002314EB0509DD
S31508008700404643EB03066DF0CCF80A4B03EBC00278
S3150800871043F830905660B6F041F906462A46384680
S3150800872021466CF0B2FB3046BDE8F843B6F031B9E5
S31508008730F4F600200812002038B50546B6F02EF9E2
S31508008740044628466DF0ADF82422054B02FB00309E
S315080087506CF06EFB2046BDE83840B6F01AB900BF8B
S31508008760F4F60020014B1B69184700BFD0F600201D
S3150800877070B5B6F000F905464FF0FF30B0F0F7F9DE
S31508008780044608490B6808608342074B284682BF9F
S315080087901A6801321A601E68B6F0E8F820463146B3
S315080087A070BD00BFCCF60020C8F60020F8B50D460F
S315080087B0164604466DF075F824234343084AD158F3
S315080087C09F1801B9D450B6F0E9F80446324638463F
S315080087D029466CF05AFB2046BDE8F840B6F0D9B8F1
S315080087E0D0F6002038B50546B6F0D8F8044628462F
S315080087F06DF057F82422054B02FB00306CF018FB8D
S315080088002046BDE83840B6F0C4B800BFD0F6002010
S3150800881030B589B07BF007FC012820D1114C124DE8
S315080088200021182202A8A6F041F8204602A96CF0F9
S3150800883077F888B9039B1B0A012B0DD0BDF80830C1
S31508008840B3F5885F08D040F20113204601AA02A9B1
S3150800885001940393FFF7ECFA0134AC42E0D109B076
S3150800886030BD00BF01000200080002002DE9F047F4
S315080088700329D4B00646DDE95D5A894690461C466A
S315080088809DF8707156D104A87FF0ADF8022016F055
S31508008890A9FD014604A816F0B1FD0346E8B9274A22
S315080088A02946CDE9000202905FFA8AF204A817F079
S315080088B037FA054688B9A02204A92CA8A6F0A1F87B
S315080088C02CA87FF0C0F80238022898BF2D9D2022D8
S315080088D02CA905F160007DF0A5F84FF0200A2CAD13
S315080088E0174B33F81910B8F1030F96BF154B002232
S315080088F053F8282004F00103A00748BF43F4807307
S31508008900600748BF43F40073200748BF43F4805309
S31508008910781EE40648BF43F4005347424741CDE971
S31508008920015A304600976BF0A3FF54B0BDE8F047F4
S315080089306CF006BBD4D90021D5E700BF019F080813
S31508008940CC310D08BC310D0808B5134660B1006876
S3150800895050B14AB141B10A46006804496BF0E8FFD4
S31508008960BDE808406CF0ECBA072008BD0044400496
S3150800897008B540B1006830B104496CF014F8BDE898
S3150800898008406CF0DDBA072008BD00BF09000002E8
S315080089901FB501234FF480720390CDE9003247F2E8
S315080089A012114FF44053044A03A86BF08CFF6CF085
S315080089B0C7FA05B05DF804FBFF0600067FB5134647
S315080089C00A4681B17BB10121039105A90291402193
S315080089D0CDE90031202306496CF00AF807B05DF8A6
S315080089E004EB6CF0ADBA072007B05DF804FB00BFD6
S315080089F00906000608B511F0F7FA034B1860BDE83A
S31508008A0008407AF0B3BB00BF50F700200148B3F026
S31508008A10A7BC00BF4000010000210148B3F08CBC90
S31508008A200A00010000210148B3F086BC600001007D
S31508008A3000200021014BC3E90001704710120020F5
S31508008A402DE9F04F144C9B46D4E9006585EA0307E7
S31508008A5086EA020808EA00080F4058EA0703824631
S31508008A60894685B014D0039200F044FC80B1039A7D
S31508008A704B46CDE9002B5246AFF020FE014610B119
S31508008A8006486DF0D3F986EA08067D40C4E9006514
S31508008A9005B0BDE8F08F00BF101200209BFA0B0846
S31508008AA070B506460C466CF0FEFE05466DF02EF8CF
S31508008AB070B12A46214607486DF0BBF92146304673
S31508008AC001F0FEF92946204600F040FD00B1FEE718
S31508008AD070BD00BFCDFA0B0870B586B00E466CF0B7
S31508008AE0E2FE05466DF012F808B3124B06F10804CB
S31508008AF003EBC50314F8012DB44203F8012BF9D191
S31508008B00059523780C48049363780393A378029316
S31508008B10E378019323790093E1796379A2796DF07B
S31508008B2088F92946204600F019FD00B1FEE706B08F
S31508008B3070BD00BF6A810120DFFA0B0838B50C4604
S31508008B406CF0B1FE05466CF0E1FF50B121460548D0
S31508008B502A466DF06EF92946204600F007FD00B159
S31508008B60FEE738BD01FB0B0808B56CF0B2FE10B97C
S31508008B7002486DF05EF9002008BD00BF17FB0B0820
S31508008B8010B504466CF0C2FF40B120466CF0A1FE59
S31508008B9030B104486DF04DF9002010BD2520FCE7E2
S31508008BA00D20FAE732FB0B0838B504460D466CF083
S31508008BB0ADFF00B36CF0A8FC10B10D24204638BDFB
S31508008BC0204600F00FFB0028F7D1204600F002FEF1
S31508008BD00146284600F060FC04460028EED12846E7
S31508008BE000F09CFB044640B96CF091FC044B9D7167
S31508008BF0044B9D71E2E72524E0E70124DEE700BF88
S31508008C008812002058120020F0B589B00D46174684
S31508008C101E4600F0DFFD0446FFF7F8FE38BB6CF091
S31508008C2075FF30B32146284600F036FC0446C0B925
S31508008C3001206CF06CFCFF238DF8043001232846D4
S31508008C4001AA04A90794CDE9024405948DF81C30BD
S31508008C500497069600F0E4FC30B9074B9D71074B64
S31508008C609D71204609B0F0BD20466CF050FC0124E9
S31508008C70F7E72524F5E700BF8812002058120020E0
S31508008C8008B56CF043FF0028014808BF002008BD5E
S31508008C90281200207F2337B58DF80730094B044684
S31508008CA09D796CF033FF48B16CF02EFC30B9102278
S31508008CB0294620460DF1070300F0A4FA9DF907009E
S31508008CC003B030BD881200202DE9F84F05460E4640
S31508008CD000F080FD074628466CF0E3FD04466CF07C
S31508008CE015FF002800F0848004B1FEE7414CA64237
S31508008CF000D0FEE73268404B9A4200D0FEE7237F59
S31508008D009A070DD4642384F82C303946A07900F0EC
S31508008D10C3FB0746002868D16CF0F6FB68B1FEE78E
S31508008D2094F82C30022B01D85023ECE7023BDBB237
S31508008D304F2B84F82C30F7D9E7E76CF01CFC207F22
S31508008D402E4EC0F38000A56234606CF003FC217FD0
S31508008D502846C1F3C00100F01BF9284600F048F97F
S31508008D6078B13468636963B94FF0FF30AFF0FFFE3E
S31508008D7040F6B83233682061012128465A6100F06E
S31508008D8007F93368D3F82880D3E9049A404600F0F7
S31508008D902FF9A0B1D6F800B09BF81C30DB070ED42B
S31508008DA0404600F025F909EB0A010446A031404681
S31508008DB000F024F9A1B2024658466CF06DFF3068FF
S31508008DC0816A00F033FDB5F0E9FD044601206CF038
S31508008DD0B3FBFDF76DFB2046B5F0DBFD6CF0EBFB56
S31508008DE018B12846034975F081FC3846BDE8F88F66
S31508008DF02527FAE7281200207481012058F7002059
S31508008E002DE9F04106464C4F4C487BF040F830B30C
S31508008E104FF4F850B3F0A4FAE0B16CF0B1FB484F48
S31508008E20054600286DD03B6800201B68454D1B7819
S31508008E30002413F0200F08BF00256CF0A5FB0023C3
S31508008E4039682A46C1E90433886A234675F057FC0F
S31508008E506CF059FE3046BDE8F04100F039BA38707A
S31508008E6036487AF0F9FF044600B9FEE7364D037B2B
S31508008E70EA7DC3F3800363F34102EA75037B03F0DB
S31508008E80FB030373EA7DDB0963F30002EA75037BE0
S31508008E9003F07F0303734378AB71034613F80C2B77
S31508008EA0AA802B6090F90330284A6B751370837873
S31508008EB0274AAB7513704368AB62D0F80880FFF792
S31508008EC057FC804528BF01F1FF31C5E9028106B983
S31508008ED0FEE7304600F0AEFD2875304600F0B4FDDA
S31508008EE0286119486CF07FFD20B930463A78164952
S31508008EF075F0F3FB214617487AF0ECFD6CF003FE9B
S31508008F0082E76CF046FB044648B128466CF045FB00
S31508008F100F24214610486CF08FFF00258FE76CF070
S31508008F2041FB20B120466CF041FB0E24F1E76CF0C2
S31508008F3046FB0B24EDE700BFF38101206CF7002008
S31508008F4058F700205812002088120020728101204C
S31508008F50738101205CF700206FFB0B08122208B50D
S31508008F6000210448A5F0A2FC4FF6FE73014A22F838
S31508008F70023C08BDBAF70020044B19802AB11168D3
S31508008F80C3F802105168C3F806107047B8F70020F6
S31508008F90014B9972704700BFB8F700201FB5084605
S31508008FA001A96CF04EFEE8B99DF80C30012B04D0EF
S31508008FB0022B0ED005B05DF804FB4FF6FD720A4B86
S31508008FC01B889342F6D8BDF80400C31A5842584184
S31508008FD0F0E70822054901A8A5F03FFCB0FA80F0A1
S31508008FE04009E7E70020E5E7B8F70020BAF70020D0
S31508008FF0014BD868704700BFB8F7002038B5A023E2
S315080090000D4DEC685C4311B9FFF7ACFB01462B69C3
S31508009010B3FBF4F204FB1233B1FBF4F204FB1211B6
S315080090202344581AB0FBF4F304FB1300A023B0FB47
S31508009030F3F080B238BD00BFB8F7002038B5084C49
S315080090401546E3684BB1FFF7A9FF30B10123A372B8
S315080090502846BDE8384001F02DB90020A07238BD79
S31508009060B8F700202DE9F041DFF83C800D4698F866
S315080090700A101F4606469DF8183099B1E03202EBF1
S3150800908043146CF01FFCA4EB471421183046B8F8BB
S315080090900C80FFF7B3FF414602462846BDE8F0417B
S315080090A06CF0FABDBDE8F081B8F70020F8B50746C0
S315080090B00E4614461D466CF029FD90B14FF6FE7318
S315080090C09E4200D9FEE74FF6FD739C420BD855B178
S315080090D0064B38462A462146DE60FFF74DFF00203C
S315080090E0F8BD2520FCE70120FAE700BFB8F7002005
S315080090F010B50C466CF00AFD08B1014B1C6110BD99
S31508009100B8F7002008B500F035F930B1044BB3FBC9
S31508009110F0F083B20BB1184608BD0120FCE700BF8A
S3150800912040420F0013B50446064800F039F9FFF728
S31508009130E9FF0122C100044B0094024800F020F91F
S3150800914002B010BDD0F700204158070810B50368D3
S315080091500446012B02D1024800F022F9204610BD30
S31508009160D0F7002070B50446E8B10368022B1AD17F
S3150800917043790D4D05EB830583797BB16CF01BFBB9
S3150800918006462479284664B26CF007FB2146304629
S3150800919075F0C3FABDE870406CF0B5BC2846BDE86A
S315080091A070406CF0FABA70BDCCF7002008B51822EA
S315080091B000210448A5F07AFBBDE8084002486CF097
S315080091C0ECBA00BFD0F70020CCF7002008B56CF049
S315080091D068FB00B1FEE70248BDE808406CF0DDBA5E
S315080091E0CCF7002008B56CF05CFB00B1FEE7044B39
S315080091F0186818B10068431E5842584108BD00BF98
S31508009200CCF700202DE9F34706460D4690461F4643
S315080092106CF047FB00B1FEE727B3DFF85890D9F8A2
S3150800922000A0BAF1000F22D118207AF028FC0446D3
S315080092302A4643463146CDF800A06CF08EFA204601
S315080092406CF0BCFA054670B9C9F800402368012BD2
S31508009250FCD0237920463B70FFF784FF284602B0EE
S31508009260BDE8F08722253046FFF7B0FFF6E704256C
S31508009270F9E700BFCCF700202DE9F34105460C4677
S3150800928017466CF00EFB00B1FEE7DFF84080D8F811
S315080092900030ABB918207AF0F2FB012306462246C5
S315080092A0294600933B466CF058FA30466CF086FA2D
S315080092B0044630B9C8F80060204602B0BDE8F0811F
S315080092C004242846FFF782FFF6E700BFCCF7002004
S315080092D008B56CF0E6FA00B1FEE7054B186830B140
S315080092E00368022B03D1BDE80840FFF73BBF08BD62
S315080092F0CCF70020014B1868704700BF98F800208B
S31508009300014B1868704700BF94F800200048704762
S31508009310F0F7002000487047E8F700201FB5FF2344
S315080093208DF804300023CDE90233084B014601AA23
S315080093301868AFF09FF8044628B905486CF079FD1F
S31508009340204604B010BD0120FBE700BF98F80020B6
S315080093508CFB0B08024B0A4601461868AFF046BA62
S3150800936098F80020024B4142186860F025BB00BF00
S3150800937098F80020014B1868AFF0E0B998F800207B
S3150800938013B5049CCDE9003413460A460146034842
S315080093900068AEF0EEFF02B010BD00BF98F80020DE
S315080093A0024B01461868AEF0EFBF00BF98F80020E0
S315080093B0024605480179914204D84179914238BF5D
S315080093C00020704700207047E8F70020F8B50446EB
S315080093D01C4E23680F463068FBB19721AFF033FC6B
S315080093E0024600B1FEE72168306860F08DFE00B1E4
S315080093F0FEE721683068AFF07CF92179814200D018
S31508009400FEE7306861F076F800B1FEE701223068C1
S315080094101146AFF082FC28B1FEE761F0E5FB054690
S3150800942008B1FEE70125032230681146AFF05DFC5E
S315080094307F2F03D0394628466CF072FA024B1C601F
S31508009440F8BD00BF98F8002094F800200022034BCE
S315080094501A6041F60B229A80704700BFE8F7002091
S31508009460024B01461868AFF095BC00BF98F800207B
S31508009470014B1860704700BF94F80020014B93F920
S3150800948000007047AFB60120024B01220021186880
S3150800949060F050BA98F8002038B50D46FFF788FFF7
S315080094A0044678B1084B1B68834204D128466CF001
S315080094B02EFA002038BDFFF7E7FF29462046FFF7BA
S315080094C085FFF6E70720F5E794F80020014B1868B2
S315080094D0AEF0B0BF98F80020014B186860F012BAD9
S315080094E098F8002013460A46014602480068AEF07E
S315080094F04EBF00BF98F8002007B5009313460A46EA
S31508009500014603480068AEF058FF03B05DF804FB57
S3150800951098F8002013B5049CCDE9003413460A4692
S31508009520014603480068AEF053FF02B010BD00BF05
S3150800953098F8002008B513460A460146024800680E
S31508009540AFF07BFA08BD00BF98F80020024B0A4628
S3150800955001461868AFF087BB98F80020024B0A4608
S3150800956001461868AFF0ABBB98F80020024B0A46D4
S3150800957001461868AFF08DBB98F80020024B0A46E2
S315080095800146186861F0BCB898F80020024B0A46F4
S3150800959001461868AFF09EBA98F80020024B0A46B2
S315080095A00146186861F0CCB898F80020014B186895
S315080095B0AFF0D2B898F80020024B0146186860F060
S315080095C017BA00BF98F80020024B0146186860F0E9
S315080095D0A9BF00BF98F80020014B1868AFF079B909
S315080095E098F80020014B186860F0BCBF98F8002076
S315080095F0024B014618687AF069BC00BF98F800204B
S31508009600024B01461868AFF0B5B800BF98F80020BD
S31508009610024B01461868AFF026BA00BF98F800203A
S3150800962013460A46014602480068AEF027BF00BF47
S3150800963098F800204FF0FF3307B50193264B0146F3
S315080096401B6ADB0700D4FEE7244B00221B88038233
S31508009650234B1B688361234B1B884382224B1B6861
S31508009660C3618023838200F12403036201A860F0AA
S31508009670ADF800B1FEE761F0E3FC00B1FEE71B4977
S31508009680019861F033F800B1FEE702210198AFF0C6
S3150800969045F800B1FEE71649019861F055FA00B1A0
S315080096A0FEE701210198AFF03AFB00B1FEE7012180
S315080096B00198AFF04AFB00B1FEE700F0A7F80121D8
S315080096C00198AEF051FE01980A4B186000B9FEE702
S315080096D003B05DF804FB00BF0080E00FDEC60D088E
S315080096E0E4C60D08DCC60D08E0C60D080700110023
S315080096F0D8310D0898F80020024B01461868AFF0DB
S31508009700C5B900BF98F8002030B50C46154A85B093
S315080097101068516802AB002C03C304F1FF350DD164
S3150800972010F086FC2B46CDE9000102AA073412F890
S31508009730011D03F8011FA342F9D110E02A460A4B7E
S315080097400A4913F801098B4202F8010FF9D10822D8
S3150800975020460DEB0201A5F080F80028E0D005B000
S3150800976030BD00BFE9010C080900E00F0100E00F59
S3150800977010B56BF0DFFE044638B905486CF059FBA6
S3150800978020466BF0C4FEB5F097F8002010BD00BF68
S3150800979017FB0B08014B1878704700BF748201202D
S315080097A0014B1878704700BF74820120014B187866
S315080097B0704700BF73820120102208B57F21034835
S315080097C0A5F074F87F22024B1A7008BD7682012034
S315080097D07582012007B50DF10600FFF711FFBDF8E8
S315080097E00610084A084B0A4493F9003012F90B0C84
S315080097F0984203DB7F2B14BF1846002003B05DF8A0
S3150800980004FB00BF7682012075820120402208B53C
S3150800981000210548A5F04AF84FF6FF73024A9387D8
S3150800982082F83E3008BD00BF9CF800202DE9F041C3
S31508009830054608466CF035F8064628466CF02EFABA
S31508009840002850D028466CF030FA00284BD02B7FE1
S31508009850DA06C3F3001446D428466CF0EAF9A0B138
S3150800986028466CF033FA0746002840D0214B03EB14
S3150800987086135B785A1E90420DD0834209D0013375
S31508009880984232D00820BDE8F0811A4B03EB8613C4
S315080098905F78012300E0234603EB8603154C1B0182
S315080098A00C332344AB602B7FDB0716D428466CF0B9
S315080098B0C0F94FEA861828B104EB08035A6804F879
S315080098C008709A603946284644446CF00CFA616878
S315080098D028464B1C63606CF008FA0749284601EBDA
S315080098E0C6016BF0A7FD0020CDE70223D4E70120CF
S315080098F0C9E700BF9CF800206A81012038B50C46EC
S315080099006BF0CFFF05466CF001F948B1B5F046F8A3
S31508009910044B03EB85135C60BDE83840B5F039B8F5
S3150800992038BD00BF9CF800202DE9F7430446DDE961
S315080099300A7691461D466BF0B4FF80466CF0E6F851
S31508009940002859D00DB107B106B9FEE72046002117
S31508009950FFF7D4FF2A4C4FEA881E0EF10C0C2B4653
S31508009960A444654604EB881888F8019003F11008AA
S315080099702A4618685968083303C243451546F7D17D
S315080099800EF11C053B4625442F4603F110083A46BE
S3150800999018685968083303C243451746F7D10EF1CC
S315080099A02C07334627443E4603F11008324618680A
S315080099B05968083303C243451646F7D14FF6FF7375
S315080099C07444A38784F83E3010226146E06801ABF0
S315080099D06BF0E2FA00B1FEE710222946E06901AB16
S315080099E06BF0DAFA00B1FEE710223946E06A01ABFD
S315080099F06BF0D2FA00B1FEE703B0BDE8F08300BF12
S31508009A009CF8002038B50C466BF04BFF05466CF009
S31508009A107DF860B1B4F0C2FF054B03EB85135A68B5
S31508009A20A24238BF5C60BDE83840B4F0B2BF38BD6A
S31508009A309CF8002008B56BF034FF024B8001185CD7
S31508009A4008BD00BF9CF8002008B56BF02AFF024B42
S31508009A5003EB8013986808BD9CF8002082B02DE9B6
S31508009A60F04F9BB024AF47F8043F002305AE86E8C5
S31508009A70070009AC0CAD96E8070084E8070097E8EC
S31508009A80070085E8070094E807000DF13C080DF18A
S31508009A9048098DF8643088E8070095E8070089E8E2
S31508009AA0070040466BF055FF039048466BF051FFA0
S31508009AB0DFF8A0B0039BDBF800A00422009015A9EC
S31508009AC0504679F010F80346002840D00022D1B25B
S31508009AD004931AAB03EB810151F8141CDBF8000060
S31508009AE003920DF069FF039A049B01329342824662
S31508009AF001D00028EBD096E8070084E8070097E82D
S31508009B00070085E8070094E80700DBF8003088E8D6
S31508009B10070095E8070089E80700404603936BF0BD
S31508009B2018FF049048466BF014FF049B009004222B
S31508009B30039815A978F0D7FF034610B1BAF1000FBC
S31508009B40C4D050461BB0BDE8F04F02B070474FF086
S31508009B502D0AF6E7F0AB01202DE9F04F0F46064631
S31508009B6089B01846904699466BF0FAFE002F3BD00E
S31508009B70B8F1000F38D000250124DFF870B0484648
S31508009B806BF0EEFEDBF8003000F5003A05A801930D
S31508009B90CDF814A0ADF8186007956BF0DAFE04ABA3
S31508009BA0014603AA01980DF0EBFC2D2801D00023ED
S31508009BB011E005A8CDF814A0ADF8186007956BF06C
S31508009BC0C8FEDBF800400146434620463A460DF0FB
S31508009BD0A7FD01230446082D02D00135002BCED05F
S31508009BE0204609B0BDE8F08F2124F9E7F0AB012043
S31508009BF008B56BF0DDFE014620B10D48BDE808400A
S31508009C006CF01AB90B4A1368013313600A4B1868CB
S31508009C1090F8343053B9094B19680DF013FB014617
S31508009C2008B10748EAE70122064B1A7008BD00BFCB
S31508009C30A9FB0B08DCF80020F0AB0120D0AB012013
S31508009C40CAFB0B088682012038B56BF0B1FE0146C7
S31508009C5020B1BDE8384008486CF0EEB8074B084D0F
S31508009C601C68013C1C602B782BB124B9054B18687D
S31508009C700DF0B0FB2C7038BDF0FB0B08DCF80020AB
S31508009C8086820120F0AB01202DE9F04F87B005460A
S31508009C900E46144698466BF09DFE814628466BF0A4
S31508009CA05FFEB9F1000F5AD1DFF8F0A000F50035D4
S31508009CB0DAF80070E4B2B8F1000F5CD0109B002B04
S31508009CC059D003A8CDF800900395ADF81060059417
S31508009CD06BF03FFE02AB014601AA38460DF050FC78
S31508009CE08146002834D1029F002F3ED001466A469D
S31508009CF0384610F03BFF814650BBDDF800B0BBF19B
S31508009D00000F35D003A803950594ADF810606BF0E5
S31508009D1020FEDAF800500146044602AB284601AA9E
S31508009D200DF02EFC814698B95A462146029BDAF870
S31508009D3000000DF067FB814650B9109B40461A8813
S31508009D400099BA4228BF3A46A4F05BFE109B1F80D2
S31508009D50009808B179F0ADFCB9F12D0F1AD80E4A62
S31508009D6012F8090007B0BDE8F08F4FF02D09EFE7AC
S31508009D704FF00109ECE703A80395ADF810600594C8
S31508009D806BF0E7FD02AB014601AA38460DF0F8FB79
S31508009D908146E1E70120E5E704320D08F0AB012032
S31508009DA0F8B505460C4616461F466BF013FE70B905
S31508009DB0294620466BF0D9FD08B12D2805D12B463A
S31508009DC03A4631462046FFF7C7FE2D2802D8024BF1
S31508009DD0185CF8BD0120FCE704320D087FB506467D
S31508009DE00D4614466BF0F6FDA8B9002C17DB304675
S31508009DF06BF0B6FD00F500300190E4B201A8ADF8AD
S31508009E00085003946BF0A5FD084B014618680DF041
S31508009E10D3FD2D2808D8064B185C04B070BD314612
S31508009E2028466BF0A2FDF4E70120F6E7F0AB012027
S31508009E3004320D0830B589B005466BF0B9FD044605
S31508009E4030B10146124809B0BDE830406BF0F4BFA6
S31508009E5028466BF085FD00F5003002902846ADF8DF
S31508009E600C4004946BF07CFD1F22ADF818200922E3
S31508009E700346079208AA12E903008DE8030002AA1E
S31508009E8003F5003307CAFFF7E9FD09B030BD00BF87
S31508009E9013FC0B0838B5074D04462B78834207D0C8
S31508009EA0054A064B002818BF1346012098472C7010
S31508009EB038BD00BF8782012055C80B0881C80B082A
S31508009EC010B50C466BF0EFFC044B014623F8104026
S31508009ED02246BDE8104002486BF0ABBF6C73012008
S31508009EE039FC0B0810B50C466BF0DDFC28220C4B30
S31508009EF033F810301C440B4BA4B202FB003000238D
S31508009F000288A24201D182783AB901330A2B00F1BC
S31508009F100400F5D14FF0FF3010BD18B2FCE700BFC2
S31508009F206C7301204473012010B50C466BF0BBFC22
S31508009F300F4B618833F8102023880B44A1881944F5
S31508009F40E3880B4428211A440A4B92B201FB0030DD
S31508009F5000230188914201D1817839B901330A2B4E
S31508009F6000F10400F5D14FF0FF3010BD18B2FCE740
S31508009F706C7301201C730120F8B54FF4905079F0EA
S31508009F80B7FA234E234D3060642079F0B1FA224B9C
S31508009F9000242B604FF490536B61336864262B6161
S31508009FA018231E4FA86021461D4A0120AB61EE60AA
S31508009FB06C603C72B4F031F92A462146786019483B
S31508009FC0B3F0C9FE38604FF4406079F091FA164F45
S31508009FD0164D3860304679F08BFA154BC5E90206FE
S31508009FE0C5E900344FF440636B613B68114E2B6141
S31508009FF010232146104A0120AB613472B4F00DF9E2
S3150800A0002A46706021460D48B3F0A5FE3060F8BDBB
S3150800A010D812002008F9002057FC0B08E01200208F
S3150800A02054320D08F5A00008B8120020E4F8002004
S3150800A03060FC0B08C012002044320D08B5A00008C9
S3150800A04008B50448B4F03FF8034B1860BDE808406B
S3150800A05080F031BD34320D08E0F8002010B5044612
S3150800A0606BF0FEFCA20706D5094B1A7A58682243FC
S3150800A0701A72B4F04FF9E30708D5064B1A7A5868EE
S3150800A08014431C72BDE81040B4F044B910BD00BFBB
S3150800A090C0120020E0120020024B4FF0FF31186872
S3150800A0A0B4F048B8E0F80020014B1868B4F067B877
S3150800A0B0E0F8002070B50E4CFEF75AFB05460E4632
S3150800A0C0FFF7EAFF6BF006FDFFF7EEFFFEF750FB22
S3150800A0D0D4E90432C31842EB01025B1B62EB0602A9
S3150800A0E002210348C4E904326BF0F6FCE4E700BF3A
S3150800A0F0C0120020F8B5ADF0F7FC0446FEF738FBB1
S3150800A10005460E4627E0FFF7C7FF2046ADF0BAFC26
S3150800A11098B9FFF7C9FFFEF72BFB154AD2E90437B2
S3150800A1205B1B67EB06071B1847EB01071046012167
S3150800A130C2E904376BF0D0FCE0E720466BF0BEFCC2
S3150800A1402046ADF08BFE2046ADF07CFE0746FFF7B5
S3150800A150ABFF002FDFD06BF0AFFC0028D3D0204632
S3150800A160ADF0E1FC024B1868BDE8F840B3F05FBEFD
S3150800A170E012002038B5084DD5E8AF3F13F00104CA
S3150800A18008D128466BF084FC20B1044B28461C6095
S3150800A1906BF083FC014838BD2CF9002030F900200B
S3150800A1A070B51348D0E8AF4F14F0010418D16BF01E
S3150800A1B06FFCA8B10F4D2E4646F8044B30191022F5
S3150800A1C000211034A4F072FBA02CF7D10B220A4B05
S3150800A1D0013A194603F1100304D105486BF05DFCFA
S3150800A1E0044870BD286843F8100C2960F0E700BFE2
S3150800A1F034F9002038F900203CF900202DE9F04117
S3150800A200884615461E466BF0DAFC074650B35EB321
S3150800A2100379990748BF86F80080C3F34004037999
S3150800A22048BF01245A070ED5114B294693F9000059
S3150800A23075F08FF8822302B2C2EB0222B2FBF3F268
S3150800A24032559CB901243B791B0708D582228235F1
S3150800A250C5EB0525B5FBF2F5631C3555DCB2204682
S3150800A260BDE8F0810446FAE73446F8E70224F6E743
S3150800A27088820120014B18706BF0C5BC88820120CA
S3150800A28070B5049D0C46014600B12DB9C621064B92
S3150800A290064A074850F042FC0493284613462246CD
S3150800A2A0BDE8704001F07ABDA0FC0B08C2FD0B08A2
S3150800A2B012FD0B0808B530B940F20911074B084AD8
S3150800A2C0084850F02BFC038823F4FF4343F45063FB
S3150800A2D0038004230370062008BD00BF26FE0B0872
S3150800A2E037FE0B0812FD0B08131D70B5DBB21446BA
S3150800A2F030B940F217110D4B0D4A0E4850F00EFCBE
S3150800A300068803F07F0326F4FF46068003709B2326
S3150800A3108370B823C370EA2303710023437111B114
S3150800A3200630A4F06EFBA01DC0B270BD26FE0B0859
S3150800A33069FE0B0812FD0B080048704764320D08C9
S3150800A34010B5044600F5CE50044A1C3004F0CCFB88
S3150800A35004F58054C4F8FC0910BD00BF007512004E
S3150800A3604FF6FE730A460188994203D00121024836
S3150800A3700AF07ABE17207047343700207FB50546A5
S3150800A38001AE314622480AF0A9FEBDF804202C8801
S3150800A3904FF6FE73A24220D09A4235D09C420CBF9B
S3150800A3A001240324029B1B4AB3F5967F38BF4FF45A
S3150800A3B09673934294BF0293029296E8070085E843
S3150800A3C007002A462146144876F05CFD2A462146AF
S3150800A3D0124805F0C9FF04B070BD9A4216D09DF820
S3150800A3E00C202B7A9A420BD1BDF806206B889A422C
S3150800A3F008D16C68029B9C4214BF04240524D1E74B
S3150800A4000324CFE70424CDE70224D6E70024D4E7C3
S3150800A410343700209BC4200070370020783700208E
S3150800A420002370B5054688B00193164802AA01A90B
S3150800A43077F0A7F870B12B7F53B105F10C00112204
S3150800A4400021A4F033FA012529460F4805F0DAFE63
S3150800A45008B070BD9DF81A305B07E6D505F10C0407
S3150800A460214602A872F087FF50B92D7F02AE003D43
S3150800A47018BF01250FCE0FC433686D002370E3E7BC
S3150800A4800325E1E72C360020783700200A4610B568
S3150800A4900021054805F05EF9044610B100216DF06B
S3150800A4A073F8204610BD00BF902900200149FFF728
S3150800A4B0EDBF00BF5D330D08002202604260024610
S3150800A4C0024942F8081FC0E904207047596807087E
S3150800A4D0F8B5002504464560856016460F4600F027
S3150800A4E001FA23460A4AA08143F8102F3946C4E9DF
S3150800A4F00634C4E90855A56204F12C00FFF7DCFF11
S3150800A500C4E91155C4E91355C4E915562046F8BDE2
S3150800A5103167070838B504460D46064AFFF7D8FFDF
S3150800A52023462946044A04F15C0073F060FF20467E
S3150800A53038BD00BF25630708456C070813B5049C9A
S3150800A540CDE90034024B6CF0D1F902B010BD00BF62
S3150800A550A8320D0825289ABF024B53F82000024856
S3150800A560704700BFB0320D08B6FE0B08F0B50C46B2
S3150800A5700546ABB0164604A9962202A81F466DF0FA
S3150800A58052FC124B12491A5D02A86DF074FC0E219A
S3150800A59028466DF0C9FB0F4B0E22034400930E4963
S3150800A5A02B4602A86DF067FC3A46314602A86DF0C4
S3150800A5B041FC0A4A0A4902A86DF05DFC10212046B2
S3150800A5C0074A04AB44F000FD2BB0F0BD48330D0834
S3150800A5D082000C084E330D0888000C0840030C084E
S3150800A5E0861F0C0870B504460E4665683DB93146A7
S3150800A5F00D4875F005FE0028F7D0284670BD2B6873
S3150800A60004F580506360B0F80836B0F80A260133BE
S3150800A6109BB29342A0F8083638BF1346A0F80A360C
S3150800A62000232B60E9E700BFC0320020024B002858
S3150800A63008BF1846704700BF5D330D08F8B50646D3
S3150800A6400F4605465024BC42296806D300240B4809
S3150800A6502C606CF05AFF2046F8BD41B9717907485D
S3150800A660C1F34101FFF7BEFF0146286018B17C34EB
S3150800A6700D46A4B2E7E70320EEE700BF501300201B
S3150800A6800022014B6CF0A3BF5D330D0810B50446DC
S3150800A69002216CF0D6FF2146BDE8104001486CF057
S3150800A6A044BF00BF50130020F8B504460E461546B1
S3150800A6B000F13007E3899D420BD85B1B6289E38171
S3150800A6C0A3892A442B4492B29BB29A42628118D239
S3150800A6D0FEE761791148C1F34101FFF783FFD0B165
S3150800A6E023680360E38920604F2B06D83030C3F116
S3150800A6F05002F9181844A4F084F9E3897C33E381FD
S3150800A700D8E7A3812EB12B463246002120466DF0AC
S3150800A71097F80020F8BD0320FCE700BF501300207F
S3150800A72073B5054603796E8940798E42C0F34102B6
S3150800A730C3F3400328BF0E468DF804308DF8052074
S3150800A7404109EA891D4801AB6CF041FF044600281F
S3150800A75032D03346002229466DF0B4F848BBAB899F
S3150800A7606289B34228BF33469A4200D2FEE7A381E4
S3150800A770AA79A37962F30303A3712B792279DB09FA
S3150800A78063F3C71222716B796279C3F3C10363F36A
S3150800A790C4026271AB69A3612B8A23826B8A6382C6
S3150800A7A02B7A2372AB8DA385EB8DE385204602B009
S3150800A7B070BD2046FFF76AFF0024F7E75013002014
S3150800A7C000220449C0E90022C0E90212C0E90422B5
S3150800A7D00276704765A8000870B50568064645B351
S3150800A7E000230446294644F8103B164809F038FC6D
S3150800A7F0294615486BF06BFC2946144805F0E8FF16
S3150800A8002946134873F0FBFF294612480AF0DAF87E
S3150800A8102946114805F06CFD2946104873F0B1FA2F
S3150800A82029460F4873F06FFD367E04EBC606A6422E
S3150800A83000D170BD236813B128466168984708346B
S3150800A840F5E700BF503300205037002014380020A9
S3150800A850EC38002070370020783700209C2B002029
S3150800A860D42C00200148FFF7B7BF00BF20130020F3
S3150800A870024B00F003001856704700BF5F330D08FF
S3150800A88010B5064A0446138803B9FEE7013B9BB296
S3150800A89013800BB96AF05AFC204610BD6E7301206E
S3150800A8A037B54FF6FF720D4D04462B88934200D1FB
S3150800A8B0FEE763B96AF049FC04210DEB01006AF072
S3150800A8C046FC00B1FEE7019905486DF0D4F920462B
S3150800A8D02B8801332B8003B030BD00BF6E73012077
S3150800A8E0DCF90020034B1B8803B9FEE702486DF02C
S3150800A8F0CCB900BF6E730120DCF90020032202499F
S3150800A9000248FFF775B900BF64330D08F812002036
S3150800A9100148FFF799B900BFF81200200148FFF770
S3150800A92089BA00BFF8120020002914BF02210121AC
S3150800A93008B5054892F8FE30FFF732FA0C2800D120
S3150800A940FEE700B1FEE708BDF81200201FB5FE239A
S3150800A9500029ADF80E300DF10E0314BF02210121B6
S3150800A96000931446134608480022FFF78DF90C2871
S3150800A97000D1FEE730B9BDF80E30FE2B8CBF17208C
S3150800A98084F8FE3004B010BDF8120020002914BF68
S3150800A990022101214FF0FF3208B50348FFF71EFADE
S3150800A9A00C2800D1FEE708BDF81200201FB5ADF847
S3150800A9B00E300DF10E030093054813460022FFF7EB
S3150800A9C063F90C2800D1FEE705B05DF804FB00BF6B
S3150800A9D0F8120020F0B585B0BDF8285014460DF1E0
S3150800A9E00E020092114800220E461F46ADF80E5080
S3150800A9F0FFF74AF90C2800D1FEE748B9BDF80E3032
S3150800AA00AB4205D12A4639462046A3F026FF50B167
S3150800AA102B46224631460548FFF7C2F90C2800D1D5
S3150800AA20FEE700B1FEE705B0F0BD00BFF812002052
S3150800AA304FF0FF3208B50348FFF7D0F90C2800D1CC
S3150800AA40FEE708BDF8120020036823B9016005482F
S3150800AA5049606BF055B85B684B60036859600160E4
S3150800AA60704700BFF81200204368014613B9024830
S3150800AA70FFF7EABF704700BFFC1200200022026001
S3150800AA800246024942F8041FC2607047F1AA00084C
S3150800AA9038B50421044685684FF47A706DF034F9A8
S3150800AAA02918201D00F04EF82368D80702D50C484F
S3150800AAB006F00CFD2368990602D50A4873F0D0FF04
S3150800AAC023685A0602D5084876F03FFA2368DB055C
S3150800AAD004D5BDE83840054803F05CB938BD00BF69
S3150800AAE0C032002078370020703700209C290020CB
S3150800AAF00148FFF7CDBF00BF3C13002070B50568BD
S3150800AB000C4625B9BDE870404B68084818478B685D
S3150800AB1098476A680146831A002BB8BF121A236839
S3150800AB20A8BF0022BDE8704000481847F812002068
S3150800AB300146024A02486DF03BBA00BF78330D0859
S3150800AB40001300204160024A014602486DF056BAD9
S3150800AB5078330D080013002010B50446ACF092FFB8
S3150800AB6030B104F108000349BDE810406DF0A6BAFB
S3150800AB7010BD00BF78330D084160024A01460248FD
S3150800AB806DF03CBA6C330D08041300200146024AE6
S3150800AB9002486DF00DBA00BF6C330D08041300208F
S3150800ABA010B50446ACF06EFF30B104F10C00034951
S3150800ABB0BDE810406DF082BA10BD00BF6C330D08B9
S3150800ABC00549806001600021C0E90311C0E905114B
S3150800ABD0C0E9071281847047C585070810B5044681
S3150800ABE0FDF74CFD002301466360064B206004F127
S3150800ABF008002061A36001F18041FFF7A3FF20460A
S3150800AC0010BD00BF09AC000801486DF0F4BC00BFD8
S3150800AC100C13002008B50C486AF0C5F94FF002106D
S3150800AC206AF0C1F909486AF0BEF909486AF0BBF941
S3150800AC3008486AF0B8F908486AF0B5F9BDE8084066
S3150800AC4006486AF0B0B900BF01000200030002001E
S3150800AC5004000200050002000600020007000200C8
S3150800AC6000487047F812002010B5074C94F838369B
S3150800AC703BB9A4F500506DF016FFA4F500506EF030
S3150800AC8009F8024810BD00BFF8320020F81200206B
S3150800AC900022C0E9002282600246044942F80C1FDD
S3150800ACA04261028B02F0800202837047B5AE00084B
S3150800ACB0084A82B002F5005393F8AA3102F5025207
S3150800ACC003F00F0302F58670072B18BF1046019292
S3150800ACD002B07047F812002038B5FFF7E9FF0C46B6
S3150800ACE005466EF073F8A8B10B4BB3F8822E4FF6F3
S3150800ACF0FE739A4202D0094B9D4207D12B68236006
S3150800AD006B68636002230020237238BDAB8B2380F7
S3150800AD100123F8E70B20F8E7F82200208434002006
S3150800AD200D4A0E4B506EA2F58051984228BF184620
S3150800AD304FF47A7391F8681E5843C90708D5926E7E
S3150800AD405A43904228BF1046834238BFC01A7047FC
S3150800AD504FF47A63F8E700BFF83200209BC420005E
S3150800AD6038B50546FFF7DCFF2B7E04469A0702D561
S3150800AD70642828BF64245B070ED5B4F57A7F10488B
S3150800AD8028BF4FF47A746EF0B9FB28B10C486EF000
S3150800AD90B5FB844228BF04466B7E0F2B02D9BC2C18
S3150800ADA028BFBC24AB6833F07C4204D0C3F3190334
S3150800ADB09C4228BF1C46002C14BF20460A2038BDDA
S3150800ADC040310020027ED1070BD4064991F85B106A
S3150800ADD0090700D5FEE742F00102012102766EF06E
S3150800ADE030B87047F832002038B5037E0546DA07D2
S3150800ADF005D428466DF0F2FF0D24204638BD0F4CC9
S3150800AE0094F8483E5B07F4D4FFF752FF6DF0DEFF77
S3150800AE100028EED005F10C00FFF78AFE04F648601C
S3150800AE206EF067FA044620B9014628466EF009F81E
S3150800AE30E3E70D28DDD00121F7E700BFF82200205F
S3150800AE40F8B504461F46237E0846DB07154628D56F
S3150800AE50174B93F89E20160723D0B3F8A030022B81
S3150800AE601FD90B681B8819071BD5037F9A07C3F3DD
S3150800AE70400617D56FF099F8064687B97DB1237E47
S3150800AE8023F0780323762B681B88DB0604D5204637
S3150800AE90BDE8F840FFF7A8BF20466DF0ADFF002ECD
S3150800AEA0F5D1F8BD002FFCD1002DE8D1F9E700BF98
S3150800AEB0F83200200148FFF797BF00BF3033002063
S3150800AEC00023F0B5077E87B017F0010704460D4644
S3150800AED016468DF8143019D08B885BB103A928461D
S3150800AEE06EF0A1FC0123324600932946264803AB9F
S3150800AEF006F044FA2046FFF7DBFE837F180707D1E2
S3150800AF0020466DF06BFF214808F06CF907B0F0BDDC
S3150800AF1006F0FB030B2B1CD0637EFEB90F2B0ED855
S3150800AF200027237E59072CD5238B23F4706323F03F
S3150800AF3004032383012120466DF083FFE6E7F033FF
S3150800AF406376DBB20F2BEBD8E37A66F38703E372FB
S3150800AF50E7E7237E43F004032376EBE75E1C06F05F
S3150800AF600F0666F30303637628466FF01EF800287B
S3150800AF700CBF04230F239E42D6DA237E5A07C5D474
S3150800AF80E8E7002FC2D0D5E7C032002050330020B2
S3150800AF9070B504468AB00D462222002101A8A3F006
S3150800AFA085FC20460DF11201FFF796FE002832D1E6
S3150800AFB09DF81A60194B022E11BF0126D3F8860E8A
S3150800AFC0D3F88A1E02AA16BFB3F8822E03C2ADF8BA
S3150800AFD008208DF81060B3F8501E07A82C686FF08B
S3150800AFE02EF90323ADF8043040F60503ADF82230F8
S3150800AFF004230B488DF824302146002301AA06F0C5
S3150800B00059FC20466EF0D1FF10B100222B685A7603
S3150800B01020460AB070BD0024FAE700BFF8220020D7
S3150800B020BC32002010B5038904468B4206D1BDE820
S3150800B03010404FF4004108486CF0E6BD01814FF41A
S3150800B040004105486CF0D4FD218904F13400BDE8BF
S3150800B050104000F0B5BF00BF20130020F7B500254B
S3150800B060056004460E46FFF73DFC2071FFF73AFCE3
S3150800B0702E4B6071A360A5712D4804F0FDFB0F23CC
S3150800B0800B222376236A314603F0FC03E060227420
S3150800B090236284F82420C4E90A556582656104F1AF
S3150800B0A030006FF078F8234B234AC4E9323523463B
S3150800B0B004F5B67743F8D02F29461022C4F8D830BD
S3150800B0C03846C4F86451A4F86A51A3F0EFFB4FF070
S3150800B0D000432646C4F86C3168466FF073F8882238
S3150800B0E02946A4F8685104F1DC00A3F0DFFB2378B5
S3150800B0F043F0010306F8343B304600F087FF0F485B
S3150800B10005F034FC20462189FFF78CFF6946304656
S3150800B11000F062FF3046618F00F058FF38462A4635
S3150800B12007496FF0BCF8204603B0F0BDFFFF0B0BD4
S3150800B130F812002005BD0008F9BC0008D030002030
S3150800B14084330D0873B5054608680C466DF02CFF68
S3150800B150002837D020460DF103016EF07DFD9DF8DD
S3150800B1600330082B2ED0102B0FD06BBB237F174E26
S3150800B170DA07A66006D4204631696EF08DFD33697C
S3150800B1800133336105F13E0116E04FF0FF330193B9
S3150800B19005F5B673A360D5F8641120460131C5F8E4
S3150800B1A064116EF079FD204601A96EF08EFDFF212F
S3150800B1B020466EF0B3FD0649237F1B0702D42046BE
S3150800B1C06EF00BFF02B070BDFEE700BF2031002015
S3150800B1D094330D082DE9FF410027044608686DF0F1
S3150800B1E0E1FE15468A880B469DF828808DF80C7076
S3150800B1F0EAB101A900F0200618466EF014FB0122F8
S3150800B2002C4801A975F0D7FF40B13EB195B10E2D76
S3150800B21005D139468022263074F03BF865B1B8F17D
S3150800B220000F09D0D4F808310133C4F8083104B046
S3150800B230BDE8F0810121EDE7D4F8DC300B2D03F1F0
S3150800B2400103C4F8DC3020D1D4F818310133C4F82E
S3150800B250183116B3D4F8E8300133C4F8E83025B904
S3150800B260D4F8EC300133C4F8EC309DF80C30012BDF
S3150800B27005D14FF6FF73BDF804209A4213D0D4F8CF
S3150800B280E0300133C4F8E030D1E70F2D02BFD4F81F
S3150800B2901C310133C4F81C31DBE7D4F8F030013334
S3150800B2A0C4F8F030E1E7D4F8E4300133C4F8E43008
S3150800B2B0BDE700BFB83300202DE9F7430546086807
S3150800B2C00F4690461E466DF06FFE00284AD0384657
S3150800B2D00DF101016EF0B0FC9DF80130052B03D08D
S3150800B2E0082003B0BDE8F08301A938466EF0C4FC17
S3150800B2F038460DF102016EF0AFFC9DF80240082CAD
S3150800B30032D0102C76D0002CEAD141463D48024670
S3150800B31038466EF0C9FE01460028E1D19DF8023094
S3150800B320082B1FD1B37F03F00F03072B1AD1B3697C
S3150800B3309C4205D03061B46106F10C006EF087FFBF
S3150800B340019B7269013393422F4888BF7361F3608A
S3150800B350D0F8DC3D9C4205D90322214600F6D85098
S3150800B36005F04CFB0020BCE7002EB9D038460DF19D
S3150800B37003016EF0BFFC9DF80330234A013BDBB2A4
S3150800B3808DF80330D2F8DC4D04F07F02934216D1D3
S3150800B390394605F1300000F0C3FDB37F03F00F0313
S3150800B3A0072B0AD1B3699C429AD306D1019AF3684E
S3150800B3B0511C994223D09A4292D34146A7E704F1F9
S3150800B3C0FF3909F07F02934207D14A46394605F10B
S3150800B3D0300000F0A9FD4C46DFE7013404F07F0297
S3150800B3E093427FF47DAF2246394605F1300000F0DE
S3150800B3F09BFDD2E70024054905F5B67087E71D20B1
S3150800B4006FE700BF20310020F822002094330D0892
S3150800B410002370B51546126888B0064610460C46D5
S3150800B4208DF810308DF81C306DF0BEFD10B9002077
S3150800B43008B070BD10466DF0B5FD00F44050B0F58B
S3150800B440005F01D00820F3E728466EF0E1FC0028EB
S3150800B450F8D1694628466EF0EFFB9DF80030052BBB
S3150800B460F0D128460DF103016EF0F6FB9DF8033086
S3150800B470082BE7D10DF1010120466EF03BFC28466A
S3150800B4800DF102016EF036FC9DF801209DF80230A0
S3150800B4909A42D7D101A928466EF0EEFB284602A9A2
S3150800B4A06EF046FA9DF81030002B39D0012202A919
S3150800B4B02B4875F080FE04469DF81030022B4BD0C1
S3150800B4C0002CBFD02068616802AB03C302238DF845
S3150800B4D010309DF80230234A013BDBB28DF802306A
S3150800B4E0D2F8DC2D02F07F018B4224D106F16C02E2
S3150800B4F0A37F03F00F03072B03D1636901999942D0
