S02800004D61747465724C6F636B4F766572546872656164536F6C7574696F6E2D66756C6C2E733337A5
S3150800000008100020C9010008A9400008B328000804
S31508000010A9400008A9400008A9400008A94000080E
S31508000020A9400008A9400008BC430008A9400008E8
S31508000030A94000086C430008A9400008A940000828
S31508000040A9400008A9400008A9400008A9400008DE
S31508000050A9400008A9400008A9400008A9400008CE
S31508000060A9400008A9400008A9400008A9400008BE
S31508000070A9400008A9400008A9400008A9400008AE
S31508000080A9400008A9400008A9400008A94000089E
S31508000090A9400008A9400008A9400008A94000088E
S315080000A0A9400008A9400008A9400008A94000087E
S315080000B0A9400008A9400008A9400008A94000086E
S315080000C0A9400008A9400008A9400008A94000085E
S315080000D0A9400008A9400008A9400008A94000084E
S315080000E0A9400008A9400008A9400008A94000083E
S315080000F0A9400008A9400008A9400008A94000082E
S31508000100A9400008A9400008A9400008A94000081D
S31508000110A9400008A9400008A9400008A94000080D
S31508000120A9400008A9400008A9400008A9400008FD
S31508000130A9400008A9400008A9400008A9400008ED
S31508000140A9400008A9400008A9400008A9400008DD
S31508000150A9400008A9400008A9400008A9400008CD
S31508000160A9400008A9400008A9400008A9400008BD
S31508000170A9400008A9400008A9400008A9400008AD
S31508000180A9400008A9400008A9400008A94000089D
S31508000190A9400008A9400008A9400008A94000088D
S315080001A0A9400008A9400008A9400008A94000087D
S315080001B0A9400008FFFFFFFFFFFFFFFFFFFFFFFF4C
S315080001C0013800D0FCE7704708B50D4B83F30A8861
S315080001D00C4B09A1D1E90001C3E9000102F022F89C
S315080001E002F012F800F0C4F901F0EEFF01F0FEFF8C
S315080001F002F063FBAFF30080A5EDF5FEA5EDF5FE75
S3150800020008000020081000200348044B834202D04F
S31508000210034B03B118477047DC5D0020DC5D002006
S3150800022000000000064B0749C91A891048BF01316A
S31508000230491003D0044B0BB101481847704700BF5B
S31508000240DC5D0020DC5D00200000000010B5064CD7
S31508000250237843B9FFF7D8FF044B13B10448AFF32B
S3150800026000800123237010BDC85D00200000000037
S315080002707846000808B5054B1BB105490548AFF394
S315080002800080BDE80840FFF7CDBF00BF00000000B2
S315080002901010002078460008114B70B598420E469B
S315080002A014461BD2C0F5451303F5005300F100654B
S315080002B0934205F5004511D348B94FF000639B6A90
S315080002C0084A5969914202D9186900F05FFA22462C
S315080002D031462846BDE8704002F064BA70BD00BFDA
S315080002E000603100008000087FB56FF0006200F101
S315080002F078419142034619D26D460D4A02F110061D
S315080003002C4610685168083203C4B2422546F7D114
S315080003105A1E04A90F3311F8014D12F8010F844231
S3150800032004D19A42F7D1012004B070BD0020FBE742
S31508000330584300082DE9F0410368044603F1604379
S31508000340B3F5002F9CB05FD84FF00068D8F8283076
S3150800035042681E69964257D82D4B9A4254D8456B27
S3150800036006F14002AA4251D89D424FD82846FFF7C7
S31508000370BBFF00284AD0284602F045FA80B16F69CB
S3150800038077B1022F0FD1AB69C4F1040119444FF0BC
S31508000390FF32204601F0BAFA1E4BC31A584258419A
S315080003A01CB0BDE8F081D8F834804046FFF79CFFC2
S315080003B00028F5D0A6F15003984525D8012F23D15A
S315080003C0AD69AE4220D8AC421ED8114B9D421BD80F
S315080003D002A801F05FFB21462A1B02A803F09FFC36
S315080003E002A803F09EFC01F065FB044601F080FBC1
S315080003F023460090294605F1200202A801F0CAFA10
S31508000400B0FA80F04009CBE70020C9E70120C7E72A
S3150800041000003208E320BBDE70B54FF0FF3292B021
S3150800042005460C4601F072FA1C4B984232D14FF43D
S3150800043080621B4B00219A6601A8202203F0B8FEB1
S31508000440184B29466846043C009303F03DFF2146B5
S31508000450684603F039FF684603F03FFF03F0F2FEF3
S315080004600646B8B940F2022000F03CF9202231468F
S315080004700AA803F09DFE0C4B294609A8099303F028
S3150800048023FF09A8214603F01FFF09A803F025FF4B
S3150800049003F0D8FE002012B070BD00BFE320BBDE1B
S315080004A00090004001000543010006434FF48062B6
S315080004B030B50446154B93B000219A6601A8202250
S315080004C003F076FE124B21466846009303F0FCFEC5
S315080004D0684603F002FF03F0B5FE054698B940F2F8
S315080004E0022000F0FFF8202229460AA803F060FE41
S315080004F0084B09A82146099303F0E6FE09A803F06C
S31508000500ECFE03F09FFE002013B030BD00900040C3
S3150800051000000243000003434FF4806210B50F4BFE
S315080005208CB004469A660021202204A803F040FEF7
S315080005300B4B00940393012301930A4B694603A8C6
S31508000540029303F0E7FE03A803F0C7FE03F07AFE62
S31508000550B0FA80F040090CB010BD00BF0090004012
S315080005600000084304000020004870470080000887
S3150800057037B54FF480420221404B414C9A66414BB5
S315080005802266C3F8D010BFF34F8FBFF36F8F0123D6
S315080005904FF440313C48C0F88031E16003603B4885
S315080005A001613B498A668DF806308DF807304FF0B1
S315080005B04023D3F894305A060FD500F0D1F8A0F2AC
S315080005C0022080B2072808D8C923C340DB0742BFE8
S315080005D000238DF806308DF807302E4B5B68013303
S315080005E008D14FF4027000F07DF800238DF806302C
S315080005F08DF807309DF807305BB12648FFF79AFE5D
S315080006008DF806009DF806301BB94FF4027000F00D
S3150800061069F89DF8063073B300F056F808B100F093
S315080006204BF84FF480424FF0FF31144B9A6603F1B2
S315080006308063196659660F2199660021114BC3F824
S31508000640D010BFF34F8FBFF36F8F01250E4CC4F840
S315080006508050BFF34F8FBFF36F8F4FF44030084978
S315080006600861C4F88051C8600A4801F17C418A666D
S31508000670986002F0E3F803B030BD00BF0090004078
S3150800068000A0004400ED00E000E100E00080004426
S3150800069000A00040006000084CF23C32014B5A8032
S315080006A0704700BF000000204AF6C032014B5A804E
S315080006B0704700BF000000204FF20F02014B5A801E
S315080006C0704700BF000000204AF6C030044B5B8824
S315080006D023F00F039BB21B1A58425841704700BFBC
S315080006E000000020044A08B51080FFF7EDFF10B996
S315080006F04FF20F03538008BD0000002008B5FFF72E
S31508000700E3FF18B1024B588800F00F0008BD00BF80
S315080007100000002008B5FFF7D7FF48B1054A5388FF
S3150800072003F00F010F2914BF013323F00F03538081
S3150800073008BD00BF0000002008B5FFF7D3FFBFF3D0
S315080007404F8F0549054BCA6802F4E0621343CB6034
S31508000750BFF34F8F00BFFDE700ED00E00400FA0588
S315080007604FF20F01084B5A888A4201D11888704700
S315080007703AB91B8840F20220012B18BF4FF40070CB
S3150800078070474FF400707047000000204FF4803225
S3150800079008B5044B9A6601F0D9FDB0FA80F0400915
S315080007A008BD00BF00900040072BF8B506460F4667
S315080007B014461D4601D90020F8BD0121202001F06C
S315080007C03FFD0121212001F03BFD8CB144EA0603DF
S315080007D09B07F0D14FF48032064B31469A6628467D
S315080007E023463A4601F0DAFDB0FA80F04009E3E71D
S315080007F00120E1E70090004010B5044600F0D6F865
S31508000800074BB0FBF3F304FB03F0022806D9BDE857
S3150800081010400323B0FBF3F0FFF7D2BC10BD00BFB6
S3150800082040420F004FF08062024B5A664FF4007246
S315080008305A66704700900040022110B5FFF7F2FF94
S3150800084008460023042201F011FD02220023104667
S31508000850012101F00BFD002304220321022001F0EF
S3150800086005FD042201231146022001F0FFFC0122A6
S31508000870184C04F580535A6040F6AA636361002356
S31508000880154A2361E36404F500539A6440F2014370
S31508000890A36041F20503E36000F088F80F4B0138C6
S315080008A0B0FBF3F010234FF002120002E06163611F
S315080008B00B4BC3F83828A2F58032C3F8302802F566
S315080008C00032C3F834281C22C3F8202805236361A4
S315080008D010BD00BF00000A40FFFF01000050C30022
S315080008E000C0035008B50146FFF79CFFBDE8084065
S315080008F0014803F0FCBB00BF00000A4010B50446DF
S31508000900C0F307410C48FFF78DFF03F0FAFBC4F369
S315080009100721094803F0F5FBE1B2074803F0F1FBAC
S31508000920054803F0DEFB044803F0DBFBBDE8104096
S31508000930014803F0D6BB00BF00000A4008B5FFF720
S3150800094071FFBDE80840FF21014803F0D0BB00BF96
S3150800095000000A4010B5FF210948FFF763FF03F0BE
S31508000960D0FBFF21064803F0CCFB054803F0B9FB92
S315080009700402034803F0B5FBA4B2204380B210BDBD
S3150800098000000A4008B5FFF74DFF1022014BC3F8D7
S31508000990A02008BD00E0035008B5FFF743FF10226A
S315080009A0014BC3F8A02008BD00D0035030B51C4B3E
S315080009B087B001AA03F11005144618685968083368
S315080009C003C4AB422246F7D11B782370154B1B6F25
S315080009D003F00703032B1FD04FF48022124B5A66ED
S315080009E0124A9368C3F30443102B17D818336B4481
S315080009F00F4913F8143C4B430E498B4203D19268B6
S31508000A00C2F30162D340074A106FC0F303300130C6
S31508000A10B3FBF0F007B030BD074BF4E7074BF2E73E
S31508000A200444000800800040009000400000014097
S31508000A3040420F0000093D0000F04902C0EA2101CA
S31508000A402DE9F04FDFF80C910646D9F804408846A0
S31508000A508442924691B072D2D9F80C301F6E4FF08C
S31508000A6000632744041B944228BF14469B6A3D1A18
S31508000A7003A8D3F810B001F065FAD9F80C30D3F80A
S31508000A808C20304B9A42224654D19DF81430002BC4
S31508000A9050D14146284603F07DFA331B00930BF1EB
S31508000AA004012B198B421AD30BF11C0BAB4516D933
S31508000AB08D422A4638BF0A46F01BC1F16801104428
S31508000AC0114401939B4594BFC2EB0B02C2EB030290
S31508000AD0D9F80C304044194403F072FB019B1A4ABA
S31508000AE0934216D919498D4213D20132AA4238BF08
S31508000AF02A46174DF01BD9F80C601044154440449B
S31508000B008B4294BFC2EB0302C2EB0102711903F0D8
S31508000B1057FB009E544509D2D9F80410AAEB0402E3
S31508000B20891B494408EB040003F04AFB002011B076
S31508000B30BDE8F08F2946404603F042FBADE70024A6
S31508000B40E8E700BFF80B0BF80380000808800008E8
S31508000B507C80FFF7281000202DE9F043284C074633
S31508000B6065680E4689B07DB1C5F10408884528BF79
S31508000B70884601464246601903F022FB62684244F1
S31508000B80042A626026D04546A6EB050838F0030815
S31508000B901CD020220021684603F00AFBB8F1200F7A
S31508000BA0C14628BF4FF0200979194A46684603F01E
S31508000BB007FB4A4669462369E06800F083FA4D4414
S31508000BC0A8EB090878B9B8F1000FE7D1B5420DD3FB
S31508000BD0002008E023692146E06800F073FA002344
S31508000BE063600028CFD009B0BDE8F0830023761BE8
S31508000BF0324603487919236003F0E2FA6660E7E7AC
S31508000C0028100020084B10B5242204460021184657
S31508000C1003F0CEFA0122C460027204491430BDE81A
S31508000C20104001F0F9BE00BF28100020410A000854
S31508000C3070B404465868A8B10B4D287A50B10B48D1
S31508000C40D4F88C6086424FF0000001BF287208680D
S31508000C50206604202B61121A0144054B054870BC16
S31508000C6001F0E8BE70BC704728100020FD0505FDA0
S31508000C70590B00083C100020436D3BB9D0F88C0096
S31508000C80034B984214BF04200C207047012070477C
S31508000C90F80B0BF84B6810B50BB9002010BD0B4CC0
S31508000CA0606868B1C0F10402FF21204403F080FAAD
S31508000CB0236904222146E06800F004FA00236360F1
S31508000CC0A37F1E2BE9D041F20230E7E72810002067
S31508000CD00A4B186830B9B1F5205F0DD801220848CB
S31508000CE01A607047012806D1B1F5005F03D80222C1
S31508000CF004481A6070470020704700BF4C10002057
S31508000D00C8350020C815002031B1044A1368002BE5
S31508000D10C4BF03F1FF331360704700BF4C100020B7
S31508000D2002232DE9F04F8846164600278BB0DFF8D8
S31508000D30C490DFF8C4A005908DF81F309DF81F20D9
S31508000D40022A07D0002E48D041F20231012A18BFE4
S31508000D500F4642E0D9F80010234DC1F540730893B9
S31508000D60DAF80030214809930DF11F030293002396
S31508000D70019309AB009308AA1D4B294402F06FFEA4
S31508000D8048BB9DF81F3063B3089BD9F80040294635
S31508000D901C4424F0030B43465A46059800F092F982
S31508000DA014F00304074605D02246284605EB0B0136
S31508000DB003F0E5F9DAF800200999C9F800408A42F3
S31508000DC0A2EB010404D90A482246014403F0D7F9E4
S31508000DD0CAF80040B2E741F2033738460BB0BDE81F
S31508000DE0F08F41F20237F8E7C410002050100020B7
S31508000DF0C8130020C0100020C413002008B57022B4
S31508000E000021064803F0D4F901220020044B1A7089
S31508000E10044B1860044B186008BD00BF5010002032
S31508000E20C95D0020C0100020C41300202DE9F0473A
S31508000E309A465B68074688461446002B36D0204BF0
S31508000E401E78A6B100221A7051F8043B05220366E3
S31508000E501C4B1D4800F076F858BB1B4802F0F3FC03
S31508000E60D7F88C60194B9E4214BF11261926DFF855
S31508000E706490A41BD9F80050C5F50073A3420BD2A1
S31508000E80002251463846FFF74BFF80B9D9F8005083
S31508000E90C5F50073A3420FD30D48224608EB060199
S31508000EA028442C4403F08CF9C9F800400020BDE81A
S31508000EB0F08741F20530FAE741F20430F7E700BF60
S31508000EC0C95D0020CC5D002050100020F80C0CF8FD
S31508000ED0C8130020C4130020436D3BB9D0F88C001A
S31508000EE0034B984214BF1120192070470120704700
S31508000EF0F80C0CF838B54B6805460C46ABB1012220
S31508000F00FFF70EFF90B90B4B1A6852B1FF210A4B37
S31508000F10032A0CD9234604222846074900F0D2F8AA
S31508000F2020B90649064802F017FE002038BD995434
S31508000F300132EDE7C0100020C4100020CC5D00206F
S31508000F40501000202DE9FF41044668461D46E84634
S31508000F5002F00EFE002838D12A466946204602F0DD
S31508000F60DAFD074620BB039AB2F1804F25D240F638
S31508000F70FF731749B2F5800F28BF0B469E1826EA5D
S31508000F8003066169964238BF164611B1A36AB34291
S31508000F9015D028466B689847002331466361284672
S31508000FA02B689847606150B92946204602F0AAFD89
S31508000FB00227384604B0BDE8F081064BDEE798E81C
S31508000FC00F00A66284E80F00F3E70427F1E700BFE5
S31508000FD0FFFF0F00FFFF3F000368044A04489342DF
S31508000FE018BF83420CBF012000207047FD0505FD90
S31508000FF0FD0707FD094B98420CD003F5003303F5AE
S315080010000073984208D10120054B404200F01400B5
S31508001010184470470020F7E700207047FD0505FDD6
S315080010201844000830B5024600230C25054905FB7F
S3150800103003F460180C59944203D001330E2BF6D1F1
S31508001040002030BD40440008F0B50023082787B0CB
S31508001050CDE9013315463B46009704AA044602F03B
S31508001060C9FD41F203039842064623D194F843305A
S3150800107053B13A46E06C04A902F051FE04AA3B4675
S315080010801146A06C02F03AFE059A049B6A6094F831
S3150800109043202B6052B9094A934207D0084A934223
S315080010A004D00822E06C04A902F039FE6B682365B7
S315080010B000236365304607B0F0BD00BFF70A0AF79C
S315080010C0FC0404FC2DE9F04799465B6804460F4684
S315080010D09046002B3FD08B0740D14FF000639B6AA8
S315080010E0006E1B6981181D1DA9421BD31C3398422B
S315080010F018D2A842024638BF2A46994294BFC2EB84
S31508001100010AC2EB030A101A3E18C5F1680010441A
S3150800111031465246204403F053F85246FF213046E2
S3150800112003F046F8226E0F4B9A420BD80E4902EB93
S315080011300800884206D39B1AFA58C4F880204FF054
S31508001140FF32FA50D9E9003542463946206EA8479B
S31508001150236E434423660020BDE8F08741F202006F
S31508001160FAE700BF04800008088000082DE9F0416E
S3150800117000254FF0FF3704468846164603F020033D
S3150800118080F842301822FF21C0E91855A0F84050CF
S3150800119080F84350A0F8445080F84650C0F888704C
S315080011A0683003F005F888222946C4E91286C4F88F
S315080011B08070C4F8847004F1900002F0F9FF074BC0
S315080011C0C4F82071C4E9463584F8245116B130466E
S315080011D000F060FC0020BDE8F08100BF00010101BD
S315080011E02DE9F04F9DB09B46CDE90923002304461F
S315080011F00E464FF00109269D0B930B9A5A4501D3CB
S31508001200002023E194F84630142BF7D8DFE813F0D2
S31508001210B800FD00F700910078006D01C80178005C
S31508001220C001780037007800C00106037603150070
S315080012306301BA02BA02490274030027636D0F2BD1
S3150800124000F2E180102320460093CDE90197402360
S315080012500CAA09A902F0CEFC41F20303984240F019
S31508001260A380D4F8488000F061FC80230221CDE9F0
S3150800127000030DAA0123404600F060FBDEE7DFF815
S31508001280C4A3636D072B00F23C8138234FF008088E
S315080012900DEB03022046CDE90199CDF8008009A996
S315080012A002F0A8FC41F2030398427DD1337843F05B
S315080012B0040333700F9BB36273785B071CD5002059
S315080012C0236DCDF830A0C4F8843094F845306066B4
S315080012D043F0020384F84530EF686FB104222B68A7
S315080012E00CA9B847606E2B684246EF680EA94044C1
S315080012F0B847636E103363660B2384F84630C0E73D
S315080013004FF0FF08D4E914739F427CD9FF1ADDE930
S315080013100A329B1A94F84020032F134440F2448162
S31508001320032B00F24481204609A902F043FC002061
S315080013303AE00127636D072B00F2E3800823204675
S315080013400093CDE9017740230CAA09A902F052FCC3
S3150800135041F20303984227D1337843F002033370EE
S315080013600C9B7360236D083B73620D9BB3F1006F92
S3150800137000F0EE80142384F8463041F2010013E0B1
S3150800138020460CAA09A9FFF75FFE41F2030398421B
S315080013900AD10D9B0C9A236500236365A74B9A42D5
S315080013A0E8D1022384F8463041F203030790079AEE
S315080013B09A423FF422AF48E0082320460093CDE93D
S315080013C0019740230CAA09A902F014FC41F2030371
S315080013D09842E9D10C9B03F07F43B3F1407F05D0D7
S315080013E0142341F2090084F84630DDE70D9BD9073E
S315080013F006D594F8423043F0010384F842300027BA
S31508001400636D072BD8D90123C7E020460CAA09A982
S31508001410FFF71AFE41F203039842804609D10C9859
S31508001420FFF700FE0746A0B9142341F2080884F81E
S31508001430463041F20303CDF81C80079A9A423FF4DE
S31508001440DCAE079B0BB10023F37007981DB0BDE80F
S31508001450F08F437994F824219A4205D9142341F24E
S315080014600E0884F84630E4E70168754A914205D0CB
S315080014700289D20748BF013384F8243194F84230F0
S31508001480D8070DD53A8994F84330910706D53BB16C
S31508001490142384F8463041F20108CAE7002BF7D036
S315080014A00CA8FFF799FD18B93B7984F84630C0E7D0
S315080014B00C98C4F88C00FFF79DFD94F842309A0604
S315080014C0F2D50028F0D04368002BEDD02046984787
S315080014D00028E9D0DFE7226D0123A265002284F8FF
S315080014E04330E26584F8463087E6402200210CA89E
S315080014F002F05EFE0127D4E91432934204D884F838
S31508001500467041F203004FE7009320464023CDE999
S3150800151001770CAA09A902F06DFB41F20303984270
S315080015207FF442AF0DF1300C06F108030DF1480EB9
S31508001530624603CA724518605960944603F1080367
S31508001540F6D110681860337843F001033370D2E798
S31508001550042384F8463094F8453043F0010384F8B0
S31508001560453000236366E5E6042320460093CDE96B
S31508001570017740230CAA09A902F03CFB41F20303B8
S3150800158098427FF411AF236D042B02D90C9B236676
S315080015900127636D032BE7D9092384F84630B0E7A2
S315080015A00023636607239DE79F423FF6BCAE402FA4
S315080015B028BF40279F4228BF1F46032F88BF27F012
S315080015C0030740232046CDE9019900970CAA09A9EB
S315080015D002F010FB41F2030398427FF4E5AE94F85B
S315080015E04620072A28D1D5F808A0BAF1000F23D03B
S315080015F02B683A46606E0CA9D047636E3B44636617
S3150800160080E60CA901F803800133032BF9D9042FCE
S31508001610C7F1040A88BF4FF0000A092ABA4413D151
S315080016202B46524620460CA9FFF74CFD00283FF4EE
S3150800163069AE41F20200B7E63B46E6E7EB17A603BA
S31508001640F90707F9EB17A65E042A1FD173789F07D7
S315080016507FF558AEEB68002B3FF454AE626E042A51
S315080016600BD80AEB0203062B07D90DAB9B1A1A688F
S31508001670C4F884204FF0FF321A60EF682B68524690
S31508001680606E0CA9B847636E5344B8E70B2A7FF41B
S3150800169039AE737858077FF535AEEF68002FEDD170
S315080016A030E694F8427017F0200769D0D4F88C0019
S315080016B0FFF7A0FC059000283FF45FAE4FF0010A43
S315080016C042E0002B5AD0059B002B57D01B69002BF4
S315080016D054D020469847DDE90A329B1A94F84020F0
S315080016E013448342FFF41FAED4E91421A2EB010888
S315080016F0B8F1400F28BF4FF04008984528BF9846D4
S3150800170020464023CDE901AACDF800800CAA09A9F4
S3150800171002F070FA41F2030398427FF445AE94F85A
S315080017204230990610D5059B002B3FF426AE9B68E0
S315080017301F46002B3FF421AE2B46424620460CA9F5
S31508001740B84700287FF430AED4E9142194F8423023
S31508001750914203F02003B4D3002B3FF454AE059B0B
S31508001760002B3FF450AEDB68002B3FF44CAE294605
S315080017702046984700283FF446AE15E60120AAE71A
S3150800178005979BE74FF000618A6A496B1269503AE0
S3150800179091423FF6F2AD112B0AD194F81831002B7D
S315080017A07FF431AE142341F2060084F84630FBE597
S315080017B094F84430002B7FF426AECDE9013340235C
S315080017C0204600930CAA09A902F014FA41F2030371
S315080017D098427FF4E9ADE06C02F0A3FA94F8183168
S315080017E0D4F84C806BB104F1B403009304F194036C
S315080017F0404614AA0CA900F0CDF850B10023F370A6
S31508001800D0E700F057F9074600F072F93B4600901A
S31508001810EEE70123F37084F84430F4E500234FF033
S315080018200408CDE9013320464023CDF800800CAAF0
S3150800183009A902F0DFF941F20303984209D1D4F865
S315080018408820304B9A4206D0142341F2050084F8CA
S3150800185046300790F9E50123F37094F84530DA0726
S3150800186007D5EF682FB1424640462B6804F184013C
S31508001870B84794F845309B0707D5EF682FB104227F
S315080018802B68104604F18401B847236E6BB36F6862
S315080018905FB34FF0FF3304F180080422414608A8DD
S315080018A0089302F05CFC20B1042241462B681648D6
S315080018B0B84704F168090422494608A802F04FFC13
S315080018C098B14FF000639B6A1422D3F8108004F194
S315080018D06C0108F10800D5E90037B847D5E90037A3
S315080018E00422494608EB0200B8470123B3700E23C9
S315080018F0002084F84630ACE70023F37041F2070075
S31508001900A4E500BFE320BBDE0480000830B5082448
S31508001910094B00255C66012403F5FE235C6001443F
S315080019209D601A61DC60884201D1586A30BD10F8A2
S31508001930012B1A62F7E700BF009000402DE9F0413D
S3150800194016464FF480621D46114B00F120080446E6
S315080019509A6640460F4602F0D9FBDDE90612404674
S3150800196002F0D8FB002384F8587063643368C4F81F
S3150800197059307368C4F85D30B368C4F861302B0C0D
S315080019806DBA84F86530A4F86650BDE8F08100BFEA
S31508001990009000402DE9F04315464FF480621C463E
S315080019A0364B9BB0DDF888900E4607469A660028A7
S315080019B061D000295FD0002D5DD0002C58D0304B67
S315080019C0304AB9F1000F0CBF9846904620220021F4
S315080019D012A802F0EDFB2C4B414611A8119302F018
S315080019E073FC202111A802F06FFC0122274B0294F8
S315080019F003920493CDF814900692079354B1B9F163
S31508001A00000F07D002A911A802F09FFB05A911A88B
S31508001A1002F09BFB089701271C4C08A911A80997F7
S31508001A200A9402F092FB0BA911A80B960C970D9439
S31508001A300E950F97109402F088FB0EA911A802F0D4
S31508001A4084FB11A802F049FC114B01934FF098430F
S31508001A505A6CD202FCD55B6D40F2046003F4702325
S31508001A600193019B002B08BF00201BB0BDE8F08343
S31508001A70DFF80C80AAE740F20160F6E70090004024
S31508001A801F24FC841F24008000000106200000207B
S31508001A90785634124FF4806210B50446044B9A66A1
S31508001AA002F042F92046BDE81040002102F040B994
S31508001AB0009000404FF4806200B50B4B9BB00021AC
S31508001AC09A666846282202F073FB4023002168467E
S31508001AD00AAA00F02FFE20F010000128034818BFBC
S31508001AE000201BB05DF804FB009000404CE3310871
S31508001AF04FF4806200B50B4B9BB000219A6668468E
S31508001B00282202F055FB4023002168460AAA00F065
S31508001B1011FE20F010000128034818BF00201BB052
S31508001B205DF804FB009000406CE3310800487047FC
S31508001B3086E231082DE9F3471446DDE90A920D4697
S31508001B401F4600284CD1002C41D013683F2B42D8A1
S31508001B505168002941D02549002F14BFB846884648
S31508001B6003F03F061B19136022BF53680133536005
S31508001B70C6B3C6F1400A544523D32946524609EB53
S31508001B80060002F01DFB0123264400934A463B4605
S31508001B9041460020A6F1400400F078F83F2C554451
S31508001BA00DD9B846A3092A46009341463B4600206C
S31508001BB000F06CF824F03F031D4404F03F0434B1F0
S31508001BC000262246294609EB060002F0F9FA00200B
S31508001BD002B0BDE8F087B846C2E7DFF81080BFE775
S31508001BE00348F5E73F2CDDD8EBE700BF284500089A
S31508001BF080AFFFFF2DE9F0411746146886B01E46F0
S31508001C00E3008DF80F3063098DF80E30630B8DF8FD
S31508001C100D30630D8DF80C3053680546DA0002EB7B
S31508001C2054728DF80B2004F03F045A09372C8DF8AE
S31508001C300A204FEA53324FEA53538DF80920884653
S31508001C4094BFC4F13802C4F17802CDE900178DF8C3
S31508001C5008300D4903460020FFF76CFF08222B4683
S31508001C600020CDE900870DEB0201FFF763FF284648
S31508001C7005F1200350F8042B984246F8042BF9D1B5
S31508001C80002006B0BDE8F081E8440008F0B5174624
S31508001C904FF480621D46264B93B09A6624220E4660
S31508001CA0044600210DEB020002F082FA01204FF0F3
S31508001CB000520097019002920396049005920695A9
S31508001CC007900892002C2FD1189C1A4BA401214684
S31508001CD009A8099302F0F8FA029B03A91C43029487
S31508001CE0059B09A843F020030593089B43F02003AE
S31508001CF0089302F02AFA694609A802F026FA06A904
S31508001D0009A802F007FB09A802F0E7FA4FF0984382
S31508001D105A6CD202FCD55B6D13F4702F14BF6FF0AA
S31508001D206F00002013B0F0BD6FF07100FAE700BF36
S31508001D30009000400004010330B5ADF50F7D01ACFD
S31508001D404FF40D722146002002F073F840F2012587
S31508001D500021204602F044F8A842F9D040F20323B5
S31508001D60984204D040F205400DF50F7D30BD23782A
S31508001D7059070ED423789A071CD4DB07F2D500221C
S31508001D80E168D4F8240200F041F90028EAD00020DE
S31508001D90EAE7A06A00F03EFD0028EBD0D4F824025A
S31508001DA000F0F2F80028E5D00B48FEF77FFB002884
S31508001DB0E0D1D7E74FF00062926A61689268914273
S31508001DC0DBD9D4F8240200F0FDF80028CAD0616AED
S31508001DD00148FEF721FBC5E70080000831B10A4B30
S31508001DE05A68824205D80023C1E9003340F201400F
S31508001DF07047013053F8302003EBC0035B680020BE
S31508001E000A604B60704700BFE845000870B40C468E
S31508001E1011461A460D4B5D68854210D9013003EB11
S31508001E20C0056D68A618AE420DD8A5420BD39542DB
S31508001E3009D353F83000204470BC02F0ABB840F226
S31508001E40014070BC704740F20240FAE7E8450008D6
S31508001E5070B50D46002186B00DF1070302931E4B9F
S31508001E6004461646116028461C22CDE903338DF830
S31508001E700710059302F09CF99DF8072052B994F8CB
S31508001E807230132B06D0D4F830321BB9D4E98A3114
S31508001E90994219D32378990744BF61683160DB07F3
S31508001EA009D504F1080304F1240153F8040B8B4205
S31508001EB045F8040BF9D162B9237840F20640002BA5
S31508001EC018BF002006B070BD204602A901F06BFFBE
S31508001ED0D2E70020F6E700BFA13D000870B40C4623
S31508001EE011461A460D4B5D68854210D9013003EB41
S31508001EF0C0056D68A618AE420DD8A5420BD395420B
S31508001F0009D353F83000204470BC02F065B840F29B
S31508001F10014070BC704740F20240FAE7E845000805
S31508001F20074B5A68824207D9013003EBC002516851
S31508001F3053F8300000F0E6B840F20140704700BFA1
S31508001F40E845000870B5054688B0C0B14FF4403280
S31508001F5000236C46C0E900230A4B05F114061A78DB
S31508001F605B680272C360684600F06EF80FCC0FC655
S31508001F7094E80F0086E80F0005F114032B6108B0FA
S31508001F8070BD00BFE845000800B5ADF5137D4FF4F8
S31508001F900D7205A901F04DFF80B904230DEB03016D
S31508001FA08DF81530064BC1E90000886005A8CB609E
S31508001FB001F056FF0DF5137D5DF804FB0020F9E7E7
S31508001FC0990200084FF0006300B59B6AADF5137DD2
S31508001FD09B688B4204D300200DF5137D5DF804FB46
S31508001FE04FF40D7205A901F024FF0028F3D102234E
S31508001FF001A98DF81530044BC1E90000886005A8D1
S31508002000CB6001F02DFFE7E79902000810B5ADF5A2
S31508002010127D05AC4FF40D72214601F00AFF70B926
S3150800202001238DF81530074B01A9C1E90130C860B5
S3150800203020460C6001F014FF0DF5127D10BD00203E
S31508002040FAE700BFE527000870B588B0064601F034
S3150800205088FF20220021684602F0AAF801F01CFF3A
S315080020600E281BD01DD807280AD00A2813D03546B3
S315080020706C460FCC0FC594E80F0085E80F0007E003
S315080020803446094D0FCD0FC495E80F0084E80F00BC
S31508002090304608B070BD3446044DF3E73446044D67
S315080020A0F0E73446034DEDE7584600083846000881
S315080020B018460008F845000870B5154606460C4649
S315080020C001F04FFF9DB901F0E7FE431EDBB2162B68
S315080020D08EBF00230A4A52F823309C420ED89E42ED
S315080020E00CD8A01998428CBF0020012070BD287812
S315080020F00028EAD101F0D0FE2870E6E70020F5E7CF
S315080021008C450008F7B506460D4601F02AFF01F092
S31508002110C3FE431EDBB2162B96BF2A4A002452F88A
S31508002120234045EA0603C3F30B038DF80700002B8B
S3150800213041D1294630460DF10702FFF7BDFF0028B9
S315080021403CD07EB9A5420DD101F00BFF01F0D5FEBA
S31508002150FEF718FCC720FEF7C5FBFEF71DFC00209E
S3150800216003B0F0BD2C46354407E0BBB243B139464F
S31508002170202001F0FCFEA4F580542F1B002CF4D17E
S315080021802646B4F5803FA5EB04010ED2310C0904AE
S315080021903944B4B211FA86F6311B002CDFD0202060
S315080021A001F0E5FEA4F58054F6E7D82001F0DFFE3D
S315080021B0A4F58034E5E740F20440D1E740F2024056
S315080021C0CEE700BF8C450008054B064A06498B42F8
S315080021D000D3704752F8040B43F8040BF7E700BF27
S315080021E0CC5D002084460008DC5D00200021044BFD
S315080021F0044A934200D3704743F8041BF9E700BF2B
S3150800220010100020CC5D00200348044A0449121A25
S31508002210921001F04ABF00BFB4010008B4010008DB
S31508002220CC5D0020044B054A9A60D3F8882042F416
S315080022307002C3F88820704700ED00E0000000082F
S315080022404209531E022B96BF074B002303EB82035A
S3150800225000F01F0029B103F58053012282401A605D
S31508002260704703F50053F8E7608000402DE9F04118
S3150800227005460F461E4690464AB1012330221C4C9D
S315080022808B4002FB004416B304F5825423603023C6
S31508002290072F4FF00F0105FB03F3164C1AD8BA00A7
S315080022A0181D134608FA02F29940204401F00AFF65
S315080022B0B8F1000F09D1012330210D4ABB4001FBBB
S315080022C0052296B102F582521360BDE8F08104F545
S315080022D00154DBE7A7F1080C4FEA8C0C03F10C005C
S315080022E008FA0CF201FA0CF1DFE702F50152EBE706
S315080022F000C0035030C00350F0B5114A114C124EBD
S3150800230000F00105E3695F0713D40DB9334213D111
S3150800231003EA00078F4207D10B4A1A40002A14BF66
S315080023206FF001000020F0BD013AEBD16FF002001A
S31508002330F9E74FF0FF30F6E76FF00100F3E700BF6B
S315080023408096980000000340020001004FF4803296
S3150800235038B50E4B0E4C9A66E56941F67133154051
S315080023600122E3630B4B0021DA600223606121201E
S315080023702361FFF7C1FF10B92120FFF7BDFF012236
S31508002380054BDA600DB10023E36338BD00900040C9
S315080023900000034000100340002003402DE9F043ED
S315080023A001264FF4302584002F4F04F1402404F50C
S315080023B080247E606560302500244FF4803E41F617
S315080023C07138DFF8B4C005FB00C5EC652C662C67D0
S315080023D0264C06FA00F0C4F868E004F51C34D4F874
S315080023E01CE0C4F83C8004F58054DFF89080E66071
S315080023F0DFF88C9043B901211D4A1EF4803FD16055
S315080024002CD10020BDE8F08301F500546FF30C04CD
S31508002410641A9C4228BF1C46C9F81410D9F81C90A7
S31508002420A60819F0040F1CD1013E360146F0605685
S315080024306E66AA66C5F86C807862DCF8346030424D
S31508002440FBD04FF004090B4E21447063A6F5903675
S31508002450B8622244C6F810901B1BC9E7C9F83C307D
S31508002460CFE74FF0FF30CDE7001004400090004062
S3150800247000200340002004400000044018000340E8
S31508002480000003402DE9F043012905460E46914612
S3150800249098469DB05BD8046824F04003802B02D090
S315080024A0B4F5807F56D12022002114A801F080FEC1
S315080024B02B4A2C4BE408012E08BF134613932B1DF9
S315080024C00A93012344F000540B930C94264C01AF55
S315080024D00AAA07CA04AE87E80700CDF834900DAA01
S315080024E00E930F9407CA86E80700CDF8408011932B
S315080024F010AB129407AC93E8070084E80700394646
S3150800250013A801F022FE314613A801F01EFE21464B
S3150800251013A801F0FFFE296813A8C90801F0D4FE24
S31508002520102113A801F0D0FE01F058FEA8B913A88F
S3150800253001F0D3FE4FF098435A6CD202FCD55C6D7D
S3150800254001F056FE04F470201DB0BDE8F0836FF06C
S315080025502000F9E76FF07100F6E74FF0FF30F3E778
S315080025600001000400010104100000202DE9F04FCD
S3150800257007468B4698461646A9B05AB115683B6871
S3150800258023F04002802A03D0B3F5807F40F0CA804A
S3150800259000240DE01546F2E78DB1339B329A1B5D98
S315080025A0525D01355340349A05F00F051355013431
S315080025B05C45F1D306B135604FF0000A8BE0ABEB12
S315080025C00409B9F10F0F0CD8339B03EB0409349BAC
S315080025D01C44339B03EB0B0AD14540F083805C46D1
S315080025E0E6E72022294620A801F0E2FD4F4B3A688B
S315080025F01F933B1D10930123D20842F000521193FA
S315080026000DF1040C129210AA07CA8CE80700484A72
S31508002610CDF84C800DF1100E1493159213AA07CA23
S315080026208EE80700424ACDF858800DF11C0E179324
S31508002630189216AA07CA8EE80700339A29F00F09D6
S31508002640224449F0005E19920DF1280A19AA1A9334
S31508002650CDF86CE007CA8AE80700349A22441C922F
S315080026601D931CAACDF878E00DAB07CA83E80700CE
S3150800267061461FA801F069FD04A91FA801F065FDC0
S3150800268051461FA801F061FD0DAB19461FA801F0C0
S3150800269041FE07A91FA801F03DFE39681FA8C90811
S315080026A001F012FE49461FA801F00EFE01F096FD44
S315080026B098B91FA801F011FE4FF098435A6CD20240
S315080026C0FCD5586D4C4400F4702A01F091FDBAF11E
S315080026D0000F3FF479AF504601E04FF0FF3029B0C4
S315080026E0BDE8F08F55B1329A19F8013B525D0135B4
S315080026F0534004F8013B05F00F056DE742460121FA
S315080027003846329BFFF7BEFE0028E8D108F11002D2
S3150800271012F8013D0133DBB21370002BE3D190456B
S31508002720F6D1E0E76FF01F00D9E700BF0303000406
S31508002730100000201FB5044660B35AB3402B29D1B8
S31508002740930727D1042925D8DFE801F0031A2422A4
S315080027501E004FF4807310490B4323600023C4E91D
S31508002760013323620123019202930C4B204601A9EF
S31508002770039301F0CFFD204601F042FD04B010BDE1
S315080027804FF400730449E7E705494FF48063E3E72C
S315080027900149FAE72120F1E7010008FF400000207F
S315080027A0000008FFC0F30C032DE9F04104460F466C
S315080027B016460BB9FDF7EAFF04F500556FF30C054D
S315080027C004EB0608A84507D8324639462046BDE830
S315080027D0F0410223FDF7E8BF2846FDF7D7FF05F5C8
S315080027E00055EFE770B44FF00065AD6A03462E69F1
S315080027F0864206D86C6913449C4202D370BCFFF724
S31508002800D1BF70BC7047006900F0FE00B0FA80F0D6
S31508002810400970474FF0FF3313B5044601A80193EA
S31508002820FDF77AFE20B1019BA3422CBF00200120B0
S3150800283002B010BD01F06BBB01F028BC0346184678
S31508002840016881F3088881F3098840688746FEE7AE
S3150800285073B50C461646054618B311B30AB30023DA
S315080028600B60136040F6140303600B6843F0020321
S315080028700B6001F006FC013018BF2B6801A81CBFCD
S3150800288043F4C0332B604FF0FF33019301F0FCFB98
S31508002890019B43B92B6803432B60336843F002035B
S315080028A0336002B070BD012B02BF23680343236067
S315080028B0F3E74FF40170FDF73FBF4FF04023D3F81D
S315080028C0842010B5110606D44FF400621A67D3F8AF
S315080028D08420D206FBD4FFF7ADFFFDF7F5FE08B955
S315080028E0FDF7DAFE01F05AFA044658B9FDF7ECFE90
S315080028F008B1FDF7E1FE40F20120FDF71DFF4FF498
S31508002900017013E0FDF7E0FE08B9FDF7CDFEFDF70F
S31508002910F5FE012802D9FDF7BFFEFEE7FDF7FAFE30
S3150800292040F205439C42EAD140F20320FDF704FF3A
S31508002930002010BDB1F50D7F10B504460FD34FF436
S315080029400D72002101F034FC04F5DE7204F5AA715B
S3150800295004F12C000023BDE81040FEF707BC40F246
S31508002960052010BD13B50446009101462C30FEF72C
S3150800297037FCC4F8300218B141F20703984204D173
S31508002980A37823B1E07800F2022002B010BD40F22D
S315080029900120FAE72DE9F04387B00DF1080904464E
S315080029A00E4617460021102248461D46DDF8388097
S315080029B001F0FEFB00211C22C8F80010284601F091
S315080029C0F7FB32463B462146CDF8009004F12C0031
S315080029D0FEF706FC23789A0744BF6268C8F8002009
S315080029E0DB0709D504F1080304F1240253F8041B94
S315080029F0934245F8041BF9D1237840F20640002B90
S31508002A0018BF002007B0BDE8F0834FF40D7070477B
S31508002A10012303608020704738B50D46044630B15F
S31508002A201022002101F0C4FB0020E56038BD41F208
S31508002A300130FBE72DE9F04304460E4690469946D9
S31508002A40002589B0454501D300200AE0A37A1E2B4C
S31508002A504CD009D80A2B2CD0142B33D0B3B141F261
S31508002A60023009B0BDE8F083232B43D0282BF6D1DA
S31508002A70725D636813446360735DFF2B14D0322361
S31508002A80A372A37A322B0FD1002051E0725D12098E
S31508002A902260715D0F2A01F00F0101F104016160E6
S31508002AA0238103D10A23A3720135CBE742B91E233A
S31508002AB0F9E7725D236813442360735DFF2BF3D037
S31508002AC01423F0E72368A8EB05079F4228BF1F4693
S31508002AD070193946C8472368013DDB1B23603D440E
S31508002AE093B91E23A3720028DED0BAE7735D23814B
S31508002AF02323D8E7725D238943EA02232381636887
S31508002B00132BBCD12823CEE70028BAD0A9E7202F5B
S31508002B1028BF20272089E368874228BF07466946D9
S31508002B203A46984739466846C8476368DB1B636078
S31508002B30676827B10028EAD00023A37291E7A77235
S31508002B40D1E7826CF0B5531EB3F5887F18D8D0E963
S31508002B50093CD0E90B47C91A914228BF1146456975
S31508002B60866B2FB9C768A7EB040E8E4598BF076317
S31508002B700C44521AC462826419448B4201D14362DE
S31508002B80F0BDB34234BF644600249A1B2A44125D42
S31508002B90EA540133F1E72DE9F04F93B009910E920B
S31508002BA0036B416A0893C36A0293089B002B40F0A3
S31508002BB0A480029AC3689B1A099A521A9A4240F24A
S31508002BC09C800B444FF0FF3CD0E90DBA85680A9308
S31508002BD00CFA05F5ED430F950025C36B0B9503938A
S31508002BE0036C04690493436C026A0593D0E90036C2
S31508002BF00CFA06FC6FEA0C050D93436911950693CA
S31508002C00836A0793D0E906370F9D029EB7F1807F46
S31508002C1005EA060808EB0B1C3CBF13F8015B3F02EC
S31508002C2034F81C6038BF45EA0222FD0A754395420E
S31508002C304FEA0B1E40F2C780C6F5006706EB57172A
S31508002C4024F81C70089E029F04F66C6C3E4314D050
S31508002C50119E37400D9E07FA06F800294FD1079EA8
S31508002C60013E069FBE5D0D9FC7F1080E4FF4C06773
S31508002C7046FA0EF6464407FB06CC029EBBF1060F43
S31508002C8006F10106029647D80126BBF1030F94BF49
S31508002C90ABEB0B0BABF1030B0196019EB5F1807FF5
S31508002CA038BF13F801EB4FEA460638BF2D023CF849
S31508002CB0067038BF4EEA02224FEAD52E07FB0EFEF3
S31508002CC0964501960CEB06081BD9C7F5006507EB78
S31508002CD05515AFB27546019EA8F80070FF2EDCD9CF
S31508002CE0019F069E77542F4601310A9D8D4240F278
S31508002CF029830E9D9D4287D824E3099B62E74E1ED1
S31508002D00AFE7019EA7EB57170136A5EB0E05A2EB19
S31508002D100E02BFB20196DEE7079FA1EB0A065145F0
S31508002D2028BF0027BE46069FBBF1090F3E4416F88A
S31508002D300E908CBF06260326ABEB060B01264FF436
S31508002D4080780196019E4FEA490909EA0807B5F114
S31508002D50807F0C9708EB060709EA080638BF13F8C0
S31508002D6001EB37440CEB470638BF2D023CF81770C9
S31508002D7038BF4EEA02224FEAD52E07FB0EFE109602
S31508002D80019E96454FEA460601960FD9C7F5006596
S31508002D9007EB5515AFB209EA080528EA050875468E
S31508002DA0109E3780019EFF2ECCD999E7019EA7EB8E
S31508002DB057170136DDF83080A5EB0E05A2EB0E029B
S31508002DC0BFB20196ECE77F1BA6EB5616B7F1807FDC
S31508002DD024F81C60A2EB05020BF1C0093CBF13F8EE
S31508002DE0015B3F0234F8196038BF45EA0222FD0A42
S31508002DF0754395424FEA490C40F2D680C6F50067FE
S31508002E0006EB571724F81970059F0BF10C0B0C9756
S31508002E10049F04F264660597039FCDE903A7B5F1FD
S31508002E20807F3CBF13F8017B2D02B6F800C038BF7F
S31508002E3047EA0222EF0A0CFB07F7974240F2708135
S31508002E404FF0000ECCF500650CEB5515358006EBFA
S31508002E50081604364FF008094FF0010CB7F1807FC9
S31508002E6038BF13F8018B4FEA4C0C38BF3F0236F8CF
S31508002E700C5038BF48EA02224FEAD72805FB08F863
S31508002E80904506EB0C0A40F27B81C5F5006705EB19
S31508002E905717BDB24746CC45AAF80050DED3AEEB6D
S31508002EA0090E0EEB0C05BBF10B0F019540F2B7822C
S31508002EB0032D94BF4FEAC51E4FF49C6E4FF00105D3
S31508002EC098BF0EF5587EB7F1807F4FEA450538BFA3
S31508002ED013F801CB05EB0E0838BF3F0234F808603B
S31508002EE038BF4CEA02224FEAD72C06FB0CFC944565
S31508002EF040F25081C6F5006706EB5717BEB2674623
S31508002F003F2D24F80860DED9403D032D3FD905F052
S31508002F10010C0D2D4FEA55064CF0020C00F25081BB
S31508002F204FF00108013EC5F52B7E0CFA06FC0EF1A2
S31508002F30030EE6444FEA4E050C95C24665460B96C7
S31508002F400C9EB7F1807F4FEA480838BF13F8019BFB
S31508002F5006EB080E38BF3F0234F80EC038BF49EA00
S31508002F6002224FEAD7290CFB09F9914540F21B8149
S31508002F70CCF500670CEB57171FFA87FC4F460B9EDC
S31508002F8024F80EC0013E4FEA4A0A0B96D8D1089E8D
S31508002F9005F1010A002E40F00E82029EAE4200F2B2
S31508002FA00C824162012003E2A6EB56167F1B521BD8
S31508002FB024F81960089D029E3543F3D0B7F1807F47
S31508002FC038BF13F8015B0CF1180938BF3F0234F813
S31508002FD0096038BF45EA0222FD0A7543954251D970
S31508002FE0C6F5006706EB5717B5F1807F24F8097018
S31508002FF00EF1F00E38BF13F8017BC64438BF2D0218
S3150800300034F81E6038BF47EA0222EF0A7743974230
S315080030101FD9C6F5006506EB5515079E24F81E5000
S31508003020514528BF0026B446069EA1EB0A0535443D
S3150800303015F80C50BBF1060F7554029D88BF4FF06A
S315080030400B0B05F1010598BF4FF0090B01310295ED
S315080030504BE6A6EB561624F81E60039ECDF80CA088
S31508003060B246ED1BD21B059FBBF1060F0C97049FBA
S315080030708CBF4FF00B0B4FF0080BCDE904A704F6F5
S315080030806826CCE67F1BA6EB5616B7F1807F24F898
S315080030900960A2EB05020CF1300E3CBF13F8015B88
S315080030A03F0234F80E6038BF45EA0222FD0A75432E
S315080030B0954206D9C6F5006706EB571724F80E7031
S315080030C0D1E77F1BA6EB5616B7F1807F24F80E6072
S315080030D0A2EB05020CF1480C3CBF13F8015B3F025A
S315080030E034F80C6038BF45EA0222FD0A754395425A
S315080030F00AD9C6F5006706EB571724F80C70DDE900
S31508003100036703970496AEE7521B7D1B059FA6EB44
S31508003110561624F80C60039E0397049F0597F1E75B
S31508003120ED1BACEB5C1CB5F1807FA6F800C0A2EBEA
S3150800313007023CBF13F8017B2D02B6F802C038BF60
S3150800314047EA0222EF0A0CFB07F797420BD9CCF5A0
S3150800315000650CEB551506EB081875804FF0080E40
S3150800316008F5827676E6ACEB5C1CD21BA6F802C0A4
S315080031704FF0100E4FF4807906F50176EF1B6BE6DB
S31508003180A5EB5515A7EB0807A2EB0802ADB20CF1A3
S31508003190010C80E6A6EB5616A7EB0C07A2EB0C0271
S315080031A0B6B20135ACE6ACEB5C1CA7EB0907A2EBA3
S315080031B009021FFA8CFC08F1010845EA0A05DEE651
S315080031C0053EB7F1807F3EBF13F8015B3F0245EA33
S315080031D002227F08D21BD51705F1010E013E05EA2A
S315080031E007050EEB4C0C2A44EBD1B7F1807F38BFAC
S315080031F03F02B4F846864FEA0C154FEAD72C08FB6F
S315080032000CFC38BF13F8016B04F2446E38BF46EA6B
S31508003210022294455AD9C8F5006608EB56161FFAD5
S3150800322086F80226BCF1807FA4F846863EF816A0EA
S315080032304FEA46070EEB46093EBF13F8016B4FEA05
S315080032400C2C46EA02224FEADC260AFB06F69642D0
S3150800325048D9CAF500680AEB58181FFA88F8A9F879
S315080032600080B6F1807F3EF817A04FEA47080EEBBC
S3150800327047093EBF13F8017B360247EA0222F70ADE
S315080032800AFB07F7974238D9CAF5006C0AEB5C1CAB
S315080032901FFA8CFCB7F1807FA9F800C03EF81860C9
S315080032A04FEA480C3EBF13F8018B3F0248EA022258
S315080032B04FEAD72806FB08F8904529D9C6F50067CE
S315080032C006EB57172EF80C70474660E6A8EB581819
S315080032D0A2EB0C0203261FFA88F845F00105A7EBB6
S315080032E00C0C9FE7AAEB5A18921B1FFA88F80137AD
S315080032F045F00205ACEB0606B1E7AAEB5A1CD21B51
S315080033001FFA8CFC08F1010845F00405F71BC1E714
S31508003310A6EB561645F008052EF80C606E1CA7EBB2
S315080033200807A2EB08027FF432AE019CABF10C0B46
S3150800333004F589740B94DDE903A40394059C0494AD
S315080033400C9C0594B7F1807F3CBF13F8014B3F02F4
S31508003350C0E906370B9B38BF44EA02228364029B06
S315080033600262C362039B4162C363049BC0F838A030
S315080033700364059BC0F834B04364036B23B9C36880
S31508003380029A934298BF03630999FFF7DAFB426AE8
S315080033900999836C8A4207D282690E998A4203D2B6
S315080033A0B3F5897FFFF4FCABB3F5897F50D80020CD
S315080033B013B0BDE8F08F089EF0E5BBF1120F8CBF85
S315080033C04FF00A0B4FF0070B019E0A9D0236B5EB2C
S315080033D0010CB0463FF4E5ADB44528BFB446079E98
S315080033E0A1EB0A05514528BF00263544029E6644CE
S315080033F00296A8EB0C060B96079E761BB445069E0E
S315080034000E4414D8A5EB0108069D614405EB010C92
S3150800341016F808E006F801EBB445F9D165E4DDE9EC
S3150800342003A50395059D04950C9D0595CCE7B14626
S315080034300CEB060E069E16F80580079E09F8018B0A
S315080034400135AE4208BF0025CE45F3D161444CE4B0
S315080034504FF489738364AAE72DE9F047D0E9075347
S3150800346001278468D0F82C80A740D0F834C0013FE3
S31508003470066907EA080707EB0C1EB5F1807F36F8E0
S315080034801E900A4407D2914280F0DB8111F8014B65
S315080034902D0244EA0323EC0A09FB04F4A34278D27A
S315080034A0056B06F66C6658EA050519D0D0E900E7FB
S315080034B00125BD40013D05EA080505FA0EF7456AEE
S315080034C0D0F8148005B9856A013D18F80550CEF183
S315080034D0080E45FA0EF53D444FF4C06707FB05662E
S315080034E0BCF1060F20D801204000B4F1807F375A7E
S315080034F007D2914280F0A58111F8015B240245EAC2
S315080035000323E50A7D43AB4229BF01302C46641BE1
S315080035105B1BFF28E8D90120B4F1807F80F0218168
S31508003520914228BF00201CE1876BD0F824C045696A
S31508003530BC45ACEB070E2CBF0027876A05EB0E00CF
S3150800354010F807C001204FF480774FEA4C0C07EAC1
S315080035500C0E3D187544B4F1807F36F8158007D2F5
S31508003560914280F06E8111F8015B240245EA03233B
S31508003570E50A08FB05F54000AB422BBF01302C4697
S31508003580774627EA0E0724BF641B5B1BFF28DCD996
S31508003590C1E7281B0CF1C00CB0F1807FA3EB040334
S315080035A04FEA4C0436F81CC007D2914280F0498194
S315080035B011F8015B000245EA0323C50A0CFB05F571
S315080035C0AB4280F09F8002204FF0000E06F2646C3A
S315080035D0B5F1807FBCF8008007D2914280F0318136
S315080035E011F8014B2D0244EA0323EC0A08FB04F404
S315080035F0A34280F0EA800CEB071C00270CF1040CB0
S315080036004FF008094FF001084FEA4808B4F1807FE7
S315080036103CF808A007D2914280F0138111F8015BAB
S31508003620240245EA0323E50A0AFB05F5AB4229BF4E
S3150800363008F101082C46641B5B1BC845E4D3BEF1A0
S31508003640030F3FF669AFA7EB09074744032F88BF67
S315080036504FF49C674FF001059CBFFF0107F55877AB
S315080036606D0006EB050CB4F1807F3CF807E007D245
S31508003670914280F0E68011F801CB24024CEA03233C
S315080036804FEAD42C0EFB0CFC634529BF0135644672
S31508003690A4EB0C04A3EB0C033F2DE1D9403D032D0D
S315080036A07FF63AAF0D2D4FEA550700F2B08005F0C8
S315080036B0010C013F4CF0020CC5F52B750CFA07FC02
S315080036C00335654406EB45064FF0010C4FEA4C0CF2
S315080036D0B4F1807F36F80CE007D2914280F0B180D1
S315080036E011F8015B240245EA0323E50A0EFB05F5FA
S315080036F0AB4231BF2C46641B5B1B0CF1010C013F2E
S31508003700E4D109E7401B3444B0F1807FB4F818C00F
S31508003710A3EB050307D2914280F0938011F8015B71
S31508003720000245EA0323C50A0CFB05F5AB4222D283
S315080037300EF1F00EB5F1807F36F81E4006D29142A2
S315080037407FD211F8010B2D0240EA0323E80A6043F1
S31508003750834208D2B0F1807F71D2914234BF0320F0
S315080037600020BDE8F0872D1A1B1A03204FF00C0E17
S3150800377006F6682C2CE7401BB0F1807FB4F830C001
S31508003780A3EB050306D291425BD211F8015B000256
S3150800379045EA0323C50A0CFB05F5AB42E5D3401BF6
S315080037A0B0F1807FB4F84840A3EB050306D29142F6
S315080037B047D211F8015B000245EA0323C50A6543AF
S315080037C0AB4224BF5B1B451BCFE72D1BB5F1807FA2
S315080037D0BCF80280A3EB040306D2914231D211F859
S315080037E0014B2D0244EA0323EC0A08FB04F4A34226
S315080037F005D20CEB071707F5827C082700E71B1B89
S3150800380010274FF480790CF5017C2C1BFAE6053F4E
S31508003810B4F1807F06D2914213D211F8015B2402DB
S3150800382045EA032364081D1BED0F013D2540013FB2
S31508003830A3EB0503ECD1042706F2446644E703200C
S315080038408FE700208DE700230122C0E90B33C0E98A
S31508003850123243628365026570472DE9F74F1F46AA
S315080038604FF0000804469DF830303E68C7F80080DF
S3150800387001938A461546FFF764F90D9B83F8008085
S31508003880A36CB3F5897F09D1236A13B901230D9A6D
S315080038901370206A003818BF012022E0E36C8BB150
S315080038A0A36D6EB3042B1FD994F85C30002B40F03F
S315080038B0C780D4F85D20E36412BA22624FF0FF3263
S315080038C0A365E261636A53451ED3A36C002B40F0DF
S315080038D0BB80236A002B40F0BC80042300200D9A8D
S315080038E0137003B0BDE8F08F5A1CA26515F8012BBA
S315080038F0234483F85C203B68013E01333B60CFE7F5
S31508003900042BD1D80323E9E74FF0000B226D9AB1B7
S31508003910D4E9002111444FF440728A4000212069FD
S3150800392002F236728A4222D80122C4E91022C4E978
S315080039300E22002262632265D4F85880B8F1000F7F
S3150800394063D1132E02D9BBF1000F1DD0324629468A
S315080039502046FFF781FD80B93246294604F15C000E
S3150800396000F02EFCA6653B6833443B60CAE74FF47B
S31508003970806320F811300131D4E7BBF1000F01D084
S3150800398002285AD12A4602E0A6F114022A445146D0
S315080039902046A561FFF7FFF8002851D1A3693A68C8
S315080039A05D1B2A443A60761B1D4669E715F809101F
S315080039B008F1010802F8081009F10109B8F1130F16
S315080039C028D9C4F85880BBF1000F27D104F15C0B45
S315080039D05A4651462046C4F818B0FFF7DCF878BBBB
S315080039E0A369A3EB0B0290452CD3A8EB02034B4526
S315080039F028D839684A44A2EB08031944B044396008
S31508003A002B44A8EB0206A065CEE74FF0000904F1A7
S31508003A105B02D3E74E45C9D1C4F8588042462046D2
S31508003A2004F15C01FFF718FD10B93B684B449CE7AD
S31508003A30BBF1000FCAD00228C8D002230D9A137012
S31508003A4001204EE70B204CE7019B002BF5D1022302
S31508003A5044E7019B002BFAD04FF0010B56E72DE9FE
S31508003A60F04F89B0DDF848809A469DF84C300446F8
S31508003A700493D8F800308B4602930023164617683D
S31508003A801360C8F80030029BD4E909518D420793A8
S31508003A9002BF00231D4663624B1BBB4234BF002393
S31508003AA0049B149A28BF7919CDE90032204652465C
S31508003AB007ABFFF7D2FE079A029B61699B1A02932E
S31508003AC0D8F8003003901344C8F80030636A5846A3
S31508003AD0A3EB0509924429444A46059300F070FB76
S31508003AE0059BCB44FB1A5F1933684B443360039B31
S31508003AF023B9B9F1000F01D0002FC4D1039809B03A
S31508003B00BDE8F08F10B504464B680846216998470A
S31508003B100023236110BD70B54FF440751646D1E9F0
S31508003B20003213449D400369044605F2367513B105
S31508003B30436DAB420ED031462046FFF7E3FF3046D1
S31508003B403368690098472061B0FA80F040096565D6
S31508003B50400070BD0020FCE738B504460D46FFF767
S31508003B60D1FF6B682846616998470023636138BDB1
S31508003B70042A01D804207047D1F80130B3F5805FD4
S31508003B8038BF4FF48053C3600A78E02AF2D8092375
S31508003B90B2FBF3F303EBC301521AD2B20260052259
S31508003BA0B3FBF2F2826002EB82029B1ADBB243603D
S31508003BB00020704770B5D1E90153AB4218D290F88E
S31508003BC040202A44D21A402A12D80A6890F840405F
S31508003BD0D65C90F841200133224402F03F020134BA
S31508003BE09D4286548B6080F84040EED1012070BD1E
S31508003BF00020FCE72DE9F84390F840C017469E469A
S31508003C00D1E90123089DD21A6244954204460E461C
S31508003C109DF824909DF828800AD9FFF7CBFF002845
S31508003C206AD1142341F2020084F84630BDE8F883CD
S31508003C30754558D80023BCF1000F01D09D4235D1F7
S31508003C40D6E90121914201D29D4244D89D4250D1E4
S31508003C5029463846D4F88820FDF758FEC4F8880067
S31508003C60B9F1000F04D02A463946E06C00F057F83F
S31508003C70B8F1000F08D094F843308BB12B463A467A
S31508003C803946A06C00F03AF894F8433043B1E36D36
S31508003C90A26D2B449342E36524BF002384F8433086
S31508003CA0636D41F203002B446365BFE794F8412036
S31508003CB0A25CFA5494F8412094F840C001320CF101
S31508003CC0FF3C02F03F025FFA8CFC84F8412084F83E
S31508003CD040C00133AFE73268525CFA54B268013328
S31508003CE00132B260ACE741F20100142384F8463091
S31508003CF09CE741F20200F8E7002097E71FB50C465B
S31508003D00194600F14803CDE90142009300F1440247
S31508003D1000F158032030FEF729FC04B010BD00F06E
S31508003D200CB8014600F016B86822002100F040BA27
S31508003D3003460020C3E90000704707B500F12803D1
S31508003D400190009300F108030020FDF7F3FE03B08D
S31508003D505DF804FB08B502460B4600F12801083059
S31508003D60FDF748FF002008BD00234FF0FF3203602F
S31508003D7001238B4201D30020704740F823200133EA
S31508003D80F7E7036840F204500133012B98BF00207F
S31508003D90704740F20250704770477047FDF7CCBF36
S31508003DA001221A70704730B504460D46A3B0D0F804
S31508003DB02C1202AA8023D0F82402FEF727F88023C3
S31508003DC02146009502AA04F12C00FDF709FAD4F859
S31508003DD02C32C4F830028033C4F82C3223B030BDFC
S31508003DE01FB50023CDE90033CDE90213D0F83032F0
S31508003DF0044693B9D0E98A329A420ED26946FFF749
S31508003E00D2FFD4F8300270B141F2070240F2012322
S31508003E10904208BF184604B010BDA37833B1E078C5
S31508003E2000F20220F7E740F20120F4E740F2022010
S31508003E30F1E737B50C46054611462046FEF77AFDEA
S31508003E4048B969462846FDF7C9FF30B9019BC4F849
S31508003E502452C4F8283203B030BD40F20140FAE7D4
S31508003E6038B500F5DE7204460D46202300F5AA7122
S31508003E702C30FDF77BF9D4F8303213B1A07848B965
S31508003E8038BDD4E98A329A42F8D229462046FFF745
S31508003E908AFFF0E7E078F3E738B5FCF773FD9F2073
S31508003EA0FCF720FDFCF74AFD0546FCF753FD0446E2
S31508003EB0FCF772FD9D2D17D0C22D03D01F2D0CD0F7
S31508003EC0002038BD42F614039C4214D042F616036D
S31508003ED09C420CBF0A200020F3E748F201439C42AB
S31508003EE00CBF0E200020ECE744F213039C420CBFE3
S31508003EF017200020E5E70720E3E708B5FCF742FDB1
S31508003F000620FCF7EFFCBDE80840FCF745BD08B500
S31508003F10FCF792FCFFF740FF42F21070FCF76CFCCE
S31508003F20FCF730FDAB20FCF7DDFCFCF735FD47F26E
S31508003F303050FCF761FCFFF7AFFF002840F2011094
S31508003F4018BF002008BD10B5FCF71CFD0520FCF7BE
S31508003F50C9FCFCF7F3FC0446FCF71EFD04F001005F
S31508003F6010BD08B5FFF7EFFF0028FBD108BD38B52F
S31508003F7005460C46FFF7F5FFFFF7BFFFFCF702FD06
S31508003F802846FCF7AFFC2046FCF7B8FCBDE83840ED
S31508003F90FCF702BD70B514460D46002221460646BA
S31508003FA0FEF78AF8A8B1FFF7DCFFFCF7EBFC032065
S31508003FB0FCF798FC3046FCF7A1FC2C44A54203D13B
S31508003FC0FCF7EAFC002070BDFCF7B8FC05F8010B0D
S31508003FD0F4E740F20240F6E72DE9F04114460F46B1
S31508003FE0002221460646FEF767F8002846D0FFF766
S31508003FF0B8FFFCF7C7FC0320FCF774FC3046FCF757
S315080040007DFC25468DB9FCF7C7FCF3B253B326F001
S31508004010FF0505F580753319AB4232BF2546AD1B42
S31508004020ADB25CB92046BDE8F081FCF787FCFF28F5
S3150800403005F1FF35E6D040F20340F4E7FFF791FFBC
S31508004040FFF75BFFFCF79EFC0220FCF74BFC3046B3
S31508004050FCF754FC07EB0508B8450AD1FCF79CFCAD
S31508004060641B2E44B4F5807F254628BF4FF480751F
S31508004070D7E717F8010BFCF735FCEDE740F20240ED
S31508004080D1E74FF0FF307047FEF7C2BC08B5FFF71F
S3150800409068FFFCF777FCB920FCF724FCFCF77CFCEE
S315080040A0FFF77BFE002008BDFEE700239A4200D1F9
S315080040B0704710B550F8234041F8234001339A421F
S315080040C0F8D110BD70B5054614460E4600F0C8F87E
S315080040D02B685C4034405C402C60BDE8704000F0C2
S315080040E0BAB883691B06FCD5406AC0B270478369B3
S315080040F05A06FCD5C16383699B06FCD5406AC0B2E3
S31508004100704783695B06FCD5C1637047242200218A
S3150800411000F04EB870B515460E4624220021044616
S3150800412000F046F825F04003802B02D0B5F5807FD5
S3150800413008D12046314640F8045BEA0800F040F80A
S31508004140002070BD6FF01F00FBE7436813B941609C
S3150800415070475B685A68012AFBD159607047013974
S31508004160024410B5904201D1002005E0037811F809
S31508004170014FA34201D0181B10BD0130F2E7884257
S3150800418010B501EB020402D98442234607D8431E20
S31508004190A14207D011F8012B03F8012FF8E70244D2
S315080041A0824200D110BD13F8011D02F8011DF7E780
S315080041B002440346934200D1704703F8011BF9E70E
S315080041C00A44431E914200D1704710B511F8014BBD
S315080041D0914203F8014FF9D110BD00004FF48062F7
S315080041E0024B9A66BFF34F8F00207047009000403D
S315080041F04FF48062014B00209A66704700A0004089
S3150800420008B5C0B14FF480620C4B9A66BFF34F8F66
S3150800421000F063F84FF098435A6CD202FCD54FF47D
S315080042208062586D064B10F470209A6604D0BDE87B
S31508004230084000F019B8212008BD00BF00900040D2
S3150800424000A000404FF098435A6CD202FCD5586D36
S3150800425000F47020704710B962B6BFF36F8F7047CD
S31508004260EFF3108072B67047B0F5802F24D010D8BF
S31508004270B0F5003F22D006D828B3B0F5803F14BF6A
S31508004280012048207047B0F5403F14BF01202C207C
S315080042907047B0F5302F13D008D8B0F5E02F11D0FD
S315080042A0B0F5202F14BF012010207047B0F57F0FFE
S315080042B014BF0120062070474B2070472A207047FC
S315080042C01120704721207047036A042B9FBF00EB1B
S315080042D083020133D16003627047036A052B14D841
S315080042E04FF09842116CC902FCD504339B00136544
S315080042F00168103B11604168116050F8081F116091
S315080043004FF098420344984200D1704750F8041F72
S315080043101160F8E7836813B9816070475B685A686B
S31508004320012AFBD159607047000000000000000018
S31508004330000000000000000000000000000000006F
S31508004340F8B500BFF8BC08BC9E467047F8B500BF74
S31508004350F8BC08BC9E467047B814B6F1E0CFF3AD7A
S31508004360B7DD25C9FA79B7130000000013B779FA43
S31508004370C925DDB7ADF3CFE0F1B614B801020000E8
S3150800438002000000944600084000000000000203F6
S31508004390000000000000000000000000000000000F
S315080043A000000000000000000000000000000000FF
S315080043B000000000000000000000000007B0CD5E0D
S315080043C00200000000000203984600000060000892
S315080043D000003208F00401003528000839280008D2
S315080043E035030008352900086529000848450008EE
S315080043F0952900080B2A000800000000512800082B
S31508004400690500080400000700000D1013001A20B3
S315080044102630384050000000FD0505FD050C000853
S31508004420310C0008950C0008790C0008FD0707FDFB
S31508004430FD0D00082D0E0008F50E0008D90E00081F
S31508004440EB17A6030201000003000000FA0606FAAD
S315080044500F04000003000000F40A0AF40505000032
S3150800446001000000EB17A65E0A0600000100000026
S31508004470F50909F50307000001000000F60808F62B
S315080044800608000000000000FE0101FE0808000002
S3150800449000000000FD0303FD0C08000000000000FA
S315080044A0FD0505FD1308000000000000FD0707FDD7
S315080044B01308000000000000F90707F910090000BA
S315080044C002000000F30B0BF3110A000003000000C2
S315080044D0F70A0AF7120B000003000000FC0404FCAC
S315080044E00D0C000003000000800000000000000022
S315080044F000000000000000000000000000000000AE
S31508004500000000000000000000000000000000009D
S31508004510000000000000000000000000000000008D
S3150800452000000000000000006A09E667BB67AE8568
S315080045303C6EF372A54FF53A510E527F9B05688C77
S315080045401F83D9AB5BE0CD1900010000451F0008A9
S31508004550DD1D00080D1E0008DD1E0008211F0008CD
S31508004560833D0008693D0008933D0008333E000876
S31508004570E13D0008511E0008473F0008953F000826
S31508004580D93F0008052100088340000800001000F4
S3150800459000000400000010000000040000000800ED
S315080045A0000010000000100000002000000020009D
S315080045B00000400000008000000008000000100015
S315080045C000000800000004000000080000001000B9
S315080045D0000020000080000000000100000002002A
S315080045E000000400000008000000000001000000B0
S315080045F00000000000001000100203009A010000ED
S31508004600000C000000100000000008000000000078
S315080046100100000001000000100203009A010000DA
S315080046200030000000100000000008000000000034
S315080046300100000000020000100203009A010000B9
S3150800464000E001000010000000004000000000002B
S315080046500100000000200000100203009A0100007B
S3150800466000780000001000000000100000000000A4
S31508004670010000000000010084460008CC5D00200F
S3150800468004000000D10C0008090D00087502000896
S30D080046904D0200080B68AE019B
S3150800600008120020B57E0008F34A0708C17C02087A
S31508006010B93D0808E97C0208FD7C0208117D0208E2
S31508006020F34A0708F34A0708F34A070889A00B0842
S31508006030257D0208B4300D082DA00B082DDE0B08AF
S31508006040F34A0708F34A0708F34A0708F34A070812
S31508006050F34A0708F34A0708F34A0708F34A070802
S31508006060F34A0708F34A0708F34A0708F34A0708F2
S31508006070F34A0708F34A0708F34A0708F34A0708E2
S31508006080F34A0708F34A0708F34A0708F34A0708D2
S31508006090B57E0208F34A0708F34A0708F34A0708D1
S315080060A0F34A0708F34A0708F34A0708F34A0708B2
S315080060B0F34A0708F34A0708F34A0708F34A0708A2
S315080060C0F34A0708F34A0708F34A0708196201085A
S315080060D0F34A0708F34A0708F34A07087D600108E8
S315080060E05D600108F34A0708F34A0708F34A0708F8
S315080060F0F34A0708F1290708C5320708A7960B08C7
S31508006100A3960B08392A0708BD960B08AB960B0809
S3150800611095320708AF960B08053307086D3307084D
S31508006120F34A0708F34A0708257E0208F34A0708D0
S315080061304F330808F34A0708F34A0708F34A0708DB
S31508006140F34A0708F34A0708F34A0708F34A070811
S31508006150F34A0708F34A0708F34A0708F34A070801
S31508006160F34A0708F34A0708F34A0708F34A0708F1
S31508006170F34A0708F34A0708F34A0708F34A0708E1
S31508006180F34A0708D9330208F34A070875ED0B08DE
S31508006190F9130708F34A070887960B088D960B0824
S315080061A0F34A0708F34A0708F34A0708F34A0708B1
S309080061B0F34A070891
S315080061C0F0B5114A114C124E00F00105E3695F075C
S315080061D013D40DB9334213D103EA00078F4207D10E
S315080061E00B4A1A40002A14BF6FF001000020F0BDC8
S315080061F0013AEBD16FF00200F9E74FF0FF30F6E70E
S315080062006FF00100F3E700BF809698000000035086
S315080062100200010070B50B4BD96911F480310DD11C
S3150800622001244FF48072084E084DF46020462C6411
S315080062301A61FFF7C5FF3464EC6070BD6FF00100AA
S31508006240FBE700BF00000350001003500020035076
S315080062504FF4803238B50E4B0E4C9A66E56941F616
S31508006260713315400122E3630B4B0021DA600223E8
S31508006270606121202361FFF7A3FF10B92120FFF7F2
S315080062809FFF0122054BDA600DB10023E36338BD99
S3150800629000900050000003500010035000200350E7
S315080062A070B5134C6061E3695B071ED40E4656F859
S315080062B0043B8D18A361AE420BD104230021212093
S315080062C02361FFF77DFF58B9BDE870402120FFF72D
S315080062D077BF08210846FFF773FF10B1042323612F
S315080062E070BD56F8043BA361E5E74FF0FF30F7E7CA
S315080062F0000003502DE9F84316464FF48032184B38
S3150800630089469A6603F51C33DA69074602F480382B
S3150800631041F67132DA63012203F58053114DDA60D2
S3150800632066B930460122104BDA60B8F1000F03D087
S315080063300022A3F50053DA63BDE8F88307F5005495
S315080063402C40E41BB44228BF344649462246384608
S31508006350FFF7A6FF0028E5D12744A144361BDFE74F
S315080063600090005000E0FFFF0020035000000000EE
S31508006370000000000000000000000000000000000F
S31508006380013800D0FCE7704773B56FF036F904465C
S3150800639000286ED13A4B01AE1A889B78ADF80420D6
S315080063A0B37002F045FB03F051F802F0AFFF054663
S315080063B0344B036003F000FA284603F03BF900B9B2
S315080063C0FEE72DA3D3E900234FF0FF314FF0FF304E
S315080063D002F036FB02F09EFF214602F0F7FF6FF04F
S315080063E00FF9304603F0E8F8044600B1FEE7264BFD
S315080063F0264A98801860264B98801A60254B264AAC
S3150800640098621A60254A98806FF06300DA6003F094
S3150800641031FF0B2002F0CCFF03F02AF802F070FFE0
S3150800642000B9FEE714F0F4FF20466FF0B1FA082130
S3150800643008466FF0B4FA00B1FEE76FF0A7FA02F06B
S31508006440B5FE6FF0F1F9102115487DF023FD00B96E
S31508006450FEE7144912487DF02FFD00B9FEE710212A
S315080064608C20114A14F0B8FB00B1FEE70F486FF014
S315080064704AFD02B070BD00BF0AE020FFE20300003B
S3150800648050340D08C157070888120020FC810120E6
S3150800649058120020281200207C81012018120020A2
S315080064A06CF700202DEA0B085CF7002021FC0B088E
S315080064B02DE9F04389B06FF091F800B9FEE75C4D1D
S315080064C02B6803B9FEE701229B8811460DF10B00E4
S315080064D08DF80B3003F02EF89DF80B102B68023957
S315080064E00022186889B203F025F80023059307935C
S315080064F0504B05AE06932B6893F82C208DF8142084
S315080065001B681C7814F0200414D06FF043FA002896
S315080065105ED06FF03FFA53F0E9FD0B46024640A104
S31508006520D1E9000153F086FF54F0F4F8079B1844AC
S315080065300124079003F03AF89DF80B30063300283B
S3150800654049D0D80053F0E2FD37A3D3E9002353F02E
S3150800655047FE8946804603F029F853F0C7FD0B46E7
S3150800656002464946404653F065FF54F0D3F8079B68
S31508006570184407906FF039F838B102F085FF00200B
S315080065806FF02FF800206FF033F82A6853696BBB59
S315080065906FF047F8D5F800C008B3079B264F03F5F8
S315080065A0FA7307939CF81830BB7002F067FFF8700F
S315080065B0286833463A462146807902F09DFF58B34B
S315080065C04FF480510020B8F048FA6FF006FB23E03C
S315080065D00798C030ACE7079800EB4310C9E7324686
S315080065E021469CF8060002F07DFFE8E700210491A9
S315080065F0116912480B449621A3F59B738180039376
S31508006600907921460D4B009603AA02F083FF0028D5
S31508006610D6D101206FF010F809B0BDE8F08300BFAD
S315080066200000000060E366410000000080842E41FF
S3150800663058F7002020A10700E4AB0120D8AB0120C1
S315080066402DE9F04F2DED028B1C4613690546052BE7
S31508006650D7B00BD8013B01220026042B23D8DFE84C
S3150800666013F041001C012301320145014FF6FC726B
S31508006670934212D04FF6FD7293424FF0010340F059
S31508006680378102200021CDE9400184F844302046B4
S3150800669040A989F0C6FC2860D7E000230022CDE98E
S315080066A040230123F1E7CB69204684F844202E9342
S315080066B088F0C1FE0028EED141A840949EF08EFDD8
S315080066C040A92EA88CF09AFC0646204688F0F8FECB
S315080066D03046002EDFD14FF6FF7384F84C60A4F8DD
S315080066E04A30D8E7D1F81CA0204684F8442088F020
S315080066F0A2FE0746002840F0A78015A814949EF02D
S315080067006DFD51460CA889F054FA0523B8469FED4D
S315080067107A8B0DF14009C9E900A7C9E90233494650
S315080067200CA88CF0F6FB002800F084800CA88CF0EE
S31508006730D6FB8DED248B8DED268B90F88160CDE907
S315080067402888CDE92088ADF888808DF8A8808DF84E
S31508006750B460D0E90023CDE92623B0F8823000F1F1
S31508006760600BADF88830D0E9022320215846CDE9E0
S315080067702423A8F092F9624B3146CDE928B02EAA17
S3150800678050462E9399F040F90146002851D12FAB77
S3150800679020934123219340AB049355230DF1100B0D
S315080067A031465A465046059399F0BAFA01460028EA
S315080067B03FD1059BB3B19BE80300012607AB0DF15A
S315080067C0280B83E80300194658468DF818608DF89B
S315080067D024608CF009FC9BE803002BAB83E80300DC
S315080067E08DF8A8609DF8B430002B50D0149E96F80A
S315080067F0452096F808B00AB15B454AD1304615A936
S3150800680088F085FE002844D096F84630316823B3D0
S31508006810096C4FF480720023CDF800B020A887F0E9
S31508006820F6F90146304615AA039188F089FE0399C0
S3150800683079B30F46204688F043FE2FB94FF6FF730B
S3150800684084F84C70A4F84A302F6000232B71284630
S3150800685057B0BDEC028BBDE8F08F336C06F1280209
S3150800686009A888F0A2FD01460028DBD13368022278
S31508006870196C20A80023CDF800B087F0C8F90146A6
S315080068800028CFD1316809A888F0C7FDC9E771216A
S31508006890CFE70CA88CF010FB41E70520002184F80F
S315080068A04420CDE94001F2E6CB6993F88233CDE97D
S315080068B040360123204684F8443040A989F0B1FBCC
S315080068C02E712860C3E7CB69204684F844202E93AE
S315080068D088F0B1FD00287FF4DEAE41A840949EF012
S315080068E07DFC40A92EA88CF08AFCEDE6237ADEE72B
S315080068F08622C0E90023AAE7000000000000000085
S3150800690090B00D08000000002DE9F04F2DED028B28
S315080069104FF0000A4FF0000B1F464FF6FF74002396
S31508006920CDB0CDE930ABCDE932ABCDE936ABDFF84A
S315080069309CA205460E469046CDE90E338DF8D0301A
S315080069403593CDF8E0A04A9472B1044600F534793F
S315080069504C4501D10B240CE0204689F0F2F80028BA
S3150800696000F01B819034F3E798F0DEFF814630B9DA
S31508006970AC2420464DB0BDEC028BBDE8F08F05F582
S315080069803474204696F04DFAB9F882308DF8D06006
S31508006990ADF8283199ED028B09F1600920214846A6
S315080069A0A8F07BF8CDE90E90834B0DF12C091093D6
S315080069B00023CDF878A048461193C9F800300D9306
S315080069C00C938AF030FC4FF4C87044F08DF90DF141
S315080069D0300AC9F8000050B90B240DA88AF023FC28
S315080069E00CA88AF020FC0BA88AF01DFCC1E70990C8
S315080069F050468AF018FC4FF4C87044F075F983467F
S31508006A00CAF800000028E7D00DA88AF00CFC4FF45D
S31508006A10C87044F069F90D900028DDD0099B31460D
S31508006A2012934FF4C87312AACDE915302846CDE95A
S31508006A30133B179398F0D8FF08B10446CDE73146C3
S31508006A40284614AA98F0B2FF0028F6D131462846FF
S31508006A5016AA98F088FF0028EFD112A918A88CF07A
S31508006A60C3FA14A91AA88CF0BFFA16A91CA88CF0A8
S31508006A70BBFA38AB079332AB059336AB049330AB0E
S31508006A800DF1780B039310AB8DED008BCDF818B094
S31508006A9002931CAA1AA918A83BF030FA0028CCD1F0
S31508006AA00DA88AF0C0FB50468AF0BDFB48468AF01E
S31508006AB0BAFB9FB9D5F86403002862D003689B68BF
S31508006AC098470246D5F864030368002A52D05A4606
S31508006AD031465B69984780B104464AE73B683846C1
S31508006AE05B699847594699F04AFA08B9C52440E7B8
S31508006AF09DF8603135978DF82A319DF86831204622
S31508006B00B3FA83F330A95B098DF82B3199F0DEF9D6
S31508006B100028E1D120460EA998F0B3FE94F88130FA
S31508006B20B8F1000F2FD002211120244A9FF01FFC34
S31508006B30D4E900122369CDE901210093022111202D
S31508006B4063691F4A9FF013FC119905F55D703FF0C4
S31508006B50BFF9034620B1012111201A4A9FF007FC0C
S31508006B60B8F1000F04D095F88233013385F88233E3
S31508006B700024FEE63146DB6898470028BDD110247C
S31508006B80F7E60324F5E6D4E900121120CDE9002141
S31508006B9002210D4A9FF0EBFBD6E7BDF864319FED65
S31508006BA0048BADF828318DF8D060FDE6AFF3008090
S31508006BB0000000000000000074A10D08C5C70C08FD
S31508006BC0E5C70C085DC80C0828C80C0890B00D0865
S31508006BD02DE9F0478AB00DF10D03019315230646FA
S31508006BE000934FF48072002308460C469EF064FC1E
S31508006BF0E8B996F8963001220093204600239EF0C5
S31508006C00ECFBA0B996F897300222009320460023A1
S31508006C109EF0E3FB58B90DF10E03019316230322E8
S31508006C200093204600239EF047FC054610B10AB0A3
S31508006C30BDE8F0874FF0100906F1C8070DF11808EE
S31508006C40102200214046A7F0EEFE0DF10F03019336
S31508006C5015234FF480720093204600239EF02CFCE7
S31508006C600028E4D196F89720EBB29A4251D917ED4D
S31508006C700C7BC44637F828ACA7F12603A7F1160EF5
S31508006C80624618685968083303C273459446F7D1B3
S31508006C908DED007B0422002320469EF079FB002818
S31508006CA0C5D1052200232046CDF800A09EF095FB0D
S31508006CB00028BCD14046494606228DE80300002339
S31508006CC02046CDE904899EF0CAFC0028AFD12046AB
S31508006CD09DF90F109EF025FC013530370028A6D106
S31508006CE0032DADD120469DF90E109EF01AFC002802
S31508006CF09DD1B6F88E3007220093204600239EF0D9
S31508006D006CFB002893D120469DF90D109EF009FCD6
S31508006D108DE782469FED027BBAE700BFAFF300809E
S31508006D200000000000000000A0F1840050E700BF4A
S31508006D302DE9F04F2DED028B06460C469FED508B44
S31508006D404569DFF8488199B006F110039D4207D1DD
S31508006D50304619B0BDEC028BBDE8F04F40F04EBD91
S31508006D60D5E91102D4E928139A4208BF88426F6808
S31508006D70019565D1D5E91302D4E92A139A4208BFC9
S31508006D8088425DD14FF000090DF1300A002110222A
S31508006D905046A7F048FE14A8CDF844908DED128B06
S31508006DA0CDF84080A0F063F9ADF85C908DF85E9060
S31508006DB0A146B4F8583009A8ADF8423059F8883BCE
S31508006DC01193A0F054F999E8030007AB83E8030090
S31508006DD094F88C30B3B38446D4E9240105AB83E830
S31508006DE0030094F8943083B30246D4F89830CDE97A
S31508006DF014C2049313F47F0FCDE9023314BFBDF810
S31508006E001030BDF82C30ADF8583094F883308DF832
S31508006E105D3094F884308DF85C3094F886301BB178
S31508006E2094F885308DF85E304FF0000B043D04F180
S31508006E30080963685B450AD8304601A940F09CFCFE
S31508006E403D4681E7DDF824C0C6E70A9ACDE74846FD
S31508006E5040F0E4F948B9012122200B4A9FF087FA4D
